{
  "_format": "hh-sol-artifact-1",
  "contractName": "LabradoToken",
  "sourceName": "contracts/LabradoToken.sol",
  "abi": [
    {
      "inputs": [],
      "stateMutability": "nonpayable",
      "type": "constructor"
    },
    {
      "anonymous": false,
      "inputs": [
        {
          "indexed": true,
          "internalType": "address",
          "name": "owner",
          "type": "address"
        },
        {
          "indexed": true,
          "internalType": "address",
          "name": "spender",
          "type": "address"
        },
        {
          "indexed": false,
          "internalType": "uint256",
          "name": "value",
          "type": "uint256"
        }
      ],
      "name": "Approval",
      "type": "event"
    },
    {
      "anonymous": false,
      "inputs": [
        {
          "indexed": true,
          "internalType": "address",
          "name": "previousOwner",
          "type": "address"
        },
        {
          "indexed": true,
          "internalType": "address",
          "name": "newOwner",
          "type": "address"
        }
      ],
      "name": "OwnershipTransferred",
      "type": "event"
    },
    {
      "anonymous": false,
      "inputs": [
        {
          "indexed": true,
          "internalType": "address",
          "name": "from",
          "type": "address"
        },
        {
          "indexed": true,
          "internalType": "address",
          "name": "to",
          "type": "address"
        },
        {
          "indexed": false,
          "internalType": "uint256",
          "name": "value",
          "type": "uint256"
        }
      ],
      "name": "Transfer",
      "type": "event"
    },
    {
      "inputs": [
        {
          "internalType": "address",
          "name": "owner",
          "type": "address"
        },
        {
          "internalType": "address",
          "name": "spender",
          "type": "address"
        }
      ],
      "name": "allowance",
      "outputs": [
        {
          "internalType": "uint256",
          "name": "",
          "type": "uint256"
        }
      ],
      "stateMutability": "view",
      "type": "function"
    },
    {
      "inputs": [
        {
          "internalType": "address",
          "name": "spender",
          "type": "address"
        },
        {
          "internalType": "uint256",
          "name": "amount",
          "type": "uint256"
        }
      ],
      "name": "approve",
      "outputs": [
        {
          "internalType": "bool",
          "name": "",
          "type": "bool"
        }
      ],
      "stateMutability": "nonpayable",
      "type": "function"
    },
    {
      "inputs": [
        {
          "internalType": "address",
          "name": "account",
          "type": "address"
        }
      ],
      "name": "balanceOf",
      "outputs": [
        {
          "internalType": "uint256",
          "name": "",
          "type": "uint256"
        }
      ],
      "stateMutability": "view",
      "type": "function"
    },
    {
      "inputs": [
        {
          "internalType": "uint256",
          "name": "amount",
          "type": "uint256"
        }
      ],
      "name": "burn",
      "outputs": [],
      "stateMutability": "nonpayable",
      "type": "function"
    },
    {
      "inputs": [
        {
          "internalType": "address",
          "name": "account",
          "type": "address"
        },
        {
          "internalType": "uint256",
          "name": "amount",
          "type": "uint256"
        }
      ],
      "name": "burnFrom",
      "outputs": [],
      "stateMutability": "nonpayable",
      "type": "function"
    },
    {
      "inputs": [],
      "name": "decimals",
      "outputs": [
        {
          "internalType": "uint8",
          "name": "",
          "type": "uint8"
        }
      ],
      "stateMutability": "view",
      "type": "function"
    },
    {
      "inputs": [
        {
          "internalType": "address",
          "name": "spender",
          "type": "address"
        },
        {
          "internalType": "uint256",
          "name": "subtractedValue",
          "type": "uint256"
        }
      ],
      "name": "decreaseAllowance",
      "outputs": [
        {
          "internalType": "bool",
          "name": "",
          "type": "bool"
        }
      ],
      "stateMutability": "nonpayable",
      "type": "function"
    },
    {
      "inputs": [
        {
          "internalType": "address",
          "name": "spender",
          "type": "address"
        },
        {
          "internalType": "uint256",
          "name": "addedValue",
          "type": "uint256"
        }
      ],
      "name": "increaseAllowance",
      "outputs": [
        {
          "internalType": "bool",
          "name": "",
          "type": "bool"
        }
      ],
      "stateMutability": "nonpayable",
      "type": "function"
    },
    {
      "inputs": [
        {
          "internalType": "address",
          "name": "_to",
          "type": "address"
        },
        {
          "internalType": "uint256",
          "name": "_amount",
          "type": "uint256"
        }
      ],
      "name": "mint",
      "outputs": [],
      "stateMutability": "nonpayable",
      "type": "function"
    },
    {
      "inputs": [],
      "name": "name",
      "outputs": [
        {
          "internalType": "string",
          "name": "",
          "type": "string"
        }
      ],
      "stateMutability": "view",
      "type": "function"
    },
    {
      "inputs": [],
      "name": "owner",
      "outputs": [
        {
          "internalType": "address",
          "name": "",
          "type": "address"
        }
      ],
      "stateMutability": "view",
      "type": "function"
    },
    {
      "inputs": [],
      "name": "renounceOwnership",
      "outputs": [],
      "stateMutability": "nonpayable",
      "type": "function"
    },
    {
      "inputs": [],
      "name": "symbol",
      "outputs": [
        {
          "internalType": "string",
          "name": "",
          "type": "string"
        }
      ],
      "stateMutability": "view",
      "type": "function"
    },
    {
      "inputs": [],
      "name": "totalSupply",
      "outputs": [
        {
          "internalType": "uint256",
          "name": "",
          "type": "uint256"
        }
      ],
      "stateMutability": "view",
      "type": "function"
    },
    {
      "inputs": [
        {
          "internalType": "address",
          "name": "to",
          "type": "address"
        },
        {
          "internalType": "uint256",
          "name": "amount",
          "type": "uint256"
        }
      ],
      "name": "transfer",
      "outputs": [
        {
          "internalType": "bool",
          "name": "",
          "type": "bool"
        }
      ],
      "stateMutability": "nonpayable",
      "type": "function"
    },
    {
      "inputs": [
        {
          "internalType": "address[]",
          "name": "_recipients",
          "type": "address[]"
        },
        {
          "internalType": "uint256[]",
          "name": "_amounts",
          "type": "uint256[]"
        }
      ],
      "name": "transferBatch",
      "outputs": [],
      "stateMutability": "nonpayable",
      "type": "function"
    },
    {
      "inputs": [
        {
          "internalType": "address",
          "name": "from",
          "type": "address"
        },
        {
          "internalType": "address",
          "name": "to",
          "type": "address"
        },
        {
          "internalType": "uint256",
          "name": "amount",
          "type": "uint256"
        }
      ],
      "name": "transferFrom",
      "outputs": [
        {
          "internalType": "bool",
          "name": "",
          "type": "bool"
        }
      ],
      "stateMutability": "nonpayable",
      "type": "function"
    },
    {
      "inputs": [
        {
          "internalType": "address",
          "name": "newOwner",
          "type": "address"
        }
      ],
      "name": "transferOwnership",
      "outputs": [],
      "stateMutability": "nonpayable",
      "type": "function"
    }
  ],
  "bytecode": "0x60806040523480156200001157600080fd5b506040518060400160405280600781526020017f4c41425241444f000000000000000000000000000000000000000000000000008152506040518060400160405280600481526020017f4c42524400000000000000000000000000000000000000000000000000000000815250816003908051906020019062000096929190620001a6565b508060049080519060200190620000af929190620001a6565b505050620000d2620000c6620000d860201b60201c565b620000e060201b60201c565b620002bb565b600033905090565b6000600560009054906101000a900473ffffffffffffffffffffffffffffffffffffffff16905081600560006101000a81548173ffffffffffffffffffffffffffffffffffffffff021916908373ffffffffffffffffffffffffffffffffffffffff1602179055508173ffffffffffffffffffffffffffffffffffffffff168173ffffffffffffffffffffffffffffffffffffffff167f8be0079c531659141344cd1fd0a4f28419497f9722a3daafe3b4186f6b6457e060405160405180910390a35050565b828054620001b49062000256565b90600052602060002090601f016020900481019282620001d8576000855562000224565b82601f10620001f357805160ff191683800117855562000224565b8280016001018555821562000224579182015b828111156200022357825182559160200191906001019062000206565b5b50905062000233919062000237565b5090565b5b808211156200025257600081600090555060010162000238565b5090565b600060028204905060018216806200026f57607f821691505b602082108114156200028657620002856200028c565b5b50919050565b7f4e487b7100000000000000000000000000000000000000000000000000000000600052602260045260246000fd5b61242b80620002cb6000396000f3fe608060405234801561001057600080fd5b50600436106101165760003560e01c806370a08231116100a257806395d89b411161007157806395d89b41146102cd578063a457c2d7146102eb578063a9059cbb1461031b578063dd62ed3e1461034b578063f2fde38b1461037b57610116565b806370a0823114610259578063715018a61461028957806379cc6790146102935780638da5cb5b146102af57610116565b8063313ce567116100e9578063313ce567146101b757806339509351146101d55780633b3e672f1461020557806340c10f191461022157806342966c681461023d57610116565b806306fdde031461011b578063095ea7b31461013957806318160ddd1461016957806323b872dd14610187575b600080fd5b610123610397565b6040516101309190611a54565b60405180910390f35b610153600480360381019061014e9190611642565b610429565b6040516101609190611a39565b60405180910390f35b61017161044c565b60405161017e9190611c56565b60405180910390f35b6101a1600480360381019061019c91906115f3565b610456565b6040516101ae9190611a39565b60405180910390f35b6101bf610485565b6040516101cc9190611c71565b60405180910390f35b6101ef60048036038101906101ea9190611642565b61048e565b6040516101fc9190611a39565b60405180910390f35b61021f600480360381019061021a919061167e565b6104c5565b005b61023b60048036038101906102369190611642565b6107b7565b005b61025760048036038101906102529190611713565b6107cd565b005b610273600480360381019061026e919061158e565b6107e1565b6040516102809190611c56565b60405180910390f35b610291610829565b005b6102ad60048036038101906102a89190611642565b61083d565b005b6102b761085d565b6040516102c491906119be565b60405180910390f35b6102d5610887565b6040516102e29190611a54565b60405180910390f35b61030560048036038101906103009190611642565b610919565b6040516103129190611a39565b60405180910390f35b61033560048036038101906103309190611642565b610990565b6040516103429190611a39565b60405180910390f35b610365600480360381019061036091906115b7565b6109b3565b6040516103729190611c56565b60405180910390f35b6103956004803603810190610390919061158e565b610a3a565b005b6060600380546103a690611e37565b80601f01602080910402602001604051908101604052809291908181526020018280546103d290611e37565b801561041f5780601f106103f45761010080835404028352916020019161041f565b820191906000526020600020905b81548152906001019060200180831161040257829003601f168201915b5050505050905090565b600080610434610abe565b9050610441818585610ac6565b600191505092915050565b6000600254905090565b600080610461610abe565b905061046e858285610c91565b610479858585610d1d565b60019150509392505050565b60006012905090565b600080610499610abe565b90506104ba8185856104ab85896109b3565b6104b59190611d25565b610ac6565b600191505092915050565b8051825114610509576040517f08c379a000000000000000000000000000000000000000000000000000000000815260040161050090611a76565b60405180910390fd5b6000805b83518110156105775782818151811061054f577f4e487b7100000000000000000000000000000000000000000000000000000000600052603260045260246000fd5b6020026020010151826105629190611d25565b9150808061056f90611e9a565b91505061050d565b503073ffffffffffffffffffffffffffffffffffffffff166323b872dd3330846040518463ffffffff1660e01b81526004016105b5939291906119d9565b602060405180830381600087803b1580156105cf57600080fd5b505af11580156105e3573d6000803e3d6000fd5b505050506040513d601f19601f8201168201806040525081019061060791906116ea565b610646576040517f08c379a000000000000000000000000000000000000000000000000000000000815260040161063d90611bf6565b60405180910390fd5b60005b83518110156107b1573073ffffffffffffffffffffffffffffffffffffffff1663a9059cbb8583815181106106a7577f4e487b7100000000000000000000000000000000000000000000000000000000600052603260045260246000fd5b60200260200101518584815181106106e8577f4e487b7100000000000000000000000000000000000000000000000000000000600052603260045260246000fd5b60200260200101516040518363ffffffff1660e01b815260040161070d929190611a10565b602060405180830381600087803b15801561072757600080fd5b505af115801561073b573d6000803e3d6000fd5b505050506040513d601f19601f8201168201806040525081019061075f91906116ea565b61079e576040517f08c379a000000000000000000000000000000000000000000000000000000000815260040161079590611b76565b60405180910390fd5b80806107a990611e9a565b915050610649565b50505050565b6107bf610f9e565b6107c9828261101c565b5050565b6107de6107d8610abe565b8261117c565b50565b60008060008373ffffffffffffffffffffffffffffffffffffffff1673ffffffffffffffffffffffffffffffffffffffff168152602001908152602001600020549050919050565b610831610f9e565b61083b6000611353565b565b61084f82610849610abe565b83610c91565b610859828261117c565b5050565b6000600560009054906101000a900473ffffffffffffffffffffffffffffffffffffffff16905090565b60606004805461089690611e37565b80601f01602080910402602001604051908101604052809291908181526020018280546108c290611e37565b801561090f5780601f106108e45761010080835404028352916020019161090f565b820191906000526020600020905b8154815290600101906020018083116108f257829003601f168201915b5050505050905090565b600080610924610abe565b9050600061093282866109b3565b905083811015610977576040517f08c379a000000000000000000000000000000000000000000000000000000000815260040161096e90611c16565b60405180910390fd5b6109848286868403610ac6565b60019250505092915050565b60008061099b610abe565b90506109a8818585610d1d565b600191505092915050565b6000600160008473ffffffffffffffffffffffffffffffffffffffff1673ffffffffffffffffffffffffffffffffffffffff16815260200190815260200160002060008373ffffffffffffffffffffffffffffffffffffffff1673ffffffffffffffffffffffffffffffffffffffff16815260200190815260200160002054905092915050565b610a42610f9e565b600073ffffffffffffffffffffffffffffffffffffffff168173ffffffffffffffffffffffffffffffffffffffff161415610ab2576040517f08c379a0000000000000000000000000000000000000000000000000000000008152600401610aa990611ad6565b60405180910390fd5b610abb81611353565b50565b600033905090565b600073ffffffffffffffffffffffffffffffffffffffff168373ffffffffffffffffffffffffffffffffffffffff161415610b36576040517f08c379a0000000000000000000000000000000000000000000000000000000008152600401610b2d90611bd6565b60405180910390fd5b600073ffffffffffffffffffffffffffffffffffffffff168273ffffffffffffffffffffffffffffffffffffffff161415610ba6576040517f08c379a0000000000000000000000000000000000000000000000000000000008152600401610b9d90611af6565b60405180910390fd5b80600160008573ffffffffffffffffffffffffffffffffffffffff1673ffffffffffffffffffffffffffffffffffffffff16815260200190815260200160002060008473ffffffffffffffffffffffffffffffffffffffff1673ffffffffffffffffffffffffffffffffffffffff168152602001908152602001600020819055508173ffffffffffffffffffffffffffffffffffffffff168373ffffffffffffffffffffffffffffffffffffffff167f8c5be1e5ebec7d5bd14f71427d1e84f3dd0314c0f7b2291e5b200ac8c7c3b92583604051610c849190611c56565b60405180910390a3505050565b6000610c9d84846109b3565b90507fffffffffffffffffffffffffffffffffffffffffffffffffffffffffffffffff8114610d175781811015610d09576040517f08c379a0000000000000000000000000000000000000000000000000000000008152600401610d0090611b16565b60405180910390fd5b610d168484848403610ac6565b5b50505050565b600073ffffffffffffffffffffffffffffffffffffffff168373ffffffffffffffffffffffffffffffffffffffff161415610d8d576040517f08c379a0000000000000000000000000000000000000000000000000000000008152600401610d8490611bb6565b60405180910390fd5b600073ffffffffffffffffffffffffffffffffffffffff168273ffffffffffffffffffffffffffffffffffffffff161415610dfd576040517f08c379a0000000000000000000000000000000000000000000000000000000008152600401610df490611a96565b60405180910390fd5b610e08838383611419565b60008060008573ffffffffffffffffffffffffffffffffffffffff1673ffffffffffffffffffffffffffffffffffffffff16815260200190815260200160002054905081811015610e8e576040517f08c379a0000000000000000000000000000000000000000000000000000000008152600401610e8590611b36565b60405180910390fd5b8181036000808673ffffffffffffffffffffffffffffffffffffffff1673ffffffffffffffffffffffffffffffffffffffff16815260200190815260200160002081905550816000808573ffffffffffffffffffffffffffffffffffffffff1673ffffffffffffffffffffffffffffffffffffffff1681526020019081526020016000206000828254610f219190611d25565b925050819055508273ffffffffffffffffffffffffffffffffffffffff168473ffffffffffffffffffffffffffffffffffffffff167fddf252ad1be2c89b69c2b068fc378daa952ba7f163c4a11628f55a4df523b3ef84604051610f859190611c56565b60405180910390a3610f9884848461141e565b50505050565b610fa6610abe565b73ffffffffffffffffffffffffffffffffffffffff16610fc461085d565b73ffffffffffffffffffffffffffffffffffffffff161461101a576040517f08c379a000000000000000000000000000000000000000000000000000000000815260040161101190611b56565b60405180910390fd5b565b600073ffffffffffffffffffffffffffffffffffffffff168273ffffffffffffffffffffffffffffffffffffffff16141561108c576040517f08c379a000000000000000000000000000000000000000000000000000000000815260040161108390611c36565b60405180910390fd5b61109860008383611419565b80600260008282546110aa9190611d25565b92505081905550806000808473ffffffffffffffffffffffffffffffffffffffff1673ffffffffffffffffffffffffffffffffffffffff16815260200190815260200160002060008282546110ff9190611d25565b925050819055508173ffffffffffffffffffffffffffffffffffffffff16600073ffffffffffffffffffffffffffffffffffffffff167fddf252ad1be2c89b69c2b068fc378daa952ba7f163c4a11628f55a4df523b3ef836040516111649190611c56565b60405180910390a36111786000838361141e565b5050565b600073ffffffffffffffffffffffffffffffffffffffff168273ffffffffffffffffffffffffffffffffffffffff1614156111ec576040517f08c379a00000000000000000000000000000000000000000000000000000000081526004016111e390611b96565b60405180910390fd5b6111f882600083611419565b60008060008473ffffffffffffffffffffffffffffffffffffffff1673ffffffffffffffffffffffffffffffffffffffff1681526020019081526020016000205490508181101561127e576040517f08c379a000000000000000000000000000000000000000000000000000000000815260040161127590611ab6565b60405180910390fd5b8181036000808573ffffffffffffffffffffffffffffffffffffffff1673ffffffffffffffffffffffffffffffffffffffff1681526020019081526020016000208190555081600260008282546112d59190611d7b565b92505081905550600073ffffffffffffffffffffffffffffffffffffffff168373ffffffffffffffffffffffffffffffffffffffff167fddf252ad1be2c89b69c2b068fc378daa952ba7f163c4a11628f55a4df523b3ef8460405161133a9190611c56565b60405180910390a361134e8360008461141e565b505050565b6000600560009054906101000a900473ffffffffffffffffffffffffffffffffffffffff16905081600560006101000a81548173ffffffffffffffffffffffffffffffffffffffff021916908373ffffffffffffffffffffffffffffffffffffffff1602179055508173ffffffffffffffffffffffffffffffffffffffff168173ffffffffffffffffffffffffffffffffffffffff167f8be0079c531659141344cd1fd0a4f28419497f9722a3daafe3b4186f6b6457e060405160405180910390a35050565b505050565b505050565b600061143661143184611cb1565b611c8c565b9050808382526020820190508285602086028201111561145557600080fd5b60005b85811015611485578161146b88826114fb565b845260208401935060208301925050600181019050611458565b5050509392505050565b60006114a261149d84611cdd565b611c8c565b905080838252602082019050828560208602820111156114c157600080fd5b60005b858110156114f157816114d78882611579565b8452602084019350602083019250506001810190506114c4565b5050509392505050565b60008135905061150a816123b0565b92915050565b600082601f83011261152157600080fd5b8135611531848260208601611423565b91505092915050565b600082601f83011261154b57600080fd5b813561155b84826020860161148f565b91505092915050565b600081519050611573816123c7565b92915050565b600081359050611588816123de565b92915050565b6000602082840312156115a057600080fd5b60006115ae848285016114fb565b91505092915050565b600080604083850312156115ca57600080fd5b60006115d8858286016114fb565b92505060206115e9858286016114fb565b9150509250929050565b60008060006060848603121561160857600080fd5b6000611616868287016114fb565b9350506020611627868287016114fb565b925050604061163886828701611579565b9150509250925092565b6000806040838503121561165557600080fd5b6000611663858286016114fb565b925050602061167485828601611579565b9150509250929050565b6000806040838503121561169157600080fd5b600083013567ffffffffffffffff8111156116ab57600080fd5b6116b785828601611510565b925050602083013567ffffffffffffffff8111156116d457600080fd5b6116e08582860161153a565b9150509250929050565b6000602082840312156116fc57600080fd5b600061170a84828501611564565b91505092915050565b60006020828403121561172557600080fd5b600061173384828501611579565b91505092915050565b61174581611daf565b82525050565b61175481611dc1565b82525050565b600061176582611d09565b61176f8185611d14565b935061177f818560208601611e04565b61178881611f70565b840191505092915050565b60006117a0602c83611d14565b91506117ab82611f81565b604082019050919050565b60006117c3602383611d14565b91506117ce82611fd0565b604082019050919050565b60006117e6602283611d14565b91506117f18261201f565b604082019050919050565b6000611809602683611d14565b91506118148261206e565b604082019050919050565b600061182c602283611d14565b9150611837826120bd565b604082019050919050565b600061184f601d83611d14565b915061185a8261210c565b602082019050919050565b6000611872602683611d14565b915061187d82612135565b604082019050919050565b6000611895602083611d14565b91506118a082612184565b602082019050919050565b60006118b8603083611d14565b91506118c3826121ad565b604082019050919050565b60006118db602183611d14565b91506118e6826121fc565b604082019050919050565b60006118fe602583611d14565b91506119098261224b565b604082019050919050565b6000611921602483611d14565b915061192c8261229a565b604082019050919050565b6000611944602d83611d14565b915061194f826122e9565b604082019050919050565b6000611967602583611d14565b915061197282612338565b604082019050919050565b600061198a601f83611d14565b915061199582612387565b602082019050919050565b6119a981611ded565b82525050565b6119b881611df7565b82525050565b60006020820190506119d3600083018461173c565b92915050565b60006060820190506119ee600083018661173c565b6119fb602083018561173c565b611a0860408301846119a0565b949350505050565b6000604082019050611a25600083018561173c565b611a3260208301846119a0565b9392505050565b6000602082019050611a4e600083018461174b565b92915050565b60006020820190508181036000830152611a6e818461175a565b905092915050565b60006020820190508181036000830152611a8f81611793565b9050919050565b60006020820190508181036000830152611aaf816117b6565b9050919050565b60006020820190508181036000830152611acf816117d9565b9050919050565b60006020820190508181036000830152611aef816117fc565b9050919050565b60006020820190508181036000830152611b0f8161181f565b9050919050565b60006020820190508181036000830152611b2f81611842565b9050919050565b60006020820190508181036000830152611b4f81611865565b9050919050565b60006020820190508181036000830152611b6f81611888565b9050919050565b60006020820190508181036000830152611b8f816118ab565b9050919050565b60006020820190508181036000830152611baf816118ce565b9050919050565b60006020820190508181036000830152611bcf816118f1565b9050919050565b60006020820190508181036000830152611bef81611914565b9050919050565b60006020820190508181036000830152611c0f81611937565b9050919050565b60006020820190508181036000830152611c2f8161195a565b9050919050565b60006020820190508181036000830152611c4f8161197d565b9050919050565b6000602082019050611c6b60008301846119a0565b92915050565b6000602082019050611c8660008301846119af565b92915050565b6000611c96611ca7565b9050611ca28282611e69565b919050565b6000604051905090565b600067ffffffffffffffff821115611ccc57611ccb611f41565b5b602082029050602081019050919050565b600067ffffffffffffffff821115611cf857611cf7611f41565b5b602082029050602081019050919050565b600081519050919050565b600082825260208201905092915050565b6000611d3082611ded565b9150611d3b83611ded565b9250827fffffffffffffffffffffffffffffffffffffffffffffffffffffffffffffffff03821115611d7057611d6f611ee3565b5b828201905092915050565b6000611d8682611ded565b9150611d9183611ded565b925082821015611da457611da3611ee3565b5b828203905092915050565b6000611dba82611dcd565b9050919050565b60008115159050919050565b600073ffffffffffffffffffffffffffffffffffffffff82169050919050565b6000819050919050565b600060ff82169050919050565b60005b83811015611e22578082015181840152602081019050611e07565b83811115611e31576000848401525b50505050565b60006002820490506001821680611e4f57607f821691505b60208210811415611e6357611e62611f12565b5b50919050565b611e7282611f70565b810181811067ffffffffffffffff82111715611e9157611e90611f41565b5b80604052505050565b6000611ea582611ded565b91507fffffffffffffffffffffffffffffffffffffffffffffffffffffffffffffffff821415611ed857611ed7611ee3565b5b600182019050919050565b7f4e487b7100000000000000000000000000000000000000000000000000000000600052601160045260246000fd5b7f4e487b7100000000000000000000000000000000000000000000000000000000600052602260045260246000fd5b7f4e487b7100000000000000000000000000000000000000000000000000000000600052604160045260246000fd5b6000601f19601f8301169050919050565b7f4c4252443a205f726563697069656e747320616e64205f616d6f756e7473206d60008201527f75737420626520657175616c0000000000000000000000000000000000000000602082015250565b7f45524332303a207472616e7366657220746f20746865207a65726f206164647260008201527f6573730000000000000000000000000000000000000000000000000000000000602082015250565b7f45524332303a206275726e20616d6f756e7420657863656564732062616c616e60008201527f6365000000000000000000000000000000000000000000000000000000000000602082015250565b7f4f776e61626c653a206e6577206f776e657220697320746865207a65726f206160008201527f6464726573730000000000000000000000000000000000000000000000000000602082015250565b7f45524332303a20617070726f766520746f20746865207a65726f20616464726560008201527f7373000000000000000000000000000000000000000000000000000000000000602082015250565b7f45524332303a20696e73756666696369656e7420616c6c6f77616e6365000000600082015250565b7f45524332303a207472616e7366657220616d6f756e742065786365656473206260008201527f616c616e63650000000000000000000000000000000000000000000000000000602082015250565b7f4f776e61626c653a2063616c6c6572206973206e6f7420746865206f776e6572600082015250565b7f4c4252443a207472616e736665722066726f6d20636f6e747261637420746f2060008201527f726563697069656e74206661696c656400000000000000000000000000000000602082015250565b7f45524332303a206275726e2066726f6d20746865207a65726f2061646472657360008201527f7300000000000000000000000000000000000000000000000000000000000000602082015250565b7f45524332303a207472616e736665722066726f6d20746865207a65726f20616460008201527f6472657373000000000000000000000000000000000000000000000000000000602082015250565b7f45524332303a20617070726f76652066726f6d20746865207a65726f2061646460008201527f7265737300000000000000000000000000000000000000000000000000000000602082015250565b7f4c4252443a207472616e736665722066726f6d2073656e64657220746f20636f60008201527f6e7472616374206661696c656400000000000000000000000000000000000000602082015250565b7f45524332303a2064656372656173656420616c6c6f77616e63652062656c6f7760008201527f207a65726f000000000000000000000000000000000000000000000000000000602082015250565b7f45524332303a206d696e7420746f20746865207a65726f206164647265737300600082015250565b6123b981611daf565b81146123c457600080fd5b50565b6123d081611dc1565b81146123db57600080fd5b50565b6123e781611ded565b81146123f257600080fd5b5056fea2646970667358221220c400390672ec979d4e51ee6c2f166872925eea5c82cca4bbad5b0acd0d400e8e64736f6c63430008010033",
  "linkReferences": {},
  "deployedLinkReferences": {}
}