{
  "_format": "hh-sol-artifact-1",
  "contractName": "LabradoToken",
  "sourceName": "contracts/LabradoToken.sol",
  "abi": [
    {
      "inputs": [],
      "stateMutability": "nonpayable",
      "type": "constructor"
    },
    {
      "anonymous": false,
      "inputs": [
        {
          "indexed": true,
          "internalType": "address",
          "name": "owner",
          "type": "address"
        },
        {
          "indexed": true,
          "internalType": "address",
          "name": "spender",
          "type": "address"
        },
        {
          "indexed": false,
          "internalType": "uint256",
          "name": "value",
          "type": "uint256"
        }
      ],
      "name": "Approval",
      "type": "event"
    },
    {
      "anonymous": false,
      "inputs": [
        {
          "indexed": true,
          "internalType": "address",
          "name": "previousOwner",
          "type": "address"
        },
        {
          "indexed": true,
          "internalType": "address",
          "name": "newOwner",
          "type": "address"
        }
      ],
      "name": "OwnershipTransferred",
      "type": "event"
    },
    {
      "anonymous": false,
      "inputs": [
        {
          "indexed": true,
          "internalType": "address",
          "name": "from",
          "type": "address"
        },
        {
          "indexed": true,
          "internalType": "address",
          "name": "to",
          "type": "address"
        },
        {
          "indexed": false,
          "internalType": "uint256",
          "name": "value",
          "type": "uint256"
        }
      ],
      "name": "Transfer",
      "type": "event"
    },
    {
      "inputs": [
        {
          "internalType": "address",
          "name": "owner",
          "type": "address"
        },
        {
          "internalType": "address",
          "name": "spender",
          "type": "address"
        }
      ],
      "name": "allowance",
      "outputs": [
        {
          "internalType": "uint256",
          "name": "",
          "type": "uint256"
        }
      ],
      "stateMutability": "view",
      "type": "function"
    },
    {
      "inputs": [
        {
          "internalType": "address",
          "name": "spender",
          "type": "address"
        },
        {
          "internalType": "uint256",
          "name": "amount",
          "type": "uint256"
        }
      ],
      "name": "approve",
      "outputs": [
        {
          "internalType": "bool",
          "name": "",
          "type": "bool"
        }
      ],
      "stateMutability": "nonpayable",
      "type": "function"
    },
    {
      "inputs": [
        {
          "internalType": "address",
          "name": "account",
          "type": "address"
        }
      ],
      "name": "balanceOf",
      "outputs": [
        {
          "internalType": "uint256",
          "name": "",
          "type": "uint256"
        }
      ],
      "stateMutability": "view",
      "type": "function"
    },
    {
      "inputs": [
        {
          "internalType": "uint256",
          "name": "amount",
          "type": "uint256"
        }
      ],
      "name": "burn",
      "outputs": [],
      "stateMutability": "nonpayable",
      "type": "function"
    },
    {
      "inputs": [
        {
          "internalType": "address",
          "name": "account",
          "type": "address"
        },
        {
          "internalType": "uint256",
          "name": "amount",
          "type": "uint256"
        }
      ],
      "name": "burnFrom",
      "outputs": [],
      "stateMutability": "nonpayable",
      "type": "function"
    },
    {
      "inputs": [],
      "name": "decimals",
      "outputs": [
        {
          "internalType": "uint8",
          "name": "",
          "type": "uint8"
        }
      ],
      "stateMutability": "view",
      "type": "function"
    },
    {
      "inputs": [
        {
          "internalType": "address",
          "name": "spender",
          "type": "address"
        },
        {
          "internalType": "uint256",
          "name": "subtractedValue",
          "type": "uint256"
        }
      ],
      "name": "decreaseAllowance",
      "outputs": [
        {
          "internalType": "bool",
          "name": "",
          "type": "bool"
        }
      ],
      "stateMutability": "nonpayable",
      "type": "function"
    },
    {
      "inputs": [
        {
          "internalType": "address",
          "name": "spender",
          "type": "address"
        },
        {
          "internalType": "uint256",
          "name": "addedValue",
          "type": "uint256"
        }
      ],
      "name": "increaseAllowance",
      "outputs": [
        {
          "internalType": "bool",
          "name": "",
          "type": "bool"
        }
      ],
      "stateMutability": "nonpayable",
      "type": "function"
    },
    {
      "inputs": [
        {
          "internalType": "address",
          "name": "_to",
          "type": "address"
        },
        {
          "internalType": "uint256",
          "name": "_amount",
          "type": "uint256"
        }
      ],
      "name": "mint",
      "outputs": [],
      "stateMutability": "nonpayable",
      "type": "function"
    },
    {
      "inputs": [],
      "name": "name",
      "outputs": [
        {
          "internalType": "string",
          "name": "",
          "type": "string"
        }
      ],
      "stateMutability": "view",
      "type": "function"
    },
    {
      "inputs": [],
      "name": "owner",
      "outputs": [
        {
          "internalType": "address",
          "name": "",
          "type": "address"
        }
      ],
      "stateMutability": "view",
      "type": "function"
    },
    {
      "inputs": [],
      "name": "renounceOwnership",
      "outputs": [],
      "stateMutability": "nonpayable",
      "type": "function"
    },
    {
      "inputs": [],
      "name": "symbol",
      "outputs": [
        {
          "internalType": "string",
          "name": "",
          "type": "string"
        }
      ],
      "stateMutability": "view",
      "type": "function"
    },
    {
      "inputs": [],
      "name": "totalSupply",
      "outputs": [
        {
          "internalType": "uint256",
          "name": "",
          "type": "uint256"
        }
      ],
      "stateMutability": "view",
      "type": "function"
    },
    {
      "inputs": [
        {
          "internalType": "address",
          "name": "to",
          "type": "address"
        },
        {
          "internalType": "uint256",
          "name": "amount",
          "type": "uint256"
        }
      ],
      "name": "transfer",
      "outputs": [
        {
          "internalType": "bool",
          "name": "",
          "type": "bool"
        }
      ],
      "stateMutability": "nonpayable",
      "type": "function"
    },
    {
      "inputs": [
        {
          "internalType": "address[]",
          "name": "_recipients",
          "type": "address[]"
        },
        {
          "internalType": "uint256[]",
          "name": "_amounts",
          "type": "uint256[]"
        }
      ],
      "name": "transferBatch",
      "outputs": [],
      "stateMutability": "nonpayable",
      "type": "function"
    },
    {
      "inputs": [
        {
          "internalType": "address",
          "name": "from",
          "type": "address"
        },
        {
          "internalType": "address",
          "name": "to",
          "type": "address"
        },
        {
          "internalType": "uint256",
          "name": "amount",
          "type": "uint256"
        }
      ],
      "name": "transferFrom",
      "outputs": [
        {
          "internalType": "bool",
          "name": "",
          "type": "bool"
        }
      ],
      "stateMutability": "nonpayable",
      "type": "function"
    },
    {
      "inputs": [
        {
          "internalType": "address",
          "name": "newOwner",
          "type": "address"
        }
      ],
      "name": "transferOwnership",
      "outputs": [],
      "stateMutability": "nonpayable",
      "type": "function"
    }
  ],
  "bytecode": "0x60806040523480156200001157600080fd5b506040518060400160405280600781526020017f4c41425241444f000000000000000000000000000000000000000000000000008152506040518060400160405280600481526020017f4c42524400000000000000000000000000000000000000000000000000000000815250816003908051906020019062000096929190620001a6565b508060049080519060200190620000af929190620001a6565b505050620000d2620000c6620000d860201b60201c565b620000e060201b60201c565b620002bb565b600033905090565b6000600560009054906101000a900473ffffffffffffffffffffffffffffffffffffffff16905081600560006101000a81548173ffffffffffffffffffffffffffffffffffffffff021916908373ffffffffffffffffffffffffffffffffffffffff1602179055508173ffffffffffffffffffffffffffffffffffffffff168173ffffffffffffffffffffffffffffffffffffffff167f8be0079c531659141344cd1fd0a4f28419497f9722a3daafe3b4186f6b6457e060405160405180910390a35050565b828054620001b49062000256565b90600052602060002090601f016020900481019282620001d8576000855562000224565b82601f10620001f357805160ff191683800117855562000224565b8280016001018555821562000224579182015b828111156200022357825182559160200191906001019062000206565b5b50905062000233919062000237565b5090565b5b808211156200025257600081600090555060010162000238565b5090565b600060028204905060018216806200026f57607f821691505b602082108114156200028657620002856200028c565b5b50919050565b7f4e487b7100000000000000000000000000000000000000000000000000000000600052602260045260246000fd5b61229b80620002cb6000396000f3fe608060405234801561001057600080fd5b50600436106101165760003560e01c806370a08231116100a257806395d89b411161007157806395d89b41146102cd578063a457c2d7146102eb578063a9059cbb1461031b578063dd62ed3e1461034b578063f2fde38b1461037b57610116565b806370a0823114610259578063715018a61461028957806379cc6790146102935780638da5cb5b146102af57610116565b8063313ce567116100e9578063313ce567146101b757806339509351146101d55780633b3e672f1461020557806340c10f191461022157806342966c681461023d57610116565b806306fdde031461011b578063095ea7b31461013957806318160ddd1461016957806323b872dd14610187575b600080fd5b610123610397565b60405161013091906119a2565b60405180910390f35b610153600480360381019061014e91906115d6565b610429565b6040516101609190611987565b60405180910390f35b61017161044c565b60405161017e9190611b64565b60405180910390f35b6101a1600480360381019061019c9190611587565b610456565b6040516101ae9190611987565b60405180910390f35b6101bf610485565b6040516101cc9190611b7f565b60405180910390f35b6101ef60048036038101906101ea91906115d6565b61048e565b6040516101fc9190611987565b60405180910390f35b61021f600480360381019061021a9190611612565b6104c5565b005b61023b600480360381019061023691906115d6565b61074b565b005b610257600480360381019061025291906116a7565b610761565b005b610273600480360381019061026e9190611522565b610775565b6040516102809190611b64565b60405180910390f35b6102916107bd565b005b6102ad60048036038101906102a891906115d6565b6107d1565b005b6102b76107f1565b6040516102c4919061190c565b60405180910390f35b6102d561081b565b6040516102e291906119a2565b60405180910390f35b610305600480360381019061030091906115d6565b6108ad565b6040516103129190611987565b60405180910390f35b610335600480360381019061033091906115d6565b610924565b6040516103429190611987565b60405180910390f35b6103656004803603810190610360919061154b565b610947565b6040516103729190611b64565b60405180910390f35b61039560048036038101906103909190611522565b6109ce565b005b6060600380546103a690611d45565b80601f01602080910402602001604051908101604052809291908181526020018280546103d290611d45565b801561041f5780601f106103f45761010080835404028352916020019161041f565b820191906000526020600020905b81548152906001019060200180831161040257829003601f168201915b5050505050905090565b600080610434610a52565b9050610441818585610a5a565b600191505092915050565b6000600254905090565b600080610461610a52565b905061046e858285610c25565b610479858585610cb1565b60019150509392505050565b60006012905090565b600080610499610a52565b90506104ba8185856104ab8589610947565b6104b59190611c33565b610a5a565b600191505092915050565b8051825114610509576040517f08c379a0000000000000000000000000000000000000000000000000000000008152600401610500906119c4565b60405180910390fd5b6000805b83518110156105775782818151811061054f577f4e487b7100000000000000000000000000000000000000000000000000000000600052603260045260246000fd5b6020026020010151826105629190611c33565b9150808061056f90611da8565b91505061050d565b503073ffffffffffffffffffffffffffffffffffffffff166323b872dd3330846040518463ffffffff1660e01b81526004016105b593929190611927565b602060405180830381600087803b1580156105cf57600080fd5b505af11580156105e3573d6000803e3d6000fd5b505050506040513d601f19601f82011682018060405250810190610607919061167e565b61061057600080fd5b60005b8351811015610745573073ffffffffffffffffffffffffffffffffffffffff1663a9059cbb858381518110610671577f4e487b7100000000000000000000000000000000000000000000000000000000600052603260045260246000fd5b60200260200101518584815181106106b2577f4e487b7100000000000000000000000000000000000000000000000000000000600052603260045260246000fd5b60200260200101516040518363ffffffff1660e01b81526004016106d792919061195e565b602060405180830381600087803b1580156106f157600080fd5b505af1158015610705573d6000803e3d6000fd5b505050506040513d601f19601f82011682018060405250810190610729919061167e565b61073257600080fd5b808061073d90611da8565b915050610613565b50505050565b610753610f32565b61075d8282610fb0565b5050565b61077261076c610a52565b82611110565b50565b60008060008373ffffffffffffffffffffffffffffffffffffffff1673ffffffffffffffffffffffffffffffffffffffff168152602001908152602001600020549050919050565b6107c5610f32565b6107cf60006112e7565b565b6107e3826107dd610a52565b83610c25565b6107ed8282611110565b5050565b6000600560009054906101000a900473ffffffffffffffffffffffffffffffffffffffff16905090565b60606004805461082a90611d45565b80601f016020809104026020016040519081016040528092919081815260200182805461085690611d45565b80156108a35780601f10610878576101008083540402835291602001916108a3565b820191906000526020600020905b81548152906001019060200180831161088657829003601f168201915b5050505050905090565b6000806108b8610a52565b905060006108c68286610947565b90508381101561090b576040517f08c379a000000000000000000000000000000000000000000000000000000000815260040161090290611b24565b60405180910390fd5b6109188286868403610a5a565b60019250505092915050565b60008061092f610a52565b905061093c818585610cb1565b600191505092915050565b6000600160008473ffffffffffffffffffffffffffffffffffffffff1673ffffffffffffffffffffffffffffffffffffffff16815260200190815260200160002060008373ffffffffffffffffffffffffffffffffffffffff1673ffffffffffffffffffffffffffffffffffffffff16815260200190815260200160002054905092915050565b6109d6610f32565b600073ffffffffffffffffffffffffffffffffffffffff168173ffffffffffffffffffffffffffffffffffffffff161415610a46576040517f08c379a0000000000000000000000000000000000000000000000000000000008152600401610a3d90611a24565b60405180910390fd5b610a4f816112e7565b50565b600033905090565b600073ffffffffffffffffffffffffffffffffffffffff168373ffffffffffffffffffffffffffffffffffffffff161415610aca576040517f08c379a0000000000000000000000000000000000000000000000000000000008152600401610ac190611b04565b60405180910390fd5b600073ffffffffffffffffffffffffffffffffffffffff168273ffffffffffffffffffffffffffffffffffffffff161415610b3a576040517f08c379a0000000000000000000000000000000000000000000000000000000008152600401610b3190611a44565b60405180910390fd5b80600160008573ffffffffffffffffffffffffffffffffffffffff1673ffffffffffffffffffffffffffffffffffffffff16815260200190815260200160002060008473ffffffffffffffffffffffffffffffffffffffff1673ffffffffffffffffffffffffffffffffffffffff168152602001908152602001600020819055508173ffffffffffffffffffffffffffffffffffffffff168373ffffffffffffffffffffffffffffffffffffffff167f8c5be1e5ebec7d5bd14f71427d1e84f3dd0314c0f7b2291e5b200ac8c7c3b92583604051610c189190611b64565b60405180910390a3505050565b6000610c318484610947565b90507fffffffffffffffffffffffffffffffffffffffffffffffffffffffffffffffff8114610cab5781811015610c9d576040517f08c379a0000000000000000000000000000000000000000000000000000000008152600401610c9490611a64565b60405180910390fd5b610caa8484848403610a5a565b5b50505050565b600073ffffffffffffffffffffffffffffffffffffffff168373ffffffffffffffffffffffffffffffffffffffff161415610d21576040517f08c379a0000000000000000000000000000000000000000000000000000000008152600401610d1890611ae4565b60405180910390fd5b600073ffffffffffffffffffffffffffffffffffffffff168273ffffffffffffffffffffffffffffffffffffffff161415610d91576040517f08c379a0000000000000000000000000000000000000000000000000000000008152600401610d88906119e4565b60405180910390fd5b610d9c8383836113ad565b60008060008573ffffffffffffffffffffffffffffffffffffffff1673ffffffffffffffffffffffffffffffffffffffff16815260200190815260200160002054905081811015610e22576040517f08c379a0000000000000000000000000000000000000000000000000000000008152600401610e1990611a84565b60405180910390fd5b8181036000808673ffffffffffffffffffffffffffffffffffffffff1673ffffffffffffffffffffffffffffffffffffffff16815260200190815260200160002081905550816000808573ffffffffffffffffffffffffffffffffffffffff1673ffffffffffffffffffffffffffffffffffffffff1681526020019081526020016000206000828254610eb59190611c33565b925050819055508273ffffffffffffffffffffffffffffffffffffffff168473ffffffffffffffffffffffffffffffffffffffff167fddf252ad1be2c89b69c2b068fc378daa952ba7f163c4a11628f55a4df523b3ef84604051610f199190611b64565b60405180910390a3610f2c8484846113b2565b50505050565b610f3a610a52565b73ffffffffffffffffffffffffffffffffffffffff16610f586107f1565b73ffffffffffffffffffffffffffffffffffffffff1614610fae576040517f08c379a0000000000000000000000000000000000000000000000000000000008152600401610fa590611aa4565b60405180910390fd5b565b600073ffffffffffffffffffffffffffffffffffffffff168273ffffffffffffffffffffffffffffffffffffffff161415611020576040517f08c379a000000000000000000000000000000000000000000000000000000000815260040161101790611b44565b60405180910390fd5b61102c600083836113ad565b806002600082825461103e9190611c33565b92505081905550806000808473ffffffffffffffffffffffffffffffffffffffff1673ffffffffffffffffffffffffffffffffffffffff16815260200190815260200160002060008282546110939190611c33565b925050819055508173ffffffffffffffffffffffffffffffffffffffff16600073ffffffffffffffffffffffffffffffffffffffff167fddf252ad1be2c89b69c2b068fc378daa952ba7f163c4a11628f55a4df523b3ef836040516110f89190611b64565b60405180910390a361110c600083836113b2565b5050565b600073ffffffffffffffffffffffffffffffffffffffff168273ffffffffffffffffffffffffffffffffffffffff161415611180576040517f08c379a000000000000000000000000000000000000000000000000000000000815260040161117790611ac4565b60405180910390fd5b61118c826000836113ad565b60008060008473ffffffffffffffffffffffffffffffffffffffff1673ffffffffffffffffffffffffffffffffffffffff16815260200190815260200160002054905081811015611212576040517f08c379a000000000000000000000000000000000000000000000000000000000815260040161120990611a04565b60405180910390fd5b8181036000808573ffffffffffffffffffffffffffffffffffffffff1673ffffffffffffffffffffffffffffffffffffffff1681526020019081526020016000208190555081600260008282546112699190611c89565b92505081905550600073ffffffffffffffffffffffffffffffffffffffff168373ffffffffffffffffffffffffffffffffffffffff167fddf252ad1be2c89b69c2b068fc378daa952ba7f163c4a11628f55a4df523b3ef846040516112ce9190611b64565b60405180910390a36112e2836000846113b2565b505050565b6000600560009054906101000a900473ffffffffffffffffffffffffffffffffffffffff16905081600560006101000a81548173ffffffffffffffffffffffffffffffffffffffff021916908373ffffffffffffffffffffffffffffffffffffffff1602179055508173ffffffffffffffffffffffffffffffffffffffff168173ffffffffffffffffffffffffffffffffffffffff167f8be0079c531659141344cd1fd0a4f28419497f9722a3daafe3b4186f6b6457e060405160405180910390a35050565b505050565b505050565b60006113ca6113c584611bbf565b611b9a565b905080838252602082019050828560208602820111156113e957600080fd5b60005b8581101561141957816113ff888261148f565b8452602084019350602083019250506001810190506113ec565b5050509392505050565b600061143661143184611beb565b611b9a565b9050808382526020820190508285602086028201111561145557600080fd5b60005b85811015611485578161146b888261150d565b845260208401935060208301925050600181019050611458565b5050509392505050565b60008135905061149e81612220565b92915050565b600082601f8301126114b557600080fd5b81356114c58482602086016113b7565b91505092915050565b600082601f8301126114df57600080fd5b81356114ef848260208601611423565b91505092915050565b60008151905061150781612237565b92915050565b60008135905061151c8161224e565b92915050565b60006020828403121561153457600080fd5b60006115428482850161148f565b91505092915050565b6000806040838503121561155e57600080fd5b600061156c8582860161148f565b925050602061157d8582860161148f565b9150509250929050565b60008060006060848603121561159c57600080fd5b60006115aa8682870161148f565b93505060206115bb8682870161148f565b92505060406115cc8682870161150d565b9150509250925092565b600080604083850312156115e957600080fd5b60006115f78582860161148f565b92505060206116088582860161150d565b9150509250929050565b6000806040838503121561162557600080fd5b600083013567ffffffffffffffff81111561163f57600080fd5b61164b858286016114a4565b925050602083013567ffffffffffffffff81111561166857600080fd5b611674858286016114ce565b9150509250929050565b60006020828403121561169057600080fd5b600061169e848285016114f8565b91505092915050565b6000602082840312156116b957600080fd5b60006116c78482850161150d565b91505092915050565b6116d981611cbd565b82525050565b6116e881611ccf565b82525050565b60006116f982611c17565b6117038185611c22565b9350611713818560208601611d12565b61171c81611e7e565b840191505092915050565b6000611734602c83611c22565b915061173f82611e8f565b604082019050919050565b6000611757602383611c22565b915061176282611ede565b604082019050919050565b600061177a602283611c22565b915061178582611f2d565b604082019050919050565b600061179d602683611c22565b91506117a882611f7c565b604082019050919050565b60006117c0602283611c22565b91506117cb82611fcb565b604082019050919050565b60006117e3601d83611c22565b91506117ee8261201a565b602082019050919050565b6000611806602683611c22565b915061181182612043565b604082019050919050565b6000611829602083611c22565b915061183482612092565b602082019050919050565b600061184c602183611c22565b9150611857826120bb565b604082019050919050565b600061186f602583611c22565b915061187a8261210a565b604082019050919050565b6000611892602483611c22565b915061189d82612159565b604082019050919050565b60006118b5602583611c22565b91506118c0826121a8565b604082019050919050565b60006118d8601f83611c22565b91506118e3826121f7565b602082019050919050565b6118f781611cfb565b82525050565b61190681611d05565b82525050565b600060208201905061192160008301846116d0565b92915050565b600060608201905061193c60008301866116d0565b61194960208301856116d0565b61195660408301846118ee565b949350505050565b600060408201905061197360008301856116d0565b61198060208301846118ee565b9392505050565b600060208201905061199c60008301846116df565b92915050565b600060208201905081810360008301526119bc81846116ee565b905092915050565b600060208201905081810360008301526119dd81611727565b9050919050565b600060208201905081810360008301526119fd8161174a565b9050919050565b60006020820190508181036000830152611a1d8161176d565b9050919050565b60006020820190508181036000830152611a3d81611790565b9050919050565b60006020820190508181036000830152611a5d816117b3565b9050919050565b60006020820190508181036000830152611a7d816117d6565b9050919050565b60006020820190508181036000830152611a9d816117f9565b9050919050565b60006020820190508181036000830152611abd8161181c565b9050919050565b60006020820190508181036000830152611add8161183f565b9050919050565b60006020820190508181036000830152611afd81611862565b9050919050565b60006020820190508181036000830152611b1d81611885565b9050919050565b60006020820190508181036000830152611b3d816118a8565b9050919050565b60006020820190508181036000830152611b5d816118cb565b9050919050565b6000602082019050611b7960008301846118ee565b92915050565b6000602082019050611b9460008301846118fd565b92915050565b6000611ba4611bb5565b9050611bb08282611d77565b919050565b6000604051905090565b600067ffffffffffffffff821115611bda57611bd9611e4f565b5b602082029050602081019050919050565b600067ffffffffffffffff821115611c0657611c05611e4f565b5b602082029050602081019050919050565b600081519050919050565b600082825260208201905092915050565b6000611c3e82611cfb565b9150611c4983611cfb565b9250827fffffffffffffffffffffffffffffffffffffffffffffffffffffffffffffffff03821115611c7e57611c7d611df1565b5b828201905092915050565b6000611c9482611cfb565b9150611c9f83611cfb565b925082821015611cb257611cb1611df1565b5b828203905092915050565b6000611cc882611cdb565b9050919050565b60008115159050919050565b600073ffffffffffffffffffffffffffffffffffffffff82169050919050565b6000819050919050565b600060ff82169050919050565b60005b83811015611d30578082015181840152602081019050611d15565b83811115611d3f576000848401525b50505050565b60006002820490506001821680611d5d57607f821691505b60208210811415611d7157611d70611e20565b5b50919050565b611d8082611e7e565b810181811067ffffffffffffffff82111715611d9f57611d9e611e4f565b5b80604052505050565b6000611db382611cfb565b91507fffffffffffffffffffffffffffffffffffffffffffffffffffffffffffffffff821415611de657611de5611df1565b5b600182019050919050565b7f4e487b7100000000000000000000000000000000000000000000000000000000600052601160045260246000fd5b7f4e487b7100000000000000000000000000000000000000000000000000000000600052602260045260246000fd5b7f4e487b7100000000000000000000000000000000000000000000000000000000600052604160045260246000fd5b6000601f19601f8301169050919050565b7f4c4252443a205f726563697069656e747320616e64205f616d6f756e7473206d60008201527f75737420626520657175616c0000000000000000000000000000000000000000602082015250565b7f45524332303a207472616e7366657220746f20746865207a65726f206164647260008201527f6573730000000000000000000000000000000000000000000000000000000000602082015250565b7f45524332303a206275726e20616d6f756e7420657863656564732062616c616e60008201527f6365000000000000000000000000000000000000000000000000000000000000602082015250565b7f4f776e61626c653a206e6577206f776e657220697320746865207a65726f206160008201527f6464726573730000000000000000000000000000000000000000000000000000602082015250565b7f45524332303a20617070726f766520746f20746865207a65726f20616464726560008201527f7373000000000000000000000000000000000000000000000000000000000000602082015250565b7f45524332303a20696e73756666696369656e7420616c6c6f77616e6365000000600082015250565b7f45524332303a207472616e7366657220616d6f756e742065786365656473206260008201527f616c616e63650000000000000000000000000000000000000000000000000000602082015250565b7f4f776e61626c653a2063616c6c6572206973206e6f7420746865206f776e6572600082015250565b7f45524332303a206275726e2066726f6d20746865207a65726f2061646472657360008201527f7300000000000000000000000000000000000000000000000000000000000000602082015250565b7f45524332303a207472616e736665722066726f6d20746865207a65726f20616460008201527f6472657373000000000000000000000000000000000000000000000000000000602082015250565b7f45524332303a20617070726f76652066726f6d20746865207a65726f2061646460008201527f7265737300000000000000000000000000000000000000000000000000000000602082015250565b7f45524332303a2064656372656173656420616c6c6f77616e63652062656c6f7760008201527f207a65726f000000000000000000000000000000000000000000000000000000602082015250565b7f45524332303a206d696e7420746f20746865207a65726f206164647265737300600082015250565b61222981611cbd565b811461223457600080fd5b50565b61224081611ccf565b811461224b57600080fd5b50565b61225781611cfb565b811461226257600080fd5b5056fea26469706673582212204c9548469f5b6ef4e6bc30d724895f5a35b4d386a9849a4f101b1630bc0a8f9164736f6c63430008010033",
  "linkReferences": {},
  "deployedLinkReferences": {}
}