{
  "_format": "hh-sol-artifact-1",
  "contractName": "LabradoRouter02",
  "sourceName": "contracts/DEX/periphery/LabradoRouter02.sol",
  "abi": [
    {
      "inputs": [
        {
          "internalType": "address",
          "name": "_factory",
          "type": "address"
        },
        {
          "internalType": "address",
          "name": "_WETH",
          "type": "address"
        }
      ],
      "stateMutability": "nonpayable",
      "type": "constructor"
    },
    {
      "inputs": [],
      "name": "WETH",
      "outputs": [
        {
          "internalType": "address",
          "name": "",
          "type": "address"
        }
      ],
      "stateMutability": "view",
      "type": "function"
    },
    {
      "inputs": [
        {
          "internalType": "address",
          "name": "tokenA",
          "type": "address"
        },
        {
          "internalType": "address",
          "name": "tokenB",
          "type": "address"
        },
        {
          "internalType": "uint256",
          "name": "amountADesired",
          "type": "uint256"
        },
        {
          "internalType": "uint256",
          "name": "amountBDesired",
          "type": "uint256"
        },
        {
          "internalType": "uint256",
          "name": "amountAMin",
          "type": "uint256"
        },
        {
          "internalType": "uint256",
          "name": "amountBMin",
          "type": "uint256"
        },
        {
          "internalType": "address",
          "name": "to",
          "type": "address"
        },
        {
          "internalType": "uint256",
          "name": "deadline",
          "type": "uint256"
        }
      ],
      "name": "addLiquidity",
      "outputs": [
        {
          "internalType": "uint256",
          "name": "amountA",
          "type": "uint256"
        },
        {
          "internalType": "uint256",
          "name": "amountB",
          "type": "uint256"
        },
        {
          "internalType": "uint256",
          "name": "liquidity",
          "type": "uint256"
        }
      ],
      "stateMutability": "nonpayable",
      "type": "function"
    },
    {
      "inputs": [
        {
          "internalType": "address",
          "name": "token",
          "type": "address"
        },
        {
          "internalType": "uint256",
          "name": "amountTokenDesired",
          "type": "uint256"
        },
        {
          "internalType": "uint256",
          "name": "amountTokenMin",
          "type": "uint256"
        },
        {
          "internalType": "uint256",
          "name": "amountETHMin",
          "type": "uint256"
        },
        {
          "internalType": "address",
          "name": "to",
          "type": "address"
        },
        {
          "internalType": "uint256",
          "name": "deadline",
          "type": "uint256"
        }
      ],
      "name": "addLiquidityETH",
      "outputs": [
        {
          "internalType": "uint256",
          "name": "amountToken",
          "type": "uint256"
        },
        {
          "internalType": "uint256",
          "name": "amountETH",
          "type": "uint256"
        },
        {
          "internalType": "uint256",
          "name": "liquidity",
          "type": "uint256"
        }
      ],
      "stateMutability": "payable",
      "type": "function"
    },
    {
      "inputs": [],
      "name": "factory",
      "outputs": [
        {
          "internalType": "address",
          "name": "",
          "type": "address"
        }
      ],
      "stateMutability": "view",
      "type": "function"
    },
    {
      "inputs": [
        {
          "internalType": "uint256",
          "name": "amountOut",
          "type": "uint256"
        },
        {
          "internalType": "uint256",
          "name": "reserveIn",
          "type": "uint256"
        },
        {
          "internalType": "uint256",
          "name": "reserveOut",
          "type": "uint256"
        },
        {
          "internalType": "uint256",
          "name": "feeSwap",
          "type": "uint256"
        }
      ],
      "name": "getAmountIn",
      "outputs": [
        {
          "internalType": "uint256",
          "name": "amountIn",
          "type": "uint256"
        }
      ],
      "stateMutability": "pure",
      "type": "function"
    },
    {
      "inputs": [
        {
          "internalType": "uint256",
          "name": "amountIn",
          "type": "uint256"
        },
        {
          "internalType": "uint256",
          "name": "reserveIn",
          "type": "uint256"
        },
        {
          "internalType": "uint256",
          "name": "reserveOut",
          "type": "uint256"
        },
        {
          "internalType": "uint256",
          "name": "feeSwap",
          "type": "uint256"
        }
      ],
      "name": "getAmountOut",
      "outputs": [
        {
          "internalType": "uint256",
          "name": "amountOut",
          "type": "uint256"
        }
      ],
      "stateMutability": "pure",
      "type": "function"
    },
    {
      "inputs": [
        {
          "internalType": "uint256",
          "name": "amountOut",
          "type": "uint256"
        },
        {
          "internalType": "address[]",
          "name": "path",
          "type": "address[]"
        }
      ],
      "name": "getAmountsIn",
      "outputs": [
        {
          "internalType": "uint256[]",
          "name": "amounts",
          "type": "uint256[]"
        }
      ],
      "stateMutability": "view",
      "type": "function"
    },
    {
      "inputs": [
        {
          "internalType": "uint256",
          "name": "amountIn",
          "type": "uint256"
        },
        {
          "internalType": "address[]",
          "name": "path",
          "type": "address[]"
        }
      ],
      "name": "getAmountsOut",
      "outputs": [
        {
          "internalType": "uint256[]",
          "name": "amounts",
          "type": "uint256[]"
        }
      ],
      "stateMutability": "view",
      "type": "function"
    },
    {
      "inputs": [
        {
          "internalType": "address",
          "name": "_user",
          "type": "address"
        }
      ],
      "name": "getUsersNonce",
      "outputs": [
        {
          "internalType": "uint256",
          "name": "",
          "type": "uint256"
        }
      ],
      "stateMutability": "view",
      "type": "function"
    },
    {
      "inputs": [],
      "name": "openAddLiquidity",
      "outputs": [
        {
          "internalType": "bool",
          "name": "",
          "type": "bool"
        }
      ],
      "stateMutability": "view",
      "type": "function"
    },
    {
      "inputs": [],
      "name": "openSwap",
      "outputs": [
        {
          "internalType": "bool",
          "name": "",
          "type": "bool"
        }
      ],
      "stateMutability": "view",
      "type": "function"
    },
    {
      "inputs": [
        {
          "internalType": "uint256",
          "name": "amountA",
          "type": "uint256"
        },
        {
          "internalType": "uint256",
          "name": "reserveA",
          "type": "uint256"
        },
        {
          "internalType": "uint256",
          "name": "reserveB",
          "type": "uint256"
        }
      ],
      "name": "quote",
      "outputs": [
        {
          "internalType": "uint256",
          "name": "amountB",
          "type": "uint256"
        }
      ],
      "stateMutability": "pure",
      "type": "function"
    },
    {
      "inputs": [
        {
          "internalType": "address",
          "name": "tokenA",
          "type": "address"
        },
        {
          "internalType": "address",
          "name": "tokenB",
          "type": "address"
        },
        {
          "internalType": "uint256",
          "name": "liquidity",
          "type": "uint256"
        },
        {
          "internalType": "uint256",
          "name": "amountAMin",
          "type": "uint256"
        },
        {
          "internalType": "uint256",
          "name": "amountBMin",
          "type": "uint256"
        },
        {
          "internalType": "address",
          "name": "to",
          "type": "address"
        },
        {
          "internalType": "uint256",
          "name": "deadline",
          "type": "uint256"
        }
      ],
      "name": "removeLiquidity",
      "outputs": [
        {
          "internalType": "uint256",
          "name": "amountA",
          "type": "uint256"
        },
        {
          "internalType": "uint256",
          "name": "amountB",
          "type": "uint256"
        }
      ],
      "stateMutability": "nonpayable",
      "type": "function"
    },
    {
      "inputs": [
        {
          "internalType": "address",
          "name": "token",
          "type": "address"
        },
        {
          "internalType": "uint256",
          "name": "liquidity",
          "type": "uint256"
        },
        {
          "internalType": "uint256",
          "name": "amountTokenMin",
          "type": "uint256"
        },
        {
          "internalType": "uint256",
          "name": "amountETHMin",
          "type": "uint256"
        },
        {
          "internalType": "address",
          "name": "to",
          "type": "address"
        },
        {
          "internalType": "uint256",
          "name": "deadline",
          "type": "uint256"
        }
      ],
      "name": "removeLiquidityETH",
      "outputs": [
        {
          "internalType": "uint256",
          "name": "amountToken",
          "type": "uint256"
        },
        {
          "internalType": "uint256",
          "name": "amountETH",
          "type": "uint256"
        }
      ],
      "stateMutability": "nonpayable",
      "type": "function"
    },
    {
      "inputs": [
        {
          "internalType": "address",
          "name": "token",
          "type": "address"
        },
        {
          "internalType": "uint256",
          "name": "liquidity",
          "type": "uint256"
        },
        {
          "internalType": "uint256",
          "name": "amountTokenMin",
          "type": "uint256"
        },
        {
          "internalType": "uint256",
          "name": "amountETHMin",
          "type": "uint256"
        },
        {
          "internalType": "address",
          "name": "to",
          "type": "address"
        },
        {
          "internalType": "uint256",
          "name": "deadline",
          "type": "uint256"
        }
      ],
      "name": "removeLiquidityETHSupportingFeeOnTransferTokens",
      "outputs": [
        {
          "internalType": "uint256",
          "name": "amountETH",
          "type": "uint256"
        }
      ],
      "stateMutability": "nonpayable",
      "type": "function"
    },
    {
      "inputs": [
        {
          "internalType": "address",
          "name": "token",
          "type": "address"
        },
        {
          "internalType": "uint256",
          "name": "liquidity",
          "type": "uint256"
        },
        {
          "internalType": "uint256",
          "name": "amountTokenMin",
          "type": "uint256"
        },
        {
          "internalType": "uint256",
          "name": "amountETHMin",
          "type": "uint256"
        },
        {
          "internalType": "address",
          "name": "to",
          "type": "address"
        },
        {
          "internalType": "uint256",
          "name": "deadline",
          "type": "uint256"
        },
        {
          "internalType": "bool",
          "name": "approveMax",
          "type": "bool"
        },
        {
          "internalType": "uint8",
          "name": "v",
          "type": "uint8"
        },
        {
          "internalType": "bytes32",
          "name": "r",
          "type": "bytes32"
        },
        {
          "internalType": "bytes32",
          "name": "s",
          "type": "bytes32"
        }
      ],
      "name": "removeLiquidityETHWithPermit",
      "outputs": [
        {
          "internalType": "uint256",
          "name": "amountToken",
          "type": "uint256"
        },
        {
          "internalType": "uint256",
          "name": "amountETH",
          "type": "uint256"
        }
      ],
      "stateMutability": "nonpayable",
      "type": "function"
    },
    {
      "inputs": [
        {
          "internalType": "address",
          "name": "token",
          "type": "address"
        },
        {
          "internalType": "uint256",
          "name": "liquidity",
          "type": "uint256"
        },
        {
          "internalType": "uint256",
          "name": "amountTokenMin",
          "type": "uint256"
        },
        {
          "internalType": "uint256",
          "name": "amountETHMin",
          "type": "uint256"
        },
        {
          "internalType": "address",
          "name": "to",
          "type": "address"
        },
        {
          "internalType": "uint256",
          "name": "deadline",
          "type": "uint256"
        },
        {
          "internalType": "bool",
          "name": "approveMax",
          "type": "bool"
        },
        {
          "internalType": "uint8",
          "name": "v",
          "type": "uint8"
        },
        {
          "internalType": "bytes32",
          "name": "r",
          "type": "bytes32"
        },
        {
          "internalType": "bytes32",
          "name": "s",
          "type": "bytes32"
        }
      ],
      "name": "removeLiquidityETHWithPermitSupportingFeeOnTransferTokens",
      "outputs": [
        {
          "internalType": "uint256",
          "name": "amountETH",
          "type": "uint256"
        }
      ],
      "stateMutability": "nonpayable",
      "type": "function"
    },
    {
      "inputs": [
        {
          "internalType": "address",
          "name": "tokenA",
          "type": "address"
        },
        {
          "internalType": "address",
          "name": "tokenB",
          "type": "address"
        },
        {
          "internalType": "uint256",
          "name": "liquidity",
          "type": "uint256"
        },
        {
          "internalType": "uint256",
          "name": "amountAMin",
          "type": "uint256"
        },
        {
          "internalType": "uint256",
          "name": "amountBMin",
          "type": "uint256"
        },
        {
          "internalType": "address",
          "name": "to",
          "type": "address"
        },
        {
          "internalType": "uint256",
          "name": "deadline",
          "type": "uint256"
        },
        {
          "internalType": "bool",
          "name": "approveMax",
          "type": "bool"
        },
        {
          "internalType": "uint8",
          "name": "v",
          "type": "uint8"
        },
        {
          "internalType": "bytes32",
          "name": "r",
          "type": "bytes32"
        },
        {
          "internalType": "bytes32",
          "name": "s",
          "type": "bytes32"
        }
      ],
      "name": "removeLiquidityWithPermit",
      "outputs": [
        {
          "internalType": "uint256",
          "name": "amountA",
          "type": "uint256"
        },
        {
          "internalType": "uint256",
          "name": "amountB",
          "type": "uint256"
        }
      ],
      "stateMutability": "nonpayable",
      "type": "function"
    },
    {
      "inputs": [
        {
          "internalType": "address",
          "name": "_newAdmin",
          "type": "address"
        }
      ],
      "name": "setNewAdmin",
      "outputs": [],
      "stateMutability": "nonpayable",
      "type": "function"
    },
    {
      "inputs": [
        {
          "internalType": "address",
          "name": "_signer",
          "type": "address"
        }
      ],
      "name": "setNewSigner",
      "outputs": [],
      "stateMutability": "nonpayable",
      "type": "function"
    },
    {
      "inputs": [
        {
          "internalType": "bool",
          "name": "_status",
          "type": "bool"
        }
      ],
      "name": "setOpenAddLiquidity",
      "outputs": [],
      "stateMutability": "nonpayable",
      "type": "function"
    },
    {
      "inputs": [
        {
          "internalType": "bool",
          "name": "_status",
          "type": "bool"
        }
      ],
      "name": "setOpenSwap",
      "outputs": [],
      "stateMutability": "nonpayable",
      "type": "function"
    },
    {
      "inputs": [
        {
          "internalType": "uint256",
          "name": "amountOut",
          "type": "uint256"
        },
        {
          "internalType": "address[]",
          "name": "path",
          "type": "address[]"
        },
        {
          "internalType": "address",
          "name": "to",
          "type": "address"
        },
        {
          "internalType": "uint256",
          "name": "deadline",
          "type": "uint256"
        },
        {
          "internalType": "bytes",
          "name": "encodeData",
          "type": "bytes"
        }
      ],
      "name": "swapETHForExactTokens",
      "outputs": [
        {
          "internalType": "uint256[]",
          "name": "amounts",
          "type": "uint256[]"
        }
      ],
      "stateMutability": "payable",
      "type": "function"
    },
    {
      "inputs": [
        {
          "internalType": "uint256",
          "name": "amountOutMin",
          "type": "uint256"
        },
        {
          "internalType": "address[]",
          "name": "path",
          "type": "address[]"
        },
        {
          "internalType": "address",
          "name": "to",
          "type": "address"
        },
        {
          "internalType": "uint256",
          "name": "deadline",
          "type": "uint256"
        },
        {
          "internalType": "bytes",
          "name": "encodeData",
          "type": "bytes"
        }
      ],
      "name": "swapExactETHForTokens",
      "outputs": [
        {
          "internalType": "uint256[]",
          "name": "amounts",
          "type": "uint256[]"
        }
      ],
      "stateMutability": "payable",
      "type": "function"
    },
    {
      "inputs": [
        {
          "internalType": "uint256",
          "name": "amountOutMin",
          "type": "uint256"
        },
        {
          "internalType": "address[]",
          "name": "path",
          "type": "address[]"
        },
        {
          "internalType": "address",
          "name": "to",
          "type": "address"
        },
        {
          "internalType": "uint256",
          "name": "deadline",
          "type": "uint256"
        },
        {
          "internalType": "bytes",
          "name": "encodeData",
          "type": "bytes"
        }
      ],
      "name": "swapExactETHForTokensSupportingFeeOnTransferTokens",
      "outputs": [],
      "stateMutability": "payable",
      "type": "function"
    },
    {
      "inputs": [
        {
          "internalType": "uint256",
          "name": "amountIn",
          "type": "uint256"
        },
        {
          "internalType": "uint256",
          "name": "amountOutMin",
          "type": "uint256"
        },
        {
          "internalType": "address[]",
          "name": "path",
          "type": "address[]"
        },
        {
          "internalType": "address",
          "name": "to",
          "type": "address"
        },
        {
          "internalType": "uint256",
          "name": "deadline",
          "type": "uint256"
        },
        {
          "internalType": "bytes",
          "name": "encodeData",
          "type": "bytes"
        }
      ],
      "name": "swapExactTokensForETH",
      "outputs": [
        {
          "internalType": "uint256[]",
          "name": "amounts",
          "type": "uint256[]"
        }
      ],
      "stateMutability": "nonpayable",
      "type": "function"
    },
    {
      "inputs": [
        {
          "internalType": "uint256",
          "name": "amountIn",
          "type": "uint256"
        },
        {
          "internalType": "uint256",
          "name": "amountOutMin",
          "type": "uint256"
        },
        {
          "internalType": "address[]",
          "name": "path",
          "type": "address[]"
        },
        {
          "internalType": "address",
          "name": "to",
          "type": "address"
        },
        {
          "internalType": "uint256",
          "name": "deadline",
          "type": "uint256"
        },
        {
          "internalType": "bytes",
          "name": "encodeData",
          "type": "bytes"
        }
      ],
      "name": "swapExactTokensForETHSupportingFeeOnTransferTokens",
      "outputs": [],
      "stateMutability": "nonpayable",
      "type": "function"
    },
    {
      "inputs": [
        {
          "internalType": "uint256",
          "name": "amountIn",
          "type": "uint256"
        },
        {
          "internalType": "uint256",
          "name": "amountOutMin",
          "type": "uint256"
        },
        {
          "internalType": "address[]",
          "name": "path",
          "type": "address[]"
        },
        {
          "internalType": "address",
          "name": "to",
          "type": "address"
        },
        {
          "internalType": "uint256",
          "name": "deadline",
          "type": "uint256"
        },
        {
          "internalType": "bytes",
          "name": "encodeData",
          "type": "bytes"
        }
      ],
      "name": "swapExactTokensForTokens",
      "outputs": [
        {
          "internalType": "uint256[]",
          "name": "amounts",
          "type": "uint256[]"
        }
      ],
      "stateMutability": "nonpayable",
      "type": "function"
    },
    {
      "inputs": [
        {
          "internalType": "uint256",
          "name": "amountIn",
          "type": "uint256"
        },
        {
          "internalType": "uint256",
          "name": "amountOutMin",
          "type": "uint256"
        },
        {
          "internalType": "address[]",
          "name": "path",
          "type": "address[]"
        },
        {
          "internalType": "address",
          "name": "to",
          "type": "address"
        },
        {
          "internalType": "uint256",
          "name": "deadline",
          "type": "uint256"
        },
        {
          "internalType": "bytes",
          "name": "encodeData",
          "type": "bytes"
        }
      ],
      "name": "swapExactTokensForTokensSupportingFeeOnTransferTokens",
      "outputs": [],
      "stateMutability": "nonpayable",
      "type": "function"
    },
    {
      "inputs": [
        {
          "internalType": "uint256",
          "name": "amountOut",
          "type": "uint256"
        },
        {
          "internalType": "uint256",
          "name": "amountInMax",
          "type": "uint256"
        },
        {
          "internalType": "address[]",
          "name": "path",
          "type": "address[]"
        },
        {
          "internalType": "address",
          "name": "to",
          "type": "address"
        },
        {
          "internalType": "uint256",
          "name": "deadline",
          "type": "uint256"
        },
        {
          "internalType": "bytes",
          "name": "encodeData",
          "type": "bytes"
        }
      ],
      "name": "swapTokensForExactETH",
      "outputs": [
        {
          "internalType": "uint256[]",
          "name": "amounts",
          "type": "uint256[]"
        }
      ],
      "stateMutability": "nonpayable",
      "type": "function"
    },
    {
      "inputs": [
        {
          "internalType": "uint256",
          "name": "amountOut",
          "type": "uint256"
        },
        {
          "internalType": "uint256",
          "name": "amountInMax",
          "type": "uint256"
        },
        {
          "internalType": "address[]",
          "name": "path",
          "type": "address[]"
        },
        {
          "internalType": "address",
          "name": "to",
          "type": "address"
        },
        {
          "internalType": "uint256",
          "name": "deadline",
          "type": "uint256"
        },
        {
          "internalType": "bytes",
          "name": "encodeData",
          "type": "bytes"
        }
      ],
      "name": "swapTokensForExactTokens",
      "outputs": [
        {
          "internalType": "uint256[]",
          "name": "amounts",
          "type": "uint256[]"
        }
      ],
      "stateMutability": "nonpayable",
      "type": "function"
    },
    {
      "stateMutability": "payable",
      "type": "receive"
    }
  ],
  "bytecode": "0x60c06040523480156200001157600080fd5b5060405162005e3738038062005e37833981810160405260408110156200003757600080fd5b5080516020909101516001600160601b0319606092831b8116608052911b1660a052600280546001600160a01b03199081163390811790925560018054909116909117905560805160601c60a05160601c615c8d620001aa600039806101ec528061124a528061128552806115b8528061165f52806116d35280611d2852806123725280612514528061265852806126db528061278a52806129255280612d4d5280612f37528061308c52806131145280613526528061363252806136e8528061387052806139c85280613a505280613cda5280613d305280613d645280613dd85250806113ac52806113e552806117055280611ad85280611bac5280611d065280611f2152806120d9528061241252806129c55280612ac15280612cd25280612cfb5280612d2b5280612fdc5280613146528061336252806139155280613a825280613d0e52806146d352806148c35280614c8a5280614cc05280615382528061544952806154c95250615c8d6000f3fe6080604052600436106101dc5760003560e01c80638af1393711610102578063d06ca61f11610095578063ed16c0b411610064578063ed16c0b414610f2d578063ed3b11ce14611019578063ee323dbc146110f3578063f305d7191461111f57610215565b8063d06ca61f14610cab578063ded9382a14610d60578063e76c597514610dd3578063e8e3370014610ead57610215565b8063af2979eb116100d1578063af2979eb14610afa578063b132b5e114610b4d578063baa2abde14610c39578063c45a015514610c9657610215565b80638af13937146109745780638eec99c814610a60578063ad5c464814610a93578063ad615dec14610ac457610215565b8063323de4ee1161017a5780635b0d5984116101495780635b0d5984146107145780635d14aa42146107875780635e1d693e1461079c5780637a253b581461088857610215565b8063323de4ee1461056b57806335483a061461065757806352707d8c1461069c578063571fd012146106d857610215565b80631f00ca74116101b65780631f00ca74146102e55780632195995c146103ea578063274b96a5146104685780632b5e3aa51461054257610215565b8063023e13211461021a57806302751cec146102465780630f9c5d9e146102b257610215565b3661021557336001600160a01b037f0000000000000000000000000000000000000000000000000000000000000000161461021357fe5b005b600080fd5b34801561022657600080fd5b506102136004803603602081101561023d57600080fd5b50351515611165565b34801561025257600080fd5b50610299600480360360c081101561026957600080fd5b506001600160a01b0381358116916020810135916040820135916060810135916080820135169060a001356111fd565b6040805192835260208301919091528051918290030190f35b3480156102be57600080fd5b50610213600480360360208110156102d557600080fd5b50356001600160a01b0316611317565b3480156102f157600080fd5b5061039a6004803603604081101561030857600080fd5b81359190810190604081016020820135600160201b81111561032957600080fd5b82018360208201111561033b57600080fd5b803590602001918460208302840111600160201b8311171561035c57600080fd5b9190808060200260200160405190810160405280939291908181526020018383602002808284376000920191909152509295506113a5945050505050565b60408051602080825283518183015283519192839290830191858101910280838360005b838110156103d65781810151838201526020016103be565b505050509050019250505060405180910390f35b3480156103f657600080fd5b50610299600480360361016081101561040e57600080fd5b506001600160a01b038135811691602081013582169160408201359160608101359160808201359160a08101359091169060c08101359060e081013515159060ff61010082013516906101208101359061014001356113db565b610213600480360360a081101561047e57600080fd5b81359190810190604081016020820135600160201b81111561049f57600080fd5b8201836020820111156104b157600080fd5b803590602001918460208302840111600160201b831117156104d257600080fd5b919390926001600160a01b03833516926020810135929190606081019060400135600160201b81111561050457600080fd5b82018360208201111561051657600080fd5b803590602001918460018302840111600160201b8311171561053757600080fd5b5090925090506114d5565b34801561054e57600080fd5b506105576119c3565b604080519115158252519081900360200190f35b34801561057757600080fd5b5061039a600480360360c081101561058e57600080fd5b813591602081013591810190606081016040820135600160201b8111156105b457600080fd5b8201836020820111156105c657600080fd5b803590602001918460208302840111600160201b831117156105e757600080fd5b919390926001600160a01b03833516926020810135929190606081019060400135600160201b81111561061957600080fd5b82018360208201111561062b57600080fd5b803590602001918460018302840111600160201b8311171561064c57600080fd5b5090925090506119d3565b34801561066357600080fd5b5061068a6004803603602081101561067a57600080fd5b50356001600160a01b0316611c5b565b60408051918252519081900360200190f35b3480156106a857600080fd5b5061068a600480360360808110156106bf57600080fd5b5080359060208101359060408101359060600135611cd9565b3480156106e457600080fd5b5061068a600480360360808110156106fb57600080fd5b5080359060208101359060408101359060600135611cf0565b34801561072057600080fd5b5061068a600480360361014081101561073857600080fd5b506001600160a01b0381358116916020810135916040820135916060810135916080820135169060a08101359060c081013515159060ff60e08201351690610100810135906101200135611cfe565b34801561079357600080fd5b50610557611e0c565b3480156107a857600080fd5b5061039a600480360360c08110156107bf57600080fd5b813591602081013591810190606081016040820135600160201b8111156107e557600080fd5b8201836020820111156107f757600080fd5b803590602001918460208302840111600160201b8311171561081857600080fd5b919390926001600160a01b03833516926020810135929190606081019060400135600160201b81111561084a57600080fd5b82018360208201111561085c57600080fd5b803590602001918460018302840111600160201b8311171561087d57600080fd5b509092509050611e1c565b34801561089457600080fd5b50610213600480360360c08110156108ab57600080fd5b813591602081013591810190606081016040820135600160201b8111156108d157600080fd5b8201836020820111156108e357600080fd5b803590602001918460208302840111600160201b8311171561090457600080fd5b919390926001600160a01b03833516926020810135929190606081019060400135600160201b81111561093657600080fd5b82018360208201111561094857600080fd5b803590602001918460018302840111600160201b8311171561096957600080fd5b509092509050611fd2565b34801561098057600080fd5b5061039a600480360360c081101561099757600080fd5b813591602081013591810190606081016040820135600160201b8111156109bd57600080fd5b8201836020820111156109cf57600080fd5b803590602001918460208302840111600160201b831117156109f057600080fd5b919390926001600160a01b03833516926020810135929190606081019060400135600160201b811115610a2257600080fd5b820183602082011115610a3457600080fd5b803590602001918460018302840111600160201b83111715610a5557600080fd5b509092509050612268565b348015610a6c57600080fd5b5061021360048036036020811015610a8357600080fd5b50356001600160a01b03166125c8565b348015610a9f57600080fd5b50610aa8612656565b604080516001600160a01b039092168252519081900360200190f35b348015610ad057600080fd5b5061068a60048036036060811015610ae757600080fd5b508035906020810135906040013561267a565b348015610b0657600080fd5b5061068a600480360360c0811015610b1d57600080fd5b506001600160a01b0381358116916020810135916040820135916060810135916080820135169060a0013561268f565b348015610b5957600080fd5b5061039a600480360360c0811015610b7057600080fd5b813591602081013591810190606081016040820135600160201b811115610b9657600080fd5b820183602082011115610ba857600080fd5b803590602001918460208302840111600160201b83111715610bc957600080fd5b919390926001600160a01b03833516926020810135929190606081019060400135600160201b811115610bfb57600080fd5b820183602082011115610c0d57600080fd5b803590602001918460018302840111600160201b83111715610c2e57600080fd5b50909250905061281b565b348015610c4557600080fd5b50610299600480360360e0811015610c5c57600080fd5b506001600160a01b038135811691602081013582169160408201359160608101359160808201359160a08101359091169060c00135612a73565b348015610ca257600080fd5b50610aa8612cd0565b348015610cb757600080fd5b5061039a60048036036040811015610cce57600080fd5b81359190810190604081016020820135600160201b811115610cef57600080fd5b820183602082011115610d0157600080fd5b803590602001918460208302840111600160201b83111715610d2257600080fd5b919080806020026020016040519081016040528093929190818152602001838360200280828437600092019190915250929550612cf4945050505050565b348015610d6c57600080fd5b506102996004803603610140811015610d8457600080fd5b506001600160a01b0381358116916020810135916040820135916060810135916080820135169060a08101359060c081013515159060ff60e08201351690610100810135906101200135612d21565b61039a600480360360a0811015610de957600080fd5b81359190810190604081016020820135600160201b811115610e0a57600080fd5b820183602082011115610e1c57600080fd5b803590602001918460208302840111600160201b83111715610e3d57600080fd5b919390926001600160a01b03833516926020810135929190606081019060400135600160201b811115610e6f57600080fd5b820183602082011115610e8157600080fd5b803590602001918460018302840111600160201b83111715610ea257600080fd5b509092509050612e35565b348015610eb957600080fd5b50610f0f6004803603610100811015610ed157600080fd5b506001600160a01b038135811691602081013582169160408201359160608101359160808201359160a08101359160c0820135169060e0013561328f565b60408051938452602084019290925282820152519081900360600190f35b348015610f3957600080fd5b50610213600480360360c0811015610f5057600080fd5b813591602081013591810190606081016040820135600160201b811115610f7657600080fd5b820183602082011115610f8857600080fd5b803590602001918460208302840111600160201b83111715610fa957600080fd5b919390926001600160a01b03833516926020810135929190606081019060400135600160201b811115610fdb57600080fd5b820183602082011115610fed57600080fd5b803590602001918460018302840111600160201b8311171561100e57600080fd5b50909250905061343b565b61039a600480360360a081101561102f57600080fd5b81359190810190604081016020820135600160201b81111561105057600080fd5b82018360208201111561106257600080fd5b803590602001918460208302840111600160201b8311171561108357600080fd5b919390926001600160a01b03833516926020810135929190606081019060400135600160201b8111156110b557600080fd5b8201836020820111156110c757600080fd5b803590602001918460018302840111600160201b831117156110e857600080fd5b50909250905061376e565b3480156110ff57600080fd5b506102136004803603602081101561111657600080fd5b50351515613b83565b610f0f600480360360c081101561113557600080fd5b506001600160a01b0381358116916020810135916040820135916060810135916080820135169060a00135613c1b565b6001546001600160a01b031633146111c4576040805162461bcd60e51b815260206004820152601a60248201527f4c61627261646f526f7574657230323a20464f5242494444454e000000000000604482015290519081900360640190fd5b60028054911515600160a01b027fffffffffffffffffffffff00ffffffffffffffffffffffffffffffffffffffff909216919091179055565b6000808242811015611244576040805162461bcd60e51b81526020600482015260186024820152600080516020615b15833981519152604482015290519081900360640190fd5b611273897f00000000000000000000000000000000000000000000000000000000000000008a8a8a308a612a73565b9093509150611283898685613f30565b7f00000000000000000000000000000000000000000000000000000000000000006001600160a01b0316632e1a7d4d836040518263ffffffff1660e01b815260040180828152602001915050600060405180830381600087803b1580156112e957600080fd5b505af11580156112fd573d6000803e3d6000fd5b5050505061130b85836140b2565b50965096945050505050565b6001546001600160a01b03163314611376576040805162461bcd60e51b815260206004820152601a60248201527f4c61627261646f526f7574657230323a20464f5242494444454e000000000000604482015290519081900360640190fd5b6002805473ffffffffffffffffffffffffffffffffffffffff19166001600160a01b0392909216919091179055565b60606113d27f000000000000000000000000000000000000000000000000000000000000000084846141aa565b90505b92915050565b600080600061140b7f00000000000000000000000000000000000000000000000000000000000000008f8f614398565b905060008761141a578c61141e565b6000195b6040805163d505accf60e01b815233600482015230602482015260448101839052606481018c905260ff8a16608482015260a4810189905260c4810188905290519192506001600160a01b0384169163d505accf9160e48082019260009290919082900301818387803b15801561149457600080fd5b505af11580156114a8573d6000803e3d6000fd5b505050506114bb8f8f8f8f8f8f8f612a73565b809450819550505050509b509b9950505050505050505050565b8242811015611519576040805162461bcd60e51b81526020600482015260186024820152600080516020615b15833981519152604482015290519081900360640190fd5b600254600160a01b900460ff166115b6576115b660405180606001604052806032815260200161596c603291393489898080602002602001604051908101604052809392919081815260200183836020028082843760009201919091525050604080516020601f8b018190048102820181019092528981528c93509150899089908190840183828082843760009201919091525061441f92505050565b7f00000000000000000000000000000000000000000000000000000000000000006001600160a01b0316878760008181106115ed57fe5b905060200201356001600160a01b03166001600160a01b031614611658576040805162461bcd60e51b815260206004820152601d60248201527f4c61627261646f526f7574657230323a20494e56414c49445f50415448000000604482015290519081900360640190fd5b60003490507f00000000000000000000000000000000000000000000000000000000000000006001600160a01b031663d0e30db0826040518263ffffffff1660e01b81526004016000604051808303818588803b1580156116b857600080fd5b505af11580156116cc573d6000803e3d6000fd5b50505050507f00000000000000000000000000000000000000000000000000000000000000006001600160a01b031663a9059cbb6117637f00000000000000000000000000000000000000000000000000000000000000008b8b600081811061173157fe5b905060200201356001600160a01b03168c8c600181811061174e57fe5b905060200201356001600160a01b0316614398565b836040518363ffffffff1660e01b815260040180836001600160a01b03166001600160a01b0316815260200182815260200192505050602060405180830381600087803b1580156117b357600080fd5b505af11580156117c7573d6000803e3d6000fd5b505050506040513d60208110156117dd57600080fd5b50516117e557fe5b6000888860001981018181106117f757fe5b905060200201356001600160a01b03166001600160a01b03166370a08231886040518263ffffffff1660e01b815260040180826001600160a01b03166001600160a01b0316815260200191505060206040518083038186803b15801561185c57600080fd5b505afa158015611870573d6000803e3d6000fd5b505050506040513d602081101561188657600080fd5b50516040805160208b810282810182019093528b82529293506118c89290918c918c9182918501908490808284376000920191909152508b925061467c915050565b8961197a828b8b60001981018181106118dd57fe5b905060200201356001600160a01b03166001600160a01b03166370a082318b6040518263ffffffff1660e01b815260040180826001600160a01b03166001600160a01b0316815260200191505060206040518083038186803b15801561194257600080fd5b505afa158015611956573d6000803e3d6000fd5b505050506040513d602081101561196c57600080fd5b50519063ffffffff614a1116565b10156119b75760405162461bcd60e51b815260040180806020018281038252602b815260200180615ba4602b913960400191505060405180910390fd5b50505050505050505050565b600254600160a81b900460ff1681565b60608342811015611a19576040805162461bcd60e51b81526020600482015260186024820152600080516020615b15833981519152604482015290519081900360640190fd5b600254600160a01b900460ff16611ad357611ad36040518060400160405280601881526020017f73776170546f6b656e73466f724578616374546f6b656e7300000000000000008152508b8a8a8080602002602001604051908101604052809392919081815260200183836020028082843760009201919091525050604080516020601f8c018190048102820181019092528a81528d935091508a908a908190840183828082843760009201919091525061441f92505050565b611b317f00000000000000000000000000000000000000000000000000000000000000008b8a8a808060200260200160405190810160405280939291908181526020018383602002808284376000920191909152506141aa92505050565b91508882600081518110611b4157fe5b60200260200101511115611b865760405162461bcd60e51b8152600401808060200182810382526027815260200180615b7d6027913960400191505060405180910390fd5b611c0f88886000818110611b9657fe5b905060200201356001600160a01b031633611bf57f00000000000000000000000000000000000000000000000000000000000000008c8c6000818110611bd857fe5b905060200201356001600160a01b03168d8d600181811061174e57fe5b85600081518110611c0257fe5b6020026020010151614a69565b611c4e828989808060200260200160405190810160405280939291908181526020018383602002808284376000920191909152508b9250614bdb915050565b5098975050505050505050565b6001546000906001600160a01b03163314611cbd576040805162461bcd60e51b815260206004820152601a60248201527f4c61627261646f526f7574657230323a20464f5242494444454e000000000000604482015290519081900360640190fd5b506001600160a01b031660009081526020819052604090205490565b6000611ce785858585614e14565b95945050505050565b6000611ce785858585614f08565b600080611d4c7f00000000000000000000000000000000000000000000000000000000000000008d7f0000000000000000000000000000000000000000000000000000000000000000614398565b9050600086611d5b578b611d5f565b6000195b6040805163d505accf60e01b815233600482015230602482015260448101839052606481018b905260ff8916608482015260a4810188905260c4810187905290519192506001600160a01b0384169163d505accf9160e48082019260009290919082900301818387803b158015611dd557600080fd5b505af1158015611de9573d6000803e3d6000fd5b50505050611dfb8d8d8d8d8d8d61268f565b9d9c50505050505050505050505050565b600254600160a01b900460ff1681565b60608342811015611e62576040805162461bcd60e51b81526020600482015260186024820152600080516020615b15833981519152604482015290519081900360640190fd5b600254600160a01b900460ff16611f1c57611f1c6040518060400160405280601881526020017f737761704578616374546f6b656e73466f72546f6b656e7300000000000000008152508b8a8a8080602002602001604051908101604052809392919081815260200183836020028082843760009201919091525050604080516020601f8c018190048102820181019092528a81528d935091508a908a908190840183828082843760009201919091525061441f92505050565b611f7a7f00000000000000000000000000000000000000000000000000000000000000008b8a8a80806020026020016040519081016040528093929190818152602001838360200280828437600092019190915250614ffc92505050565b91508882600184510381518110611f8d57fe5b60200260200101511015611b865760405162461bcd60e51b815260040180806020018281038252602b815260200180615ba4602b913960400191505060405180910390fd5b8242811015612016576040805162461bcd60e51b81526020600482015260186024820152600080516020615b15833981519152604482015290519081900360640190fd5b600254600160a01b900460ff166120b3576120b3604051806060016040528060358152602001615a78603591398a89898080602002602001604051908101604052809392919081815260200183836020028082843760009201919091525050604080516020601f8b018190048102820181019092528981528c93509150899089908190840183828082843760009201919091525061441f92505050565b61210b878760008181106120c357fe5b905060200201356001600160a01b0316336121057f00000000000000000000000000000000000000000000000000000000000000008b8b600081811061173157fe5b8c614a69565b60008787600019810181811061211d57fe5b905060200201356001600160a01b03166001600160a01b03166370a08231876040518263ffffffff1660e01b815260040180826001600160a01b03166001600160a01b0316815260200191505060206040518083038186803b15801561218257600080fd5b505afa158015612196573d6000803e3d6000fd5b505050506040513d60208110156121ac57600080fd5b50516040805160208a810282810182019093528a82529293506121ee9290918b918b9182918501908490808284376000920191909152508a925061467c915050565b8861197a828a8a600019810181811061220357fe5b905060200201356001600160a01b03166001600160a01b03166370a082318a6040518263ffffffff1660e01b815260040180826001600160a01b03166001600160a01b0316815260200191505060206040518083038186803b15801561194257600080fd5b606083428110156122ae576040805162461bcd60e51b81526020600482015260186024820152600080516020615b15833981519152604482015290519081900360640190fd5b600254600160a01b900460ff16612368576123686040518060400160405280601581526020017f737761704578616374546f6b656e73466f7245544800000000000000000000008152508b8a8a8080602002602001604051908101604052809392919081815260200183836020028082843760009201919091525050604080516020601f8c018190048102820181019092528a81528d935091508a908a908190840183828082843760009201919091525061441f92505050565b6001600160a01b037f000000000000000000000000000000000000000000000000000000000000000016888860001981018181106123a257fe5b905060200201356001600160a01b03166001600160a01b03161461240d576040805162461bcd60e51b815260206004820152601d60248201527f4c61627261646f526f7574657230323a20494e56414c49445f50415448000000604482015290519081900360640190fd5b61246b7f00000000000000000000000000000000000000000000000000000000000000008b8a8a80806020026020016040519081016040528093929190818152602001838360200280828437600092019190915250614ffc92505050565b9150888260018451038151811061247e57fe5b602002602001015110156124c35760405162461bcd60e51b815260040180806020018281038252602b815260200180615ba4602b913960400191505060405180910390fd5b6124d388886000818110611b9657fe5b61251282898980806020026020016040519081016040528093929190818152602001838360200280828437600092019190915250309250614bdb915050565b7f00000000000000000000000000000000000000000000000000000000000000006001600160a01b0316632e1a7d4d8360018551038151811061255157fe5b60200260200101516040518263ffffffff1660e01b815260040180828152602001915050600060405180830381600087803b15801561258f57600080fd5b505af11580156125a3573d6000803e3d6000fd5b50505050611c4e86836001855103815181106125bb57fe5b60200260200101516140b2565b6001546001600160a01b03163314612627576040805162461bcd60e51b815260206004820152601a60248201527f4c61627261646f526f7574657230323a20464f5242494444454e000000000000604482015290519081900360640190fd5b6001805473ffffffffffffffffffffffffffffffffffffffff19166001600160a01b0392909216919091179055565b7f000000000000000000000000000000000000000000000000000000000000000081565b60006126878484846151c7565b949350505050565b600081428110156126d5576040805162461bcd60e51b81526020600482015260186024820152600080516020615b15833981519152604482015290519081900360640190fd5b612704887f00000000000000000000000000000000000000000000000000000000000000008989893089612a73565b604080516370a0823160e01b8152306004820152905191945061278892508a9187916001600160a01b038416916370a0823191602480820192602092909190829003018186803b15801561275757600080fd5b505afa15801561276b573d6000803e3d6000fd5b505050506040513d602081101561278157600080fd5b5051613f30565b7f00000000000000000000000000000000000000000000000000000000000000006001600160a01b0316632e1a7d4d836040518263ffffffff1660e01b815260040180828152602001915050600060405180830381600087803b1580156127ee57600080fd5b505af1158015612802573d6000803e3d6000fd5b5050505061281084836140b2565b509695505050505050565b60608342811015612861576040805162461bcd60e51b81526020600482015260186024820152600080516020615b15833981519152604482015290519081900360640190fd5b600254600160a01b900460ff1661291b5761291b6040518060400160405280601581526020017f73776170546f6b656e73466f72457861637445544800000000000000000000008152508b8a8a8080602002602001604051908101604052809392919081815260200183836020028082843760009201919091525050604080516020601f8c018190048102820181019092528a81528d935091508a908a908190840183828082843760009201919091525061441f92505050565b6001600160a01b037f0000000000000000000000000000000000000000000000000000000000000000168888600019810181811061295557fe5b905060200201356001600160a01b03166001600160a01b0316146129c0576040805162461bcd60e51b815260206004820152601d60248201527f4c61627261646f526f7574657230323a20494e56414c49445f50415448000000604482015290519081900360640190fd5b612a1e7f00000000000000000000000000000000000000000000000000000000000000008b8a8a808060200260200160405190810160405280939291908181526020018383602002808284376000920191909152506141aa92505050565b91508882600081518110612a2e57fe5b602002602001015111156124c35760405162461bcd60e51b8152600401808060200182810382526027815260200180615b7d6027913960400191505060405180910390fd5b6000808242811015612aba576040805162461bcd60e51b81526020600482015260186024820152600080516020615b15833981519152604482015290519081900360640190fd5b6000612ae77f00000000000000000000000000000000000000000000000000000000000000008c8c614398565b604080516323b872dd60e01b81523360048201526001600160a01b03831660248201819052604482018d9052915192935090916323b872dd916064808201926020929091908290030181600087803b158015612b4257600080fd5b505af1158015612b56573d6000803e3d6000fd5b505050506040513d6020811015612b6c57600080fd5b5050604080517f89afcb440000000000000000000000000000000000000000000000000000000081526001600160a01b03888116600483015282516000938493928616926389afcb44926024808301939282900301818787803b158015612bd257600080fd5b505af1158015612be6573d6000803e3d6000fd5b505050506040513d6040811015612bfc57600080fd5b50805160209091015190925090506000612c168e8e615273565b509050806001600160a01b03168e6001600160a01b031614612c39578183612c3c565b82825b90975095508a871015612c805760405162461bcd60e51b8152600401808060200182810382526026815260200180615b576026913960400191505060405180910390fd5b89861015612cbf5760405162461bcd60e51b815260040180806020018281038252602681526020018061599e6026913960400191505060405180910390fd5b505050505097509795505050505050565b7f000000000000000000000000000000000000000000000000000000000000000081565b60606113d27f00000000000000000000000000000000000000000000000000000000000000008484614ffc565b6000806000612d717f00000000000000000000000000000000000000000000000000000000000000008e7f0000000000000000000000000000000000000000000000000000000000000000614398565b9050600087612d80578c612d84565b6000195b6040805163d505accf60e01b815233600482015230602482015260448101839052606481018c905260ff8a16608482015260a4810189905260c4810188905290519192506001600160a01b0384169163d505accf9160e48082019260009290919082900301818387803b158015612dfa57600080fd5b505af1158015612e0e573d6000803e3d6000fd5b50505050612e208e8e8e8e8e8e6111fd565b909f909e509c50505050505050505050505050565b60608342811015612e7b576040805162461bcd60e51b81526020600482015260186024820152600080516020615b15833981519152604482015290519081900360640190fd5b600254600160a01b900460ff16612f3557612f356040518060400160405280601581526020017f73776170455448466f724578616374546f6b656e7300000000000000000000008152508a8a8a8080602002602001604051908101604052809392919081815260200183836020028082843760009201919091525050604080516020601f8c018190048102820181019092528a81528d935091508a908a908190840183828082843760009201919091525061441f92505050565b7f00000000000000000000000000000000000000000000000000000000000000006001600160a01b031688886000818110612f6c57fe5b905060200201356001600160a01b03166001600160a01b031614612fd7576040805162461bcd60e51b815260206004820152601d60248201527f4c61627261646f526f7574657230323a20494e56414c49445f50415448000000604482015290519081900360640190fd5b6130357f00000000000000000000000000000000000000000000000000000000000000008a8a8a808060200260200160405190810160405280939291908181526020018383602002808284376000920191909152506141aa92505050565b9150348260008151811061304557fe5b6020026020010151111561308a5760405162461bcd60e51b8152600401808060200182810382526027815260200180615b7d6027913960400191505060405180910390fd5b7f00000000000000000000000000000000000000000000000000000000000000006001600160a01b031663d0e30db0836000815181106130c657fe5b60200260200101516040518263ffffffff1660e01b81526004016000604051808303818588803b1580156130f957600080fd5b505af115801561310d573d6000803e3d6000fd5b50505050507f00000000000000000000000000000000000000000000000000000000000000006001600160a01b031663a9059cbb6131727f00000000000000000000000000000000000000000000000000000000000000008b8b600081811061173157fe5b8460008151811061317f57fe5b60200260200101516040518363ffffffff1660e01b815260040180836001600160a01b03166001600160a01b0316815260200182815260200192505050602060405180830381600087803b1580156131d657600080fd5b505af11580156131ea573d6000803e3d6000fd5b505050506040513d602081101561320057600080fd5b505161320857fe5b613247828989808060200260200160405190810160405280939291908181526020018383602002808284376000920191909152508b9250614bdb915050565b8160008151811061325457fe5b602002602001015134111561328357613283338360008151811061327457fe5b602002602001015134036140b2565b50979650505050505050565b600080600083428110156132d8576040805162461bcd60e51b81526020600482015260186024820152600080516020615b15833981519152604482015290519081900360640190fd5b600254600160a81b900460ff16613348576001546001600160a01b03163314613348576040805162461bcd60e51b815260206004820152601a60248201527f4c61627261646f526f7574657230323a20464f5242494444454e000000000000604482015290519081900360640190fd5b6133568c8c8c8c8c8c615351565b909450925060006133887f00000000000000000000000000000000000000000000000000000000000000008e8e614398565b90506133968d338388614a69565b6133a28c338387614a69565b806001600160a01b0316636a627842886040518263ffffffff1660e01b815260040180826001600160a01b03166001600160a01b03168152602001915050602060405180830381600087803b1580156133fa57600080fd5b505af115801561340e573d6000803e3d6000fd5b505050506040513d602081101561342457600080fd5b5051949d939c50939a509198505050505050505050565b824281101561347f576040805162461bcd60e51b81526020600482015260186024820152600080516020615b15833981519152604482015290519081900360640190fd5b600254600160a01b900460ff1661351c5761351c604051806060016040528060328152602001615bfc603291398a89898080602002602001604051908101604052809392919081815260200183836020028082843760009201919091525050604080516020601f8b018190048102820181019092528981528c93509150899089908190840183828082843760009201919091525061441f92505050565b6001600160a01b037f0000000000000000000000000000000000000000000000000000000000000000168787600019810181811061355657fe5b905060200201356001600160a01b03166001600160a01b0316146135c1576040805162461bcd60e51b815260206004820152601d60248201527f4c61627261646f526f7574657230323a20494e56414c49445f50415448000000604482015290519081900360640190fd5b6135d1878760008181106120c357fe5b61360f87878080602002602001604051908101604052809392919081815260200183836020028082843760009201919091525030925061467c915050565b604080516370a0823160e01b815230600482015290516000916001600160a01b037f000000000000000000000000000000000000000000000000000000000000000016916370a0823191602480820192602092909190829003018186803b15801561367957600080fd5b505afa15801561368d573d6000803e3d6000fd5b505050506040513d60208110156136a357600080fd5b50519050888110156136e65760405162461bcd60e51b815260040180806020018281038252602b815260200180615ba4602b913960400191505060405180910390fd5b7f00000000000000000000000000000000000000000000000000000000000000006001600160a01b0316632e1a7d4d826040518263ffffffff1660e01b815260040180828152602001915050600060405180830381600087803b15801561374c57600080fd5b505af1158015613760573d6000803e3d6000fd5b505050506119b786826140b2565b606083428110156137b4576040805162461bcd60e51b81526020600482015260186024820152600080516020615b15833981519152604482015290519081900360640190fd5b600254600160a01b900460ff1661386e5761386e6040518060400160405280601581526020017f737761704578616374455448466f72546f6b656e730000000000000000000000815250348a8a8080602002602001604051908101604052809392919081815260200183836020028082843760009201919091525050604080516020601f8c018190048102820181019092528a81528d935091508a908a908190840183828082843760009201919091525061441f92505050565b7f00000000000000000000000000000000000000000000000000000000000000006001600160a01b0316888860008181106138a557fe5b905060200201356001600160a01b03166001600160a01b031614613910576040805162461bcd60e51b815260206004820152601d60248201527f4c61627261646f526f7574657230323a20494e56414c49445f50415448000000604482015290519081900360640190fd5b61396e7f0000000000000000000000000000000000000000000000000000000000000000348a8a80806020026020016040519081016040528093929190818152602001838360200280828437600092019190915250614ffc92505050565b9150888260018451038151811061398157fe5b602002602001015110156139c65760405162461bcd60e51b815260040180806020018281038252602b815260200180615ba4602b913960400191505060405180910390fd5b7f00000000000000000000000000000000000000000000000000000000000000006001600160a01b031663d0e30db083600081518110613a0257fe5b60200260200101516040518263ffffffff1660e01b81526004016000604051808303818588803b158015613a3557600080fd5b505af1158015613a49573d6000803e3d6000fd5b50505050507f00000000000000000000000000000000000000000000000000000000000000006001600160a01b031663a9059cbb613aae7f00000000000000000000000000000000000000000000000000000000000000008b8b600081811061173157fe5b84600081518110613abb57fe5b60200260200101516040518363ffffffff1660e01b815260040180836001600160a01b03166001600160a01b0316815260200182815260200192505050602060405180830381600087803b158015613b1257600080fd5b505af1158015613b26573d6000803e3d6000fd5b505050506040513d6020811015613b3c57600080fd5b5051613b4457fe5b613283828989808060200260200160405190810160405280939291908181526020018383602002808284376000920191909152508b9250614bdb915050565b6001546001600160a01b03163314613be2576040805162461bcd60e51b815260206004820152601a60248201527f4c61627261646f526f7574657230323a20464f5242494444454e000000000000604482015290519081900360640190fd5b60028054911515600160a81b027fffffffffffffffffffff00ffffffffffffffffffffffffffffffffffffffffff909216919091179055565b60008060008342811015613c64576040805162461bcd60e51b81526020600482015260186024820152600080516020615b15833981519152604482015290519081900360640190fd5b600254600160a81b900460ff16613cd4576001546001600160a01b03163314613cd4576040805162461bcd60e51b815260206004820152601a60248201527f4c61627261646f526f7574657230323a20464f5242494444454e000000000000604482015290519081900360640190fd5b613d028a7f00000000000000000000000000000000000000000000000000000000000000008b348c8c615351565b90945092506000613d547f00000000000000000000000000000000000000000000000000000000000000008c7f0000000000000000000000000000000000000000000000000000000000000000614398565b9050613d628b338388614a69565b7f00000000000000000000000000000000000000000000000000000000000000006001600160a01b031663d0e30db0856040518263ffffffff1660e01b81526004016000604051808303818588803b158015613dbd57600080fd5b505af1158015613dd1573d6000803e3d6000fd5b50505050507f00000000000000000000000000000000000000000000000000000000000000006001600160a01b031663a9059cbb82866040518363ffffffff1660e01b815260040180836001600160a01b03166001600160a01b0316815260200182815260200192505050602060405180830381600087803b158015613e5657600080fd5b505af1158015613e6a573d6000803e3d6000fd5b505050506040513d6020811015613e8057600080fd5b5051613e8857fe5b806001600160a01b0316636a627842886040518263ffffffff1660e01b815260040180826001600160a01b03166001600160a01b03168152602001915050602060405180830381600087803b158015613ee057600080fd5b505af1158015613ef4573d6000803e3d6000fd5b505050506040513d6020811015613f0a57600080fd5b5051925034841015613f2257613f22338534036140b2565b505096509650969350505050565b604080516001600160a01b038481166024830152604480830185905283518084039091018152606490920183526020820180517bffffffffffffffffffffffffffffffffffffffffffffffffffffffff167fa9059cbb00000000000000000000000000000000000000000000000000000000178152925182516000946060949389169392918291908083835b60208310613fdb5780518252601f199092019160209182019101613fbc565b6001836020036101000a0380198251168184511680821785525050505050509050019150506000604051808303816000865af19150503d806000811461403d576040519150601f19603f3d011682016040523d82523d6000602084013e614042565b606091505b5091509150818015614070575080511580614070575080806020019051602081101561406d57600080fd5b50515b6140ab5760405162461bcd60e51b815260040180806020018281038252602d815260200180615bcf602d913960400191505060405180910390fd5b5050505050565b604080516000808252602082019092526001600160a01b0384169083906040518082805190602001908083835b602083106140fe5780518252601f1990920191602091820191016140df565b6001836020036101000a03801982511681845116808217855250505050505090500191505060006040518083038185875af1925050503d8060008114614160576040519150601f19603f3d011682016040523d82523d6000602084013e614165565b606091505b50509050806141a55760405162461bcd60e51b8152600401808060200182810382526034815260200180615a446034913960400191505060405180910390fd5b505050565b6060600282511015614203576040805162461bcd60e51b815260206004820152601c60248201527f4c61627261646f4c6962726172793a20494e56414c49445f5041544800000000604482015290519081900360640190fd5b815167ffffffffffffffff8111801561421b57600080fd5b50604051908082528060200260200182016040528015614245578160200160208202803683370190505b509050828160018351038151811061425957fe5b60209081029190910101528151600019015b8015614390576000806142a88786600186038151811061428757fe5b602002602001015187868151811061429b57fe5b60200260200101516155de565b9150915060006142e2888760018703815181106142c157fe5b60200260200101518887815181106142d557fe5b6020026020010151614398565b6001600160a01b03166241c9f76040518163ffffffff1660e01b815260040160206040518083038186803b15801561431957600080fd5b505afa15801561432d573d6000803e3d6000fd5b505050506040513d602081101561434357600080fd5b5051855190915061436a9086908690811061435a57fe5b6020026020010151848484614f08565b85600186038151811061437957fe5b60209081029190910101525050506000190161426b565b509392505050565b6040805163e6a4390560e01b81526001600160a01b0384811660048301528381166024830152915160009286169163e6a43905916044808301926020929190829003018186803b1580156143eb57600080fd5b505afa1580156143ff573d6000803e3d6000fd5b505050506040513d602081101561441557600080fd5b5051949350505050565b600080606083806020019051606081101561443957600080fd5b81516020830151604080850180519151939592948301929184600160201b82111561446357600080fd5b90830190602082018581111561447857600080fd5b8251600160201b81118282018810171561449157600080fd5b82525081516020918201929091019080838360005b838110156144be5781810151838201526020016144a6565b50505050905090810190601f1680156144eb5780820380516001836020036101000a031916815260200191505b5060405250505092509250925081600080336001600160a01b03166001600160a01b031681526020019081526020016000205410614570576040805162461bcd60e51b815260206004820152601e60248201527f4c61627261646f526f7574657230323a20496e76616c6964206e6f6e63650000604482015290519081900360640190fd5b438310156145af5760405162461bcd60e51b8152600401808060200182810382526022815260200180615b356022913960400191505060405180910390fd5b600046905060006145f2828b8b8b6000815181106145c957fe5b60200260200101518c60018e5103815181106145e157fe5b6020026020010151338d8c8c6156ac565b905060006145ff82615784565b9050600061460d82866157d5565b6002549091506001600160a01b0380831691161461465c5760405162461bcd60e51b8152600401808060200182810382526022815260200180615aad6022913960400191505060405180910390fd5b505033600090815260208190526040902093909355505050505050505050565b60005b60018351038110156141a55760008084838151811061469a57fe5b60200260200101518584600101815181106146b157fe5b60200260200101519150915060006146c98383615273565b50905060006146f97f00000000000000000000000000000000000000000000000000000000000000008585614398565b9050600080600080846001600160a01b0316630902f1ac6040518163ffffffff1660e01b815260040160606040518083038186803b15801561473a57600080fd5b505afa15801561474e573d6000803e3d6000fd5b505050506040513d606081101561476457600080fd5b5080516020909101516dffffffffffffffffffffffffffff91821693501690506000806001600160a01b038a8116908916146147a15782846147a4565b83835b91509150614802828b6001600160a01b03166370a082318a6040518263ffffffff1660e01b815260040180826001600160a01b03166001600160a01b0316815260200191505060206040518083038186803b15801561194257600080fd5b95506000876001600160a01b03166241c9f76040518163ffffffff1660e01b815260040160206040518083038186803b15801561483e57600080fd5b505afa158015614852573d6000803e3d6000fd5b505050506040513d602081101561486857600080fd5b5051905061487887848484614e14565b95505050505050600080856001600160a01b0316886001600160a01b0316146148a3578260006148a7565b6000835b91509150600060028c51038a106148be578a6148f2565b6148f27f0000000000000000000000000000000000000000000000000000000000000000898e8d600201815181106142d557fe5b60408051600080825260208201928390527f022c0d9f00000000000000000000000000000000000000000000000000000000835260248201878152604483018790526001600160a01b038086166064850152608060848501908152845160a48601819052969750908c169563022c0d9f958a958a958a9591949193919260c486019290918190849084905b8381101561499557818101518382015260200161497d565b50505050905090810190601f1680156149c25780820380516001836020036101000a031916815260200191505b5095505050505050600060405180830381600087803b1580156149e457600080fd5b505af11580156149f8573d6000803e3d6000fd5b50506001909b019a5061467f9950505050505050505050565b808203828111156113d5576040805162461bcd60e51b815260206004820152601560248201527f64732d6d6174682d7375622d756e646572666c6f770000000000000000000000604482015290519081900360640190fd5b604080516001600160a01b0385811660248301528481166044830152606480830185905283518084039091018152608490920183526020820180517bffffffffffffffffffffffffffffffffffffffffffffffffffffffff166323b872dd60e01b17815292518251600094606094938a169392918291908083835b60208310614b035780518252601f199092019160209182019101614ae4565b6001836020036101000a0380198251168184511680821785525050505050509050019150506000604051808303816000865af19150503d8060008114614b65576040519150601f19603f3d011682016040523d82523d6000602084013e614b6a565b606091505b5091509150818015614b98575080511580614b985750808060200190516020811015614b9557600080fd5b50515b614bd35760405162461bcd60e51b8152600401808060200182810382526031815260200180615a136031913960400191505060405180910390fd5b505050505050565b60005b6001835103811015614e0e57600080848381518110614bf957fe5b6020026020010151858460010181518110614c1057fe5b6020026020010151915091506000614c288383615273565b5090506000878560010181518110614c3c57fe5b60200260200101519050600080836001600160a01b0316866001600160a01b031614614c6a57826000614c6e565b6000835b91509150600060028a51038810614c855788614cb9565b614cb97f0000000000000000000000000000000000000000000000000000000000000000878c8b600201815181106142d557fe5b9050614ce67f00000000000000000000000000000000000000000000000000000000000000008888614398565b6001600160a01b031663022c0d9f84848460006040519080825280601f01601f191660200182016040528015614d23576020820181803683370190505b506040518563ffffffff1660e01b815260040180858152602001848152602001836001600160a01b03166001600160a01b0316815260200180602001828103825283818151815260200191508051906020019080838360005b83811015614d94578181015183820152602001614d7c565b50505050905090810190601f168015614dc15780820380516001836020036101000a031916815260200191505b5095505050505050600060405180830381600087803b158015614de357600080fd5b505af1158015614df7573d6000803e3d6000fd5b505060019099019850614bde975050505050505050565b50505050565b6000808511614e545760405162461bcd60e51b81526004018080602001828103825260298152602001806159c46029913960400191505060405180910390fd5b600084118015614e645750600083115b614e9f5760405162461bcd60e51b81526004018080602001828103825260268152602001806159ed6026913960400191505060405180910390fd5b6000614eb6866103e885900363ffffffff6158a716565b90506000614eca828663ffffffff6158a716565b90506000614ef083614ee4896103e863ffffffff6158a716565b9063ffffffff61591316565b9050808281614efb57fe5b0498975050505050505050565b6000808511614f485760405162461bcd60e51b815260040180806020018281038252602a815260200180615c2e602a913960400191505060405180910390fd5b600084118015614f585750600083115b614f935760405162461bcd60e51b81526004018080602001828103825260268152602001806159ed6026913960400191505060405180910390fd5b6000614fb76103e8614fab878963ffffffff6158a716565b9063ffffffff6158a716565b90506000614fd46103e8859003614fab878a63ffffffff614a1116565b9050614ff16001828481614fe457fe5b049063ffffffff61591316565b979650505050505050565b6060600282511015615055576040805162461bcd60e51b815260206004820152601c60248201527f4c61627261646f4c6962726172793a20494e56414c49445f5041544800000000604482015290519081900360640190fd5b815167ffffffffffffffff8111801561506d57600080fd5b50604051908082528060200260200182016040528015615097578160200160208202803683370190505b50905082816000815181106150a857fe5b60200260200101818152505060005b6001835103811015614390576000806150ed878685815181106150d657fe5b602002602001015187866001018151811061429b57fe5b91509150600061511a8887868151811061510357fe5b60200260200101518887600101815181106142d557fe5b6001600160a01b03166241c9f76040518163ffffffff1660e01b815260040160206040518083038186803b15801561515157600080fd5b505afa158015615165573d6000803e3d6000fd5b505050506040513d602081101561517b57600080fd5b505185519091506151a29086908690811061519257fe5b6020026020010151848484614e14565b8585600101815181106151b157fe5b60209081029190910101525050506001016150b7565b60008084116152075760405162461bcd60e51b8152600401808060200182810382526023815260200180615af26023913960400191505060405180910390fd5b6000831180156152175750600082115b6152525760405162461bcd60e51b81526004018080602001828103825260268152602001806159ed6026913960400191505060405180910390fd5b82615263858463ffffffff6158a716565b8161526a57fe5b04949350505050565b600080826001600160a01b0316846001600160a01b031614156152c75760405162461bcd60e51b8152600401808060200182810382526023815260200180615acf6023913960400191505060405180910390fd5b826001600160a01b0316846001600160a01b0316106152e75782846152ea565b83835b90925090506001600160a01b03821661534a576040805162461bcd60e51b815260206004820152601c60248201527f4c61627261646f4c6962726172793a205a45524f5f4144445245535300000000604482015290519081900360640190fd5b9250929050565b6040805163e6a4390560e01b81526001600160a01b03888116600483015287811660248301529151600092839283927f00000000000000000000000000000000000000000000000000000000000000009092169163e6a4390591604480820192602092909190829003018186803b1580156153cb57600080fd5b505afa1580156153df573d6000803e3d6000fd5b505050506040513d60208110156153f557600080fd5b50516001600160a01b031614156154c157604080517fc9c653960000000000000000000000000000000000000000000000000000000081526001600160a01b038a81166004830152898116602483015291517f00000000000000000000000000000000000000000000000000000000000000009092169163c9c65396916044808201926020929091908290030181600087803b15801561549457600080fd5b505af11580156154a8573d6000803e3d6000fd5b505050506040513d60208110156154be57600080fd5b50505b6000806154ef7f00000000000000000000000000000000000000000000000000000000000000008b8b6155de565b91509150816000148015615501575080155b15615511578793508692506155d1565b600061551e8984846151c7565b905087811161557157858110156155665760405162461bcd60e51b815260040180806020018281038252602681526020018061599e6026913960400191505060405180910390fd5b8894509250826155cf565b600061557e8984866151c7565b90508981111561558a57fe5b878110156155c95760405162461bcd60e51b8152600401808060200182810382526026815260200180615b576026913960400191505060405180910390fd5b94508793505b505b5050965096945050505050565b60008060006155ed8585615273565b5090506000806155fe888888614398565b6001600160a01b0316630902f1ac6040518163ffffffff1660e01b815260040160606040518083038186803b15801561563657600080fd5b505afa15801561564a573d6000803e3d6000fd5b505050506040513d606081101561566057600080fd5b5080516020909101516dffffffffffffffffffffffffffff91821693501690506001600160a01b038781169084161461569a57808261569d565b81815b90999098509650505050505050565b6000898989898989898989604051602001808a815260200189805190602001908083835b602083106156ef5780518252601f1990920191602091820191016156d0565b51815160209384036101000a60001901801990921691161790529201998a5250606097881b6bffffffffffffffffffffffff199081168a83015296881b871660348a015294871b86166048890152509190941b909216605c850152607084019290925260908084019190915260408051808503909201825260b090930190925281519101209c9b505050505050505050505050565b604080517f19457468657265756d205369676e6564204d6573736167653a0a333200000000602080830191909152603c8083019490945282518083039094018452605c909101909152815191012090565b60008060008084516041146157f057600093505050506113d5565b50505060208201516040830151606084015160001a601b81101561581257601b015b8060ff16601b1415801561582a57508060ff16601c14155b1561583b57600093505050506113d5565b6040805160008152602080820180845289905260ff8416828401526060820186905260808201859052915160019260a0808401939192601f1981019281900390910190855afa158015615892573d6000803e3d6000fd5b5050604051601f190151979650505050505050565b60008115806158c2575050808202828282816158bf57fe5b04145b6113d5576040805162461bcd60e51b815260206004820152601460248201527f64732d6d6174682d6d756c2d6f766572666c6f77000000000000000000000000604482015290519081900360640190fd5b808201828110156113d5576040805162461bcd60e51b815260206004820152601460248201527f64732d6d6174682d6164642d6f766572666c6f77000000000000000000000000604482015290519081900360640190fdfe737761704578616374455448466f72546f6b656e73537570706f7274696e674665654f6e5472616e73666572546f6b656e734c61627261646f526f7574657230323a20494e53554646494349454e545f425f414d4f554e544c61627261646f4c6962726172793a20494e53554646494349454e545f494e5055545f414d4f554e544c61627261646f4c6962726172793a20494e53554646494349454e545f4c49515549444954595472616e7366657248656c7065723a3a7472616e7366657246726f6d3a207472616e7366657246726f6d206661696c65645472616e7366657248656c7065723a3a736166655472616e736665724554483a20455448207472616e73666572206661696c6564737761704578616374546f6b656e73466f72546f6b656e73537570706f7274696e674665654f6e5472616e73666572546f6b656e734c61627261646f526f7574657230323a20496e76616c6964207369676e61747572654c61627261646f4c6962726172793a204944454e544943414c5f4144445245535345534c61627261646f4c6962726172793a20494e53554646494349454e545f414d4f554e544c61627261646f526f7574657230323a204558504952454400000000000000004c61627261646f526f7574657230323a2045787069726564207369676e61747572654c61627261646f526f7574657230323a20494e53554646494349454e545f415f414d4f554e544c61627261646f526f7574657230323a204558434553534956455f494e5055545f414d4f554e544c61627261646f526f7574657230323a20494e53554646494349454e545f4f55545055545f414d4f554e545472616e7366657248656c7065723a3a736166655472616e736665723a207472616e73666572206661696c6564737761704578616374546f6b656e73466f72455448537570706f7274696e674665654f6e5472616e73666572546f6b656e734c61627261646f4c6962726172793a20494e53554646494349454e545f4f55545055545f414d4f554e54a2646970667358221220ce0c6dc6c688b29c015d5f40f0460ff45efc169e385dc2a8e909c82ca4ed185364736f6c63430006060033",
  "linkReferences": {},
  "deployedLinkReferences": {}
}