{
  "_format": "hh-sol-artifact-1",
  "contractName": "LabradoBaseNFT",
  "sourceName": "contracts/LabradoBaseNFT.sol",
  "abi": [
    {
      "inputs": [
        {
          "internalType": "string",
          "name": "_name",
          "type": "string"
        },
        {
          "internalType": "string",
          "name": "_symbol",
          "type": "string"
        },
        {
          "internalType": "string",
          "name": "_baseUri",
          "type": "string"
        }
      ],
      "stateMutability": "nonpayable",
      "type": "constructor"
    },
    {
      "anonymous": false,
      "inputs": [
        {
          "indexed": true,
          "internalType": "address",
          "name": "owner",
          "type": "address"
        },
        {
          "indexed": true,
          "internalType": "address",
          "name": "approved",
          "type": "address"
        },
        {
          "indexed": true,
          "internalType": "uint256",
          "name": "tokenId",
          "type": "uint256"
        }
      ],
      "name": "Approval",
      "type": "event"
    },
    {
      "anonymous": false,
      "inputs": [
        {
          "indexed": true,
          "internalType": "address",
          "name": "owner",
          "type": "address"
        },
        {
          "indexed": true,
          "internalType": "address",
          "name": "operator",
          "type": "address"
        },
        {
          "indexed": false,
          "internalType": "bool",
          "name": "approved",
          "type": "bool"
        }
      ],
      "name": "ApprovalForAll",
      "type": "event"
    },
    {
      "anonymous": false,
      "inputs": [
        {
          "indexed": false,
          "internalType": "address",
          "name": "account",
          "type": "address"
        }
      ],
      "name": "Paused",
      "type": "event"
    },
    {
      "anonymous": false,
      "inputs": [
        {
          "indexed": true,
          "internalType": "bytes32",
          "name": "role",
          "type": "bytes32"
        },
        {
          "indexed": true,
          "internalType": "bytes32",
          "name": "previousAdminRole",
          "type": "bytes32"
        },
        {
          "indexed": true,
          "internalType": "bytes32",
          "name": "newAdminRole",
          "type": "bytes32"
        }
      ],
      "name": "RoleAdminChanged",
      "type": "event"
    },
    {
      "anonymous": false,
      "inputs": [
        {
          "indexed": true,
          "internalType": "bytes32",
          "name": "role",
          "type": "bytes32"
        },
        {
          "indexed": true,
          "internalType": "address",
          "name": "account",
          "type": "address"
        },
        {
          "indexed": true,
          "internalType": "address",
          "name": "sender",
          "type": "address"
        }
      ],
      "name": "RoleGranted",
      "type": "event"
    },
    {
      "anonymous": false,
      "inputs": [
        {
          "indexed": true,
          "internalType": "bytes32",
          "name": "role",
          "type": "bytes32"
        },
        {
          "indexed": true,
          "internalType": "address",
          "name": "account",
          "type": "address"
        },
        {
          "indexed": true,
          "internalType": "address",
          "name": "sender",
          "type": "address"
        }
      ],
      "name": "RoleRevoked",
      "type": "event"
    },
    {
      "anonymous": false,
      "inputs": [
        {
          "indexed": true,
          "internalType": "address",
          "name": "from",
          "type": "address"
        },
        {
          "indexed": true,
          "internalType": "address",
          "name": "to",
          "type": "address"
        },
        {
          "indexed": true,
          "internalType": "uint256",
          "name": "tokenId",
          "type": "uint256"
        }
      ],
      "name": "Transfer",
      "type": "event"
    },
    {
      "anonymous": false,
      "inputs": [
        {
          "indexed": false,
          "internalType": "address",
          "name": "account",
          "type": "address"
        }
      ],
      "name": "Unpaused",
      "type": "event"
    },
    {
      "inputs": [],
      "name": "DEFAULT_ADMIN_ROLE",
      "outputs": [
        {
          "internalType": "bytes32",
          "name": "",
          "type": "bytes32"
        }
      ],
      "stateMutability": "view",
      "type": "function"
    },
    {
      "inputs": [],
      "name": "MINTER_ROLE",
      "outputs": [
        {
          "internalType": "bytes32",
          "name": "",
          "type": "bytes32"
        }
      ],
      "stateMutability": "view",
      "type": "function"
    },
    {
      "inputs": [
        {
          "internalType": "address",
          "name": "to",
          "type": "address"
        },
        {
          "internalType": "uint256",
          "name": "tokenId",
          "type": "uint256"
        }
      ],
      "name": "approve",
      "outputs": [],
      "stateMutability": "nonpayable",
      "type": "function"
    },
    {
      "inputs": [
        {
          "internalType": "address",
          "name": "owner",
          "type": "address"
        }
      ],
      "name": "balanceOf",
      "outputs": [
        {
          "internalType": "uint256",
          "name": "",
          "type": "uint256"
        }
      ],
      "stateMutability": "view",
      "type": "function"
    },
    {
      "inputs": [],
      "name": "baseUri",
      "outputs": [
        {
          "internalType": "string",
          "name": "",
          "type": "string"
        }
      ],
      "stateMutability": "view",
      "type": "function"
    },
    {
      "inputs": [
        {
          "internalType": "uint256",
          "name": "tokenId",
          "type": "uint256"
        }
      ],
      "name": "burn",
      "outputs": [],
      "stateMutability": "nonpayable",
      "type": "function"
    },
    {
      "inputs": [
        {
          "internalType": "uint256",
          "name": "tokenId",
          "type": "uint256"
        }
      ],
      "name": "getApproved",
      "outputs": [
        {
          "internalType": "address",
          "name": "",
          "type": "address"
        }
      ],
      "stateMutability": "view",
      "type": "function"
    },
    {
      "inputs": [
        {
          "internalType": "bytes32",
          "name": "role",
          "type": "bytes32"
        }
      ],
      "name": "getRoleAdmin",
      "outputs": [
        {
          "internalType": "bytes32",
          "name": "",
          "type": "bytes32"
        }
      ],
      "stateMutability": "view",
      "type": "function"
    },
    {
      "inputs": [
        {
          "internalType": "address",
          "name": "_owner",
          "type": "address"
        }
      ],
      "name": "getTokensAndTokenUriByOwner",
      "outputs": [
        {
          "components": [
            {
              "internalType": "uint256",
              "name": "tokenId",
              "type": "uint256"
            },
            {
              "internalType": "string",
              "name": "tokenURI",
              "type": "string"
            }
          ],
          "internalType": "struct LabradoBaseNFT.TokenIdAndURI[]",
          "name": "",
          "type": "tuple[]"
        }
      ],
      "stateMutability": "view",
      "type": "function"
    },
    {
      "inputs": [
        {
          "internalType": "address",
          "name": "_owner",
          "type": "address"
        }
      ],
      "name": "getTokensByOwner",
      "outputs": [
        {
          "internalType": "uint256[]",
          "name": "",
          "type": "uint256[]"
        }
      ],
      "stateMutability": "view",
      "type": "function"
    },
    {
      "inputs": [
        {
          "internalType": "bytes32",
          "name": "role",
          "type": "bytes32"
        },
        {
          "internalType": "address",
          "name": "account",
          "type": "address"
        }
      ],
      "name": "grantRole",
      "outputs": [],
      "stateMutability": "nonpayable",
      "type": "function"
    },
    {
      "inputs": [
        {
          "internalType": "bytes32",
          "name": "role",
          "type": "bytes32"
        },
        {
          "internalType": "address",
          "name": "account",
          "type": "address"
        }
      ],
      "name": "hasRole",
      "outputs": [
        {
          "internalType": "bool",
          "name": "",
          "type": "bool"
        }
      ],
      "stateMutability": "view",
      "type": "function"
    },
    {
      "inputs": [
        {
          "internalType": "address",
          "name": "owner",
          "type": "address"
        },
        {
          "internalType": "address",
          "name": "operator",
          "type": "address"
        }
      ],
      "name": "isApprovedForAll",
      "outputs": [
        {
          "internalType": "bool",
          "name": "",
          "type": "bool"
        }
      ],
      "stateMutability": "view",
      "type": "function"
    },
    {
      "inputs": [
        {
          "internalType": "address",
          "name": "_user",
          "type": "address"
        }
      ],
      "name": "mint",
      "outputs": [
        {
          "internalType": "uint256",
          "name": "",
          "type": "uint256"
        }
      ],
      "stateMutability": "nonpayable",
      "type": "function"
    },
    {
      "inputs": [
        {
          "internalType": "address[]",
          "name": "_users",
          "type": "address[]"
        }
      ],
      "name": "mintByBatch",
      "outputs": [
        {
          "internalType": "uint256[]",
          "name": "",
          "type": "uint256[]"
        }
      ],
      "stateMutability": "nonpayable",
      "type": "function"
    },
    {
      "inputs": [],
      "name": "name",
      "outputs": [
        {
          "internalType": "string",
          "name": "",
          "type": "string"
        }
      ],
      "stateMutability": "view",
      "type": "function"
    },
    {
      "inputs": [
        {
          "internalType": "uint256",
          "name": "tokenId",
          "type": "uint256"
        }
      ],
      "name": "ownerOf",
      "outputs": [
        {
          "internalType": "address",
          "name": "",
          "type": "address"
        }
      ],
      "stateMutability": "view",
      "type": "function"
    },
    {
      "inputs": [],
      "name": "pause",
      "outputs": [],
      "stateMutability": "nonpayable",
      "type": "function"
    },
    {
      "inputs": [],
      "name": "paused",
      "outputs": [
        {
          "internalType": "bool",
          "name": "",
          "type": "bool"
        }
      ],
      "stateMutability": "view",
      "type": "function"
    },
    {
      "inputs": [
        {
          "internalType": "bytes32",
          "name": "role",
          "type": "bytes32"
        },
        {
          "internalType": "address",
          "name": "account",
          "type": "address"
        }
      ],
      "name": "renounceRole",
      "outputs": [],
      "stateMutability": "nonpayable",
      "type": "function"
    },
    {
      "inputs": [
        {
          "internalType": "bytes32",
          "name": "role",
          "type": "bytes32"
        },
        {
          "internalType": "address",
          "name": "account",
          "type": "address"
        }
      ],
      "name": "revokeRole",
      "outputs": [],
      "stateMutability": "nonpayable",
      "type": "function"
    },
    {
      "inputs": [
        {
          "internalType": "address",
          "name": "from",
          "type": "address"
        },
        {
          "internalType": "address",
          "name": "to",
          "type": "address"
        },
        {
          "internalType": "uint256",
          "name": "tokenId",
          "type": "uint256"
        }
      ],
      "name": "safeTransferFrom",
      "outputs": [],
      "stateMutability": "nonpayable",
      "type": "function"
    },
    {
      "inputs": [
        {
          "internalType": "address",
          "name": "from",
          "type": "address"
        },
        {
          "internalType": "address",
          "name": "to",
          "type": "address"
        },
        {
          "internalType": "uint256",
          "name": "tokenId",
          "type": "uint256"
        },
        {
          "internalType": "bytes",
          "name": "data",
          "type": "bytes"
        }
      ],
      "name": "safeTransferFrom",
      "outputs": [],
      "stateMutability": "nonpayable",
      "type": "function"
    },
    {
      "inputs": [
        {
          "internalType": "address",
          "name": "operator",
          "type": "address"
        },
        {
          "internalType": "bool",
          "name": "approved",
          "type": "bool"
        }
      ],
      "name": "setApprovalForAll",
      "outputs": [],
      "stateMutability": "nonpayable",
      "type": "function"
    },
    {
      "inputs": [
        {
          "internalType": "string",
          "name": "_baseUri",
          "type": "string"
        }
      ],
      "name": "setBaseUri",
      "outputs": [],
      "stateMutability": "nonpayable",
      "type": "function"
    },
    {
      "inputs": [
        {
          "internalType": "bytes4",
          "name": "interfaceId",
          "type": "bytes4"
        }
      ],
      "name": "supportsInterface",
      "outputs": [
        {
          "internalType": "bool",
          "name": "",
          "type": "bool"
        }
      ],
      "stateMutability": "view",
      "type": "function"
    },
    {
      "inputs": [],
      "name": "symbol",
      "outputs": [
        {
          "internalType": "string",
          "name": "",
          "type": "string"
        }
      ],
      "stateMutability": "view",
      "type": "function"
    },
    {
      "inputs": [
        {
          "internalType": "uint256",
          "name": "index",
          "type": "uint256"
        }
      ],
      "name": "tokenByIndex",
      "outputs": [
        {
          "internalType": "uint256",
          "name": "",
          "type": "uint256"
        }
      ],
      "stateMutability": "view",
      "type": "function"
    },
    {
      "inputs": [
        {
          "internalType": "address",
          "name": "owner",
          "type": "address"
        },
        {
          "internalType": "uint256",
          "name": "index",
          "type": "uint256"
        }
      ],
      "name": "tokenOfOwnerByIndex",
      "outputs": [
        {
          "internalType": "uint256",
          "name": "",
          "type": "uint256"
        }
      ],
      "stateMutability": "view",
      "type": "function"
    },
    {
      "inputs": [
        {
          "internalType": "uint256",
          "name": "tokenId",
          "type": "uint256"
        }
      ],
      "name": "tokenURI",
      "outputs": [
        {
          "internalType": "string",
          "name": "",
          "type": "string"
        }
      ],
      "stateMutability": "view",
      "type": "function"
    },
    {
      "inputs": [],
      "name": "totalSupply",
      "outputs": [
        {
          "internalType": "uint256",
          "name": "",
          "type": "uint256"
        }
      ],
      "stateMutability": "view",
      "type": "function"
    },
    {
      "inputs": [
        {
          "internalType": "address",
          "name": "from",
          "type": "address"
        },
        {
          "internalType": "address",
          "name": "to",
          "type": "address"
        },
        {
          "internalType": "uint256",
          "name": "tokenId",
          "type": "uint256"
        }
      ],
      "name": "transferFrom",
      "outputs": [],
      "stateMutability": "nonpayable",
      "type": "function"
    },
    {
      "inputs": [],
      "name": "unpause",
      "outputs": [],
      "stateMutability": "nonpayable",
      "type": "function"
    }
  ],
  "bytecode": "0x608060405260405180602001604052806000815250600d90805190602001906200002b929190620002b0565b503480156200003957600080fd5b50604051620052bd380380620052bd83398181016040528101906200005f9190620003d2565b8282816001908051906020019062000079929190620002b0565b50806002908051906020019062000092929190620002b0565b5050506000600b60006101000a81548160ff02191690831515021790555080600d9080519060200190620000c8929190620002b0565b50620000ed6000801b620000e16200013760201b60201c565b6200013f60201b60201c565b6200012e7f9f2df0fed2c77648de5860a4cc508cd0818c85b8b8a1ab4ceeef8d981c8956a6620001226200013760201b60201c565b6200013f60201b60201c565b505050620005e3565b600033905090565b6200015182826200015560201b60201c565b5050565b6200016782826200024660201b60201c565b6200024257600160008084815260200190815260200160002060000160008373ffffffffffffffffffffffffffffffffffffffff1673ffffffffffffffffffffffffffffffffffffffff16815260200190815260200160002060006101000a81548160ff021916908315150217905550620001e76200013760201b60201c565b73ffffffffffffffffffffffffffffffffffffffff168173ffffffffffffffffffffffffffffffffffffffff16837f2f8788117e7eff1d82e926ec794901d17c78024a50270940304540a733656f0d60405160405180910390a45b5050565b600080600084815260200190815260200160002060000160008373ffffffffffffffffffffffffffffffffffffffff1673ffffffffffffffffffffffffffffffffffffffff16815260200190815260200160002060009054906101000a900460ff16905092915050565b828054620002be9062000508565b90600052602060002090601f016020900481019282620002e257600085556200032e565b82601f10620002fd57805160ff19168380011785556200032e565b828001600101855582156200032e579182015b828111156200032d57825182559160200191906001019062000310565b5b5090506200033d919062000341565b5090565b5b808211156200035c57600081600090555060010162000342565b5090565b60006200037762000371846200049c565b62000473565b9050828152602081018484840111156200039057600080fd5b6200039d848285620004d2565b509392505050565b600082601f830112620003b757600080fd5b8151620003c984826020860162000360565b91505092915050565b600080600060608486031215620003e857600080fd5b600084015167ffffffffffffffff8111156200040357600080fd5b6200041186828701620003a5565b935050602084015167ffffffffffffffff8111156200042f57600080fd5b6200043d86828701620003a5565b925050604084015167ffffffffffffffff8111156200045b57600080fd5b6200046986828701620003a5565b9150509250925092565b60006200047f62000492565b90506200048d82826200053e565b919050565b6000604051905090565b600067ffffffffffffffff821115620004ba57620004b9620005a3565b5b620004c582620005d2565b9050602081019050919050565b60005b83811015620004f2578082015181840152602081019050620004d5565b8381111562000502576000848401525b50505050565b600060028204905060018216806200052157607f821691505b6020821081141562000538576200053762000574565b5b50919050565b6200054982620005d2565b810181811067ffffffffffffffff821117156200056b576200056a620005a3565b5b80604052505050565b7f4e487b7100000000000000000000000000000000000000000000000000000000600052602260045260246000fd5b7f4e487b7100000000000000000000000000000000000000000000000000000000600052604160045260246000fd5b6000601f19601f8301169050919050565b614cca80620005f36000396000f3fe608060405234801561001057600080fd5b50600436106101fb5760003560e01c80635364d7791161011a5780639abc8320116100ad578063b88d4fde1161007c578063b88d4fde146105e8578063c87b56dd14610604578063d539139314610634578063d547741f14610652578063e985e9c51461066e576101fb565b80639abc832014610574578063a0bcfc7f14610592578063a217fddf146105ae578063a22cb465146105cc576101fb565b806370a08231116100e957806370a08231146104ec5780638456cb591461051c57806391d148541461052657806395d89b4114610556576101fb565b80635364d7791461043e5780635c975abb1461046e5780636352211e1461048c5780636a627842146104bc576101fb565b80632f745c591161019257806340398d671161016157806340398d67146103a657806342842e0e146103d657806342966c68146103f25780634f6ccce71461040e576101fb565b80632f745c591461032057806332f9c7f51461035057806336568abe146103805780633f4ba83a1461039c576101fb565b806318160ddd116101ce57806318160ddd1461029a57806323b872dd146102b8578063248a9ca3146102d45780632f2ff15d14610304576101fb565b806301ffc9a71461020057806306fdde0314610230578063081812fc1461024e578063095ea7b31461027e575b600080fd5b61021a600480360381019061021591906137b6565b61069e565b6040516102279190613f24565b60405180910390f35b6102386106b0565b6040516102459190613f5a565b60405180910390f35b61026860048036038101906102639190613849565b610742565b6040516102759190613e79565b60405180910390f35b610298600480360381019061029391906136d4565b610788565b005b6102a26108a0565b6040516102af91906141bc565b60405180910390f35b6102d260048036038101906102cd91906135ce565b6108ad565b005b6102ee60048036038101906102e99190613751565b61090d565b6040516102fb9190613f3f565b60405180910390f35b61031e6004803603810190610319919061377a565b61092c565b005b61033a600480360381019061033591906136d4565b61094d565b60405161034791906141bc565b60405180910390f35b61036a60048036038101906103659190613710565b6109f2565b6040516103779190613f02565b60405180910390f35b61039a6004803603810190610395919061377a565b610bd4565b005b6103a4610c57565b005b6103c060048036038101906103bb9190613569565b610cde565b6040516103cd9190613f02565b60405180910390f35b6103f060048036038101906103eb91906135ce565b610dd8565b005b61040c60048036038101906104079190613849565b610df8565b005b61042860048036038101906104239190613849565b610e54565b60405161043591906141bc565b60405180910390f35b61045860048036038101906104539190613569565b610eeb565b6040516104659190613ee0565b60405180910390f35b61047661104b565b6040516104839190613f24565b60405180910390f35b6104a660048036038101906104a19190613849565b611062565b6040516104b39190613e79565b60405180910390f35b6104d660048036038101906104d19190613569565b611114565b6040516104e391906141bc565b60405180910390f35b61050660048036038101906105019190613569565b6111db565b60405161051391906141bc565b60405180910390f35b610524611293565b005b610540600480360381019061053b919061377a565b61131a565b60405161054d9190613f24565b60405180910390f35b61055e611384565b60405161056b9190613f5a565b60405180910390f35b61057c611416565b6040516105899190613f5a565b60405180910390f35b6105ac60048036038101906105a79190613808565b6114a4565b005b6105b661153b565b6040516105c39190613f3f565b60405180910390f35b6105e660048036038101906105e19190613698565b611542565b005b61060260048036038101906105fd919061361d565b611558565b005b61061e60048036038101906106199190613849565b6115ba565b60405161062b9190613f5a565b60405180910390f35b61063c611622565b6040516106499190613f3f565b60405180910390f35b61066c6004803603810190610667919061377a565b611646565b005b61068860048036038101906106839190613592565b611667565b6040516106959190613f24565b60405180910390f35b60006106a9826116fb565b9050919050565b6060600180546106bf9061454f565b80601f01602080910402602001604051908101604052809291908181526020018280546106eb9061454f565b80156107385780601f1061070d57610100808354040283529160200191610738565b820191906000526020600020905b81548152906001019060200180831161071b57829003601f168201915b5050505050905090565b600061074d82611775565b6005600083815260200190815260200160002060009054906101000a900473ffffffffffffffffffffffffffffffffffffffff169050919050565b600061079382611062565b90508073ffffffffffffffffffffffffffffffffffffffff168373ffffffffffffffffffffffffffffffffffffffff161415610804576040517f08c379a00000000000000000000000000000000000000000000000000000000081526004016107fb9061413c565b60405180910390fd5b8073ffffffffffffffffffffffffffffffffffffffff166108236117c0565b73ffffffffffffffffffffffffffffffffffffffff16148061085257506108518161084c6117c0565b611667565b5b610891576040517f08c379a0000000000000000000000000000000000000000000000000000000008152600401610888906140dc565b60405180910390fd5b61089b83836117c8565b505050565b6000600980549050905090565b6108be6108b86117c0565b82611881565b6108fd576040517f08c379a00000000000000000000000000000000000000000000000000000000081526004016108f49061417c565b60405180910390fd5b610908838383611916565b505050565b6000806000838152602001908152602001600020600101549050919050565b6109358261090d565b61093e81611b7d565b6109488383611b91565b505050565b6000610958836111db565b8210610999576040517f08c379a000000000000000000000000000000000000000000000000000000000815260040161099090613fdc565b60405180910390fd5b600760008473ffffffffffffffffffffffffffffffffffffffff1673ffffffffffffffffffffffffffffffffffffffff168152602001908152602001600020600083815260200190815260200160002054905092915050565b6060610a257f9f2df0fed2c77648de5860a4cc508cd0818c85b8b8a1ab4ceeef8d981c8956a6610a206117c0565b61131a565b610a2d611384565b604051602001610a3d9190613e1d565b60405160208183030381529060405290610a8d576040517f08c379a0000000000000000000000000000000000000000000000000000000008152600401610a849190613f5a565b60405180910390fd5b506000825167ffffffffffffffff811115610ad1577f4e487b7100000000000000000000000000000000000000000000000000000000600052604160045260246000fd5b604051908082528060200260200182016040528015610aff5781602001602082028036833780820191505090505b50905060005b8351811015610bca57610b18600c611c71565b6000610b24600c611c87565b9050610b70858381518110610b62577f4e487b7100000000000000000000000000000000000000000000000000000000600052603260045260246000fd5b602002602001015182611c95565b80838381518110610baa577f4e487b7100000000000000000000000000000000000000000000000000000000600052603260045260246000fd5b602002602001018181525050508080610bc2906145b2565b915050610b05565b5080915050919050565b610bdc6117c0565b73ffffffffffffffffffffffffffffffffffffffff168173ffffffffffffffffffffffffffffffffffffffff1614610c49576040517f08c379a0000000000000000000000000000000000000000000000000000000008152600401610c409061419c565b60405180910390fd5b610c538282611cb3565b5050565b610c6b6000801b610c666117c0565b61131a565b610c73611384565b604051602001610c839190613dfb565b60405160208183030381529060405290610cd3576040517f08c379a0000000000000000000000000000000000000000000000000000000008152600401610cca9190613f5a565b60405180910390fd5b50610cdc611d94565b565b60606000610ceb836111db565b905060008167ffffffffffffffff811115610d2f577f4e487b7100000000000000000000000000000000000000000000000000000000600052604160045260246000fd5b604051908082528060200260200182016040528015610d5d5781602001602082028036833780820191505090505b50905060005b82811015610dcd57610d75858261094d565b828281518110610dae577f4e487b7100000000000000000000000000000000000000000000000000000000600052603260045260246000fd5b6020026020010181815250508080610dc5906145b2565b915050610d63565b508092505050919050565b610df383838360405180602001604052806000815250611558565b505050565b610e09610e036117c0565b82611881565b610e48576040517f08c379a0000000000000000000000000000000000000000000000000000000008152600401610e3f9061417c565b60405180910390fd5b610e5181611df7565b50565b6000610e5e6108a0565b8210610e9f576040517f08c379a0000000000000000000000000000000000000000000000000000000008152600401610e969061415c565b60405180910390fd5b60098281548110610ed9577f4e487b7100000000000000000000000000000000000000000000000000000000600052603260045260246000fd5b90600052602060002001549050919050565b60606000610ef8836111db565b905060008167ffffffffffffffff811115610f3c577f4e487b7100000000000000000000000000000000000000000000000000000000600052604160045260246000fd5b604051908082528060200260200182016040528015610f7557816020015b610f626132c8565b815260200190600190039081610f5a5790505b50905060005b82811015611040576000610f8f868361094d565b905080838381518110610fcb577f4e487b7100000000000000000000000000000000000000000000000000000000600052603260045260246000fd5b60200260200101516000018181525050610fe4816115ba565b83838151811061101d577f4e487b7100000000000000000000000000000000000000000000000000000000600052603260045260246000fd5b602002602001015160200181905250508080611038906145b2565b915050610f7b565b508092505050919050565b6000600b60009054906101000a900460ff16905090565b6000806003600084815260200190815260200160002060009054906101000a900473ffffffffffffffffffffffffffffffffffffffff169050600073ffffffffffffffffffffffffffffffffffffffff168173ffffffffffffffffffffffffffffffffffffffff16141561110b576040517f08c379a00000000000000000000000000000000000000000000000000000000081526004016111029061411c565b60405180910390fd5b80915050919050565b60006111477f9f2df0fed2c77648de5860a4cc508cd0818c85b8b8a1ab4ceeef8d981c8956a66111426117c0565b61131a565b61114f611384565b60405160200161115f9190613e1d565b604051602081830303815290604052906111af576040517f08c379a00000000000000000000000000000000000000000000000000000000081526004016111a69190613f5a565b60405180910390fd5b506111ba600c611c71565b60006111c6600c611c87565b90506111d28382611c95565b80915050919050565b60008073ffffffffffffffffffffffffffffffffffffffff168273ffffffffffffffffffffffffffffffffffffffff16141561124c576040517f08c379a0000000000000000000000000000000000000000000000000000000008152600401611243906140bc565b60405180910390fd5b600460008373ffffffffffffffffffffffffffffffffffffffff1673ffffffffffffffffffffffffffffffffffffffff168152602001908152602001600020549050919050565b6112a76000801b6112a26117c0565b61131a565b6112af611384565b6040516020016112bf9190613dfb565b6040516020818303038152906040529061130f576040517f08c379a00000000000000000000000000000000000000000000000000000000081526004016113069190613f5a565b60405180910390fd5b50611318611f14565b565b600080600084815260200190815260200160002060000160008373ffffffffffffffffffffffffffffffffffffffff1673ffffffffffffffffffffffffffffffffffffffff16815260200190815260200160002060009054906101000a900460ff16905092915050565b6060600280546113939061454f565b80601f01602080910402602001604051908101604052809291908181526020018280546113bf9061454f565b801561140c5780601f106113e15761010080835404028352916020019161140c565b820191906000526020600020905b8154815290600101906020018083116113ef57829003601f168201915b5050505050905090565b600d80546114239061454f565b80601f016020809104026020016040519081016040528092919081815260200182805461144f9061454f565b801561149c5780601f106114715761010080835404028352916020019161149c565b820191906000526020600020905b81548152906001019060200180831161147f57829003601f168201915b505050505081565b6114b86000801b6114b36117c0565b61131a565b6114c0611384565b6040516020016114d09190613dfb565b60405160208183030381529060405290611520576040517f08c379a00000000000000000000000000000000000000000000000000000000081526004016115179190613f5a565b60405180910390fd5b5080600d90805190602001906115379291906132e2565b5050565b6000801b81565b61155461154d6117c0565b8383611f77565b5050565b6115696115636117c0565b83611881565b6115a8576040517f08c379a000000000000000000000000000000000000000000000000000000000815260040161159f9061417c565b60405180910390fd5b6115b4848484846120e4565b50505050565b60606115c582611775565b60006115cf612140565b905060008151116115ef576040518060200160405280600081525061161a565b806115f9846121d2565b60405160200161160a929190613dd7565b6040516020818303038152906040525b915050919050565b7f9f2df0fed2c77648de5860a4cc508cd0818c85b8b8a1ab4ceeef8d981c8956a681565b61164f8261090d565b61165881611b7d565b6116628383611cb3565b505050565b6000600660008473ffffffffffffffffffffffffffffffffffffffff1673ffffffffffffffffffffffffffffffffffffffff16815260200190815260200160002060008373ffffffffffffffffffffffffffffffffffffffff1673ffffffffffffffffffffffffffffffffffffffff16815260200190815260200160002060009054906101000a900460ff16905092915050565b60007f780e9d63000000000000000000000000000000000000000000000000000000007bffffffffffffffffffffffffffffffffffffffffffffffffffffffff1916827bffffffffffffffffffffffffffffffffffffffffffffffffffffffff1916148061176e575061176d8261237f565b5b9050919050565b61177e81612461565b6117bd576040517f08c379a00000000000000000000000000000000000000000000000000000000081526004016117b49061411c565b60405180910390fd5b50565b600033905090565b816005600083815260200190815260200160002060006101000a81548173ffffffffffffffffffffffffffffffffffffffff021916908373ffffffffffffffffffffffffffffffffffffffff160217905550808273ffffffffffffffffffffffffffffffffffffffff1661183b83611062565b73ffffffffffffffffffffffffffffffffffffffff167f8c5be1e5ebec7d5bd14f71427d1e84f3dd0314c0f7b2291e5b200ac8c7c3b92560405160405180910390a45050565b60008061188d83611062565b90508073ffffffffffffffffffffffffffffffffffffffff168473ffffffffffffffffffffffffffffffffffffffff1614806118cf57506118ce8185611667565b5b8061190d57508373ffffffffffffffffffffffffffffffffffffffff166118f584610742565b73ffffffffffffffffffffffffffffffffffffffff16145b91505092915050565b8273ffffffffffffffffffffffffffffffffffffffff1661193682611062565b73ffffffffffffffffffffffffffffffffffffffff161461198c576040517f08c379a00000000000000000000000000000000000000000000000000000000081526004016119839061401c565b60405180910390fd5b600073ffffffffffffffffffffffffffffffffffffffff168273ffffffffffffffffffffffffffffffffffffffff1614156119fc576040517f08c379a00000000000000000000000000000000000000000000000000000000081526004016119f39061405c565b60405180910390fd5b611a078383836124cd565b611a126000826117c8565b6001600460008573ffffffffffffffffffffffffffffffffffffffff1673ffffffffffffffffffffffffffffffffffffffff1681526020019081526020016000206000828254611a629190614431565b925050819055506001600460008473ffffffffffffffffffffffffffffffffffffffff1673ffffffffffffffffffffffffffffffffffffffff1681526020019081526020016000206000828254611ab99190614350565b92505081905550816003600083815260200190815260200160002060006101000a81548173ffffffffffffffffffffffffffffffffffffffff021916908373ffffffffffffffffffffffffffffffffffffffff160217905550808273ffffffffffffffffffffffffffffffffffffffff168473ffffffffffffffffffffffffffffffffffffffff167fddf252ad1be2c89b69c2b068fc378daa952ba7f163c4a11628f55a4df523b3ef60405160405180910390a4611b788383836124dd565b505050565b611b8e81611b896117c0565b6124e2565b50565b611b9b828261131a565b611c6d57600160008084815260200190815260200160002060000160008373ffffffffffffffffffffffffffffffffffffffff1673ffffffffffffffffffffffffffffffffffffffff16815260200190815260200160002060006101000a81548160ff021916908315150217905550611c126117c0565b73ffffffffffffffffffffffffffffffffffffffff168173ffffffffffffffffffffffffffffffffffffffff16837f2f8788117e7eff1d82e926ec794901d17c78024a50270940304540a733656f0d60405160405180910390a45b5050565b6001816000016000828254019250508190555050565b600081600001549050919050565b611caf82826040518060200160405280600081525061257f565b5050565b611cbd828261131a565b15611d9057600080600084815260200190815260200160002060000160008373ffffffffffffffffffffffffffffffffffffffff1673ffffffffffffffffffffffffffffffffffffffff16815260200190815260200160002060006101000a81548160ff021916908315150217905550611d356117c0565b73ffffffffffffffffffffffffffffffffffffffff168173ffffffffffffffffffffffffffffffffffffffff16837ff6391f5c32d9c69d2a47ea670b442974b53935d1edc7fd64eb21e047a839171b60405160405180910390a45b5050565b611d9c6125da565b6000600b60006101000a81548160ff0219169083151502179055507f5db9ee0a495bf2e6ff9c91a7834c1ba4fdd244a5e8aa4e537bd38aeae4b073aa611de06117c0565b604051611ded9190613e79565b60405180910390a1565b6000611e0282611062565b9050611e10816000846124cd565b611e1b6000836117c8565b6001600460008373ffffffffffffffffffffffffffffffffffffffff1673ffffffffffffffffffffffffffffffffffffffff1681526020019081526020016000206000828254611e6b9190614431565b925050819055506003600083815260200190815260200160002060006101000a81549073ffffffffffffffffffffffffffffffffffffffff021916905581600073ffffffffffffffffffffffffffffffffffffffff168273ffffffffffffffffffffffffffffffffffffffff167fddf252ad1be2c89b69c2b068fc378daa952ba7f163c4a11628f55a4df523b3ef60405160405180910390a4611f10816000846124dd565b5050565b611f1c612623565b6001600b60006101000a81548160ff0219169083151502179055507f62e78cea01bee320cd4e420270b5ea74000d11b0c9f74754ebdbfc544b05a258611f606117c0565b604051611f6d9190613e79565b60405180910390a1565b8173ffffffffffffffffffffffffffffffffffffffff168373ffffffffffffffffffffffffffffffffffffffff161415611fe6576040517f08c379a0000000000000000000000000000000000000000000000000000000008152600401611fdd9061407c565b60405180910390fd5b80600660008573ffffffffffffffffffffffffffffffffffffffff1673ffffffffffffffffffffffffffffffffffffffff16815260200190815260200160002060008473ffffffffffffffffffffffffffffffffffffffff1673ffffffffffffffffffffffffffffffffffffffff16815260200190815260200160002060006101000a81548160ff0219169083151502179055508173ffffffffffffffffffffffffffffffffffffffff168373ffffffffffffffffffffffffffffffffffffffff167f17307eab39ab6107e8899845ad3d59bd9653f200f220920489ca2b5937696c31836040516120d79190613f24565b60405180910390a3505050565b6120ef848484611916565b6120fb8484848461266d565b61213a576040517f08c379a000000000000000000000000000000000000000000000000000000000815260040161213190613ffc565b60405180910390fd5b50505050565b6060600d805461214f9061454f565b80601f016020809104026020016040519081016040528092919081815260200182805461217b9061454f565b80156121c85780601f1061219d576101008083540402835291602001916121c8565b820191906000526020600020905b8154815290600101906020018083116121ab57829003601f168201915b5050505050905090565b6060600082141561221a576040518060400160405280600181526020017f3000000000000000000000000000000000000000000000000000000000000000815250905061237a565b600082905060005b6000821461224c578080612235906145b2565b915050600a8261224591906143a6565b9150612222565b60008167ffffffffffffffff81111561228e577f4e487b7100000000000000000000000000000000000000000000000000000000600052604160045260246000fd5b6040519080825280601f01601f1916602001820160405280156122c05781602001600182028036833780820191505090505b5090505b60008514612373576001826122d99190614431565b9150600a856122e891906145fb565b60306122f49190614350565b60f81b818381518110612330577f4e487b7100000000000000000000000000000000000000000000000000000000600052603260045260246000fd5b60200101907effffffffffffffffffffffffffffffffffffffffffffffffffffffffffffff1916908160001a905350600a8561236c91906143a6565b94506122c4565b8093505050505b919050565b60007f80ac58cd000000000000000000000000000000000000000000000000000000007bffffffffffffffffffffffffffffffffffffffffffffffffffffffff1916827bffffffffffffffffffffffffffffffffffffffffffffffffffffffff1916148061244a57507f5b5e139f000000000000000000000000000000000000000000000000000000007bffffffffffffffffffffffffffffffffffffffffffffffffffffffff1916827bffffffffffffffffffffffffffffffffffffffffffffffffffffffff1916145b8061245a575061245982612804565b5b9050919050565b60008073ffffffffffffffffffffffffffffffffffffffff166003600084815260200190815260200160002060009054906101000a900473ffffffffffffffffffffffffffffffffffffffff1673ffffffffffffffffffffffffffffffffffffffff1614159050919050565b6124d883838361287e565b505050565b505050565b6124ec828261131a565b61257b576125118173ffffffffffffffffffffffffffffffffffffffff1660146128d6565b61251f8360001c60206128d6565b604051602001612530929190613e3f565b6040516020818303038152906040526040517f08c379a00000000000000000000000000000000000000000000000000000000081526004016125729190613f5a565b60405180910390fd5b5050565b6125898383612bd0565b612596600084848461266d565b6125d5576040517f08c379a00000000000000000000000000000000000000000000000000000000081526004016125cc90613ffc565b60405180910390fd5b505050565b6125e261104b565b612621576040517f08c379a000000000000000000000000000000000000000000000000000000000815260040161261890613fbc565b60405180910390fd5b565b61262b61104b565b1561266b576040517f08c379a00000000000000000000000000000000000000000000000000000000081526004016126629061409c565b60405180910390fd5b565b600061268e8473ffffffffffffffffffffffffffffffffffffffff16612daa565b156127f7578373ffffffffffffffffffffffffffffffffffffffff1663150b7a026126b76117c0565b8786866040518563ffffffff1660e01b81526004016126d99493929190613e94565b602060405180830381600087803b1580156126f357600080fd5b505af192505050801561272457506040513d601f19601f8201168201806040525081019061272191906137df565b60015b6127a7573d8060008114612754576040519150601f19603f3d011682016040523d82523d6000602084013e612759565b606091505b5060008151141561279f576040517f08c379a000000000000000000000000000000000000000000000000000000000815260040161279690613ffc565b60405180910390fd5b805181602001fd5b63150b7a0260e01b7bffffffffffffffffffffffffffffffffffffffffffffffffffffffff1916817bffffffffffffffffffffffffffffffffffffffffffffffffffffffff1916149150506127fc565b600190505b949350505050565b60007f7965db0b000000000000000000000000000000000000000000000000000000007bffffffffffffffffffffffffffffffffffffffffffffffffffffffff1916827bffffffffffffffffffffffffffffffffffffffffffffffffffffffff19161480612877575061287682612dcd565b5b9050919050565b612889838383612e37565b61289161104b565b156128d1576040517f08c379a00000000000000000000000000000000000000000000000000000000081526004016128c890613f9c565b60405180910390fd5b505050565b6060600060028360026128e991906143d7565b6128f39190614350565b67ffffffffffffffff811115612932577f4e487b7100000000000000000000000000000000000000000000000000000000600052604160045260246000fd5b6040519080825280601f01601f1916602001820160405280156129645781602001600182028036833780820191505090505b5090507f3000000000000000000000000000000000000000000000000000000000000000816000815181106129c2577f4e487b7100000000000000000000000000000000000000000000000000000000600052603260045260246000fd5b60200101907effffffffffffffffffffffffffffffffffffffffffffffffffffffffffffff1916908160001a9053507f780000000000000000000000000000000000000000000000000000000000000081600181518110612a4c577f4e487b7100000000000000000000000000000000000000000000000000000000600052603260045260246000fd5b60200101907effffffffffffffffffffffffffffffffffffffffffffffffffffffffffffff1916908160001a90535060006001846002612a8c91906143d7565b612a969190614350565b90505b6001811115612b82577f3031323334353637383961626364656600000000000000000000000000000000600f861660108110612afe577f4e487b7100000000000000000000000000000000000000000000000000000000600052603260045260246000fd5b1a60f81b828281518110612b3b577f4e487b7100000000000000000000000000000000000000000000000000000000600052603260045260246000fd5b60200101907effffffffffffffffffffffffffffffffffffffffffffffffffffffffffffff1916908160001a905350600485901c945080612b7b90614525565b9050612a99565b5060008414612bc6576040517f08c379a0000000000000000000000000000000000000000000000000000000008152600401612bbd90613f7c565b60405180910390fd5b8091505092915050565b600073ffffffffffffffffffffffffffffffffffffffff168273ffffffffffffffffffffffffffffffffffffffff161415612c40576040517f08c379a0000000000000000000000000000000000000000000000000000000008152600401612c37906140fc565b60405180910390fd5b612c4981612461565b15612c89576040517f08c379a0000000000000000000000000000000000000000000000000000000008152600401612c809061403c565b60405180910390fd5b612c95600083836124cd565b6001600460008473ffffffffffffffffffffffffffffffffffffffff1673ffffffffffffffffffffffffffffffffffffffff1681526020019081526020016000206000828254612ce59190614350565b92505081905550816003600083815260200190815260200160002060006101000a81548173ffffffffffffffffffffffffffffffffffffffff021916908373ffffffffffffffffffffffffffffffffffffffff160217905550808273ffffffffffffffffffffffffffffffffffffffff16600073ffffffffffffffffffffffffffffffffffffffff167fddf252ad1be2c89b69c2b068fc378daa952ba7f163c4a11628f55a4df523b3ef60405160405180910390a4612da6600083836124dd565b5050565b6000808273ffffffffffffffffffffffffffffffffffffffff163b119050919050565b60007f01ffc9a7000000000000000000000000000000000000000000000000000000007bffffffffffffffffffffffffffffffffffffffffffffffffffffffff1916827bffffffffffffffffffffffffffffffffffffffffffffffffffffffff1916149050919050565b612e42838383612f4b565b600073ffffffffffffffffffffffffffffffffffffffff168373ffffffffffffffffffffffffffffffffffffffff161415612e8557612e8081612f50565b612ec4565b8173ffffffffffffffffffffffffffffffffffffffff168373ffffffffffffffffffffffffffffffffffffffff1614612ec357612ec28382612f99565b5b5b600073ffffffffffffffffffffffffffffffffffffffff168273ffffffffffffffffffffffffffffffffffffffff161415612f0757612f0281613106565b612f46565b8273ffffffffffffffffffffffffffffffffffffffff168273ffffffffffffffffffffffffffffffffffffffff1614612f4557612f448282613249565b5b5b505050565b505050565b600980549050600a600083815260200190815260200160002081905550600981908060018154018082558091505060019003906000526020600020016000909190919091505550565b60006001612fa6846111db565b612fb09190614431565b9050600060086000848152602001908152602001600020549050818114613095576000600760008673ffffffffffffffffffffffffffffffffffffffff1673ffffffffffffffffffffffffffffffffffffffff168152602001908152602001600020600084815260200190815260200160002054905080600760008773ffffffffffffffffffffffffffffffffffffffff1673ffffffffffffffffffffffffffffffffffffffff168152602001908152602001600020600084815260200190815260200160002081905550816008600083815260200190815260200160002081905550505b6008600084815260200190815260200160002060009055600760008573ffffffffffffffffffffffffffffffffffffffff1673ffffffffffffffffffffffffffffffffffffffff16815260200190815260200160002060008381526020019081526020016000206000905550505050565b6000600160098054905061311a9190614431565b90506000600a6000848152602001908152602001600020549050600060098381548110613170577f4e487b7100000000000000000000000000000000000000000000000000000000600052603260045260246000fd5b9060005260206000200154905080600983815481106131b8577f4e487b7100000000000000000000000000000000000000000000000000000000600052603260045260246000fd5b906000526020600020018190555081600a600083815260200190815260200160002081905550600a600085815260200190815260200160002060009055600980548061322d577f4e487b7100000000000000000000000000000000000000000000000000000000600052603160045260246000fd5b6001900381819060005260206000200160009055905550505050565b6000613254836111db565b905081600760008573ffffffffffffffffffffffffffffffffffffffff1673ffffffffffffffffffffffffffffffffffffffff168152602001908152602001600020600083815260200190815260200160002081905550806008600084815260200190815260200160002081905550505050565b604051806040016040528060008152602001606081525090565b8280546132ee9061454f565b90600052602060002090601f0160209004810192826133105760008555613357565b82601f1061332957805160ff1916838001178555613357565b82800160010185558215613357579182015b8281111561335657825182559160200191906001019061333b565b5b5090506133649190613368565b5090565b5b80821115613381576000816000905550600101613369565b5090565b6000613398613393846141fc565b6141d7565b905080838252602082019050828560208602820111156133b757600080fd5b60005b858110156133e757816133cd888261346d565b8452602084019350602083019250506001810190506133ba565b5050509392505050565b60006134046133ff84614228565b6141d7565b90508281526020810184848401111561341c57600080fd5b6134278482856144e3565b509392505050565b600061344261343d84614259565b6141d7565b90508281526020810184848401111561345a57600080fd5b6134658482856144e3565b509392505050565b60008135905061347c81614c21565b92915050565b600082601f83011261349357600080fd5b81356134a3848260208601613385565b91505092915050565b6000813590506134bb81614c38565b92915050565b6000813590506134d081614c4f565b92915050565b6000813590506134e581614c66565b92915050565b6000815190506134fa81614c66565b92915050565b600082601f83011261351157600080fd5b81356135218482602086016133f1565b91505092915050565b600082601f83011261353b57600080fd5b813561354b84826020860161342f565b91505092915050565b60008135905061356381614c7d565b92915050565b60006020828403121561357b57600080fd5b60006135898482850161346d565b91505092915050565b600080604083850312156135a557600080fd5b60006135b38582860161346d565b92505060206135c48582860161346d565b9150509250929050565b6000806000606084860312156135e357600080fd5b60006135f18682870161346d565b93505060206136028682870161346d565b925050604061361386828701613554565b9150509250925092565b6000806000806080858703121561363357600080fd5b60006136418782880161346d565b94505060206136528782880161346d565b935050604061366387828801613554565b925050606085013567ffffffffffffffff81111561368057600080fd5b61368c87828801613500565b91505092959194509250565b600080604083850312156136ab57600080fd5b60006136b98582860161346d565b92505060206136ca858286016134ac565b9150509250929050565b600080604083850312156136e757600080fd5b60006136f58582860161346d565b925050602061370685828601613554565b9150509250929050565b60006020828403121561372257600080fd5b600082013567ffffffffffffffff81111561373c57600080fd5b61374884828501613482565b91505092915050565b60006020828403121561376357600080fd5b6000613771848285016134c1565b91505092915050565b6000806040838503121561378d57600080fd5b600061379b858286016134c1565b92505060206137ac8582860161346d565b9150509250929050565b6000602082840312156137c857600080fd5b60006137d6848285016134d6565b91505092915050565b6000602082840312156137f157600080fd5b60006137ff848285016134eb565b91505092915050565b60006020828403121561381a57600080fd5b600082013567ffffffffffffffff81111561383457600080fd5b6138408482850161352a565b91505092915050565b60006020828403121561385b57600080fd5b600061386984828501613554565b91505092915050565b600061387e8383613d7c565b905092915050565b60006138928383613db9565b60208301905092915050565b6138a781614465565b82525050565b60006138b8826142aa565b6138c281856142f0565b9350836020820285016138d48561428a565b8060005b8581101561391057848403895281516138f18582613872565b94506138fc836142d6565b925060208a019950506001810190506138d8565b50829750879550505050505092915050565b600061392d826142b5565b6139378185614301565b93506139428361429a565b8060005b8381101561397357815161395a8882613886565b9750613965836142e3565b925050600181019050613946565b5085935050505092915050565b61398981614477565b82525050565b61399881614483565b82525050565b60006139a9826142c0565b6139b38185614312565b93506139c38185602086016144f2565b6139cc816146e8565b840191505092915050565b60006139e2826142cb565b6139ec8185614323565b93506139fc8185602086016144f2565b613a05816146e8565b840191505092915050565b6000613a1b826142cb565b613a258185614334565b9350613a358185602086016144f2565b613a3e816146e8565b840191505092915050565b6000613a54826142cb565b613a5e8185614345565b9350613a6e8185602086016144f2565b80840191505092915050565b6000613a87602083614334565b9150613a92826146f9565b602082019050919050565b6000613aaa602b83614334565b9150613ab582614722565b604082019050919050565b6000613acd601483614334565b9150613ad882614771565b602082019050919050565b6000613af0602b83614334565b9150613afb8261479a565b604082019050919050565b6000613b13603283614334565b9150613b1e826147e9565b604082019050919050565b6000613b36602583614334565b9150613b4182614838565b604082019050919050565b6000613b59601c83614334565b9150613b6482614887565b602082019050919050565b6000613b7c602483614334565b9150613b87826148b0565b604082019050919050565b6000613b9f601983614334565b9150613baa826148ff565b602082019050919050565b6000613bc2601083614334565b9150613bcd82614928565b602082019050919050565b6000613be5602983614334565b9150613bf082614951565b604082019050919050565b6000613c08603e83614334565b9150613c13826149a0565b604082019050919050565b6000613c2b602083614334565b9150613c36826149ef565b602082019050919050565b6000613c4e601883614334565b9150613c5982614a18565b602082019050919050565b6000613c71602183614334565b9150613c7c82614a41565b604082019050919050565b6000613c94601583614345565b9150613c9f82614a90565b601582019050919050565b6000613cb7602c83614334565b9150613cc282614ab9565b604082019050919050565b6000613cda601783614345565b9150613ce582614b08565b601782019050919050565b6000613cfd601883614345565b9150613d0882614b31565b601882019050919050565b6000613d20602e83614334565b9150613d2b82614b5a565b604082019050919050565b6000613d43601183614345565b9150613d4e82614ba9565b601182019050919050565b6000613d66602f83614334565b9150613d7182614bd2565b604082019050919050565b6000604083016000830151613d946000860182613db9565b5060208301518482036020860152613dac82826139d7565b9150508091505092915050565b613dc2816144d9565b82525050565b613dd1816144d9565b82525050565b6000613de38285613a49565b9150613def8284613a49565b91508190509392505050565b6000613e078284613a49565b9150613e1282613c87565b915081905092915050565b6000613e298284613a49565b9150613e3482613cf0565b915081905092915050565b6000613e4a82613ccd565b9150613e568285613a49565b9150613e6182613d36565b9150613e6d8284613a49565b91508190509392505050565b6000602082019050613e8e600083018461389e565b92915050565b6000608082019050613ea9600083018761389e565b613eb6602083018661389e565b613ec36040830185613dc8565b8181036060830152613ed5818461399e565b905095945050505050565b60006020820190508181036000830152613efa81846138ad565b905092915050565b60006020820190508181036000830152613f1c8184613922565b905092915050565b6000602082019050613f396000830184613980565b92915050565b6000602082019050613f54600083018461398f565b92915050565b60006020820190508181036000830152613f748184613a10565b905092915050565b60006020820190508181036000830152613f9581613a7a565b9050919050565b60006020820190508181036000830152613fb581613a9d565b9050919050565b60006020820190508181036000830152613fd581613ac0565b9050919050565b60006020820190508181036000830152613ff581613ae3565b9050919050565b6000602082019050818103600083015261401581613b06565b9050919050565b6000602082019050818103600083015261403581613b29565b9050919050565b6000602082019050818103600083015261405581613b4c565b9050919050565b6000602082019050818103600083015261407581613b6f565b9050919050565b6000602082019050818103600083015261409581613b92565b9050919050565b600060208201905081810360008301526140b581613bb5565b9050919050565b600060208201905081810360008301526140d581613bd8565b9050919050565b600060208201905081810360008301526140f581613bfb565b9050919050565b6000602082019050818103600083015261411581613c1e565b9050919050565b6000602082019050818103600083015261413581613c41565b9050919050565b6000602082019050818103600083015261415581613c64565b9050919050565b6000602082019050818103600083015261417581613caa565b9050919050565b6000602082019050818103600083015261419581613d13565b9050919050565b600060208201905081810360008301526141b581613d59565b9050919050565b60006020820190506141d16000830184613dc8565b92915050565b60006141e16141f2565b90506141ed8282614581565b919050565b6000604051905090565b600067ffffffffffffffff821115614217576142166146b9565b5b602082029050602081019050919050565b600067ffffffffffffffff821115614243576142426146b9565b5b61424c826146e8565b9050602081019050919050565b600067ffffffffffffffff821115614274576142736146b9565b5b61427d826146e8565b9050602081019050919050565b6000819050602082019050919050565b6000819050602082019050919050565b600081519050919050565b600081519050919050565b600081519050919050565b600081519050919050565b6000602082019050919050565b6000602082019050919050565b600082825260208201905092915050565b600082825260208201905092915050565b600082825260208201905092915050565b600082825260208201905092915050565b600082825260208201905092915050565b600081905092915050565b600061435b826144d9565b9150614366836144d9565b9250827fffffffffffffffffffffffffffffffffffffffffffffffffffffffffffffffff0382111561439b5761439a61462c565b5b828201905092915050565b60006143b1826144d9565b91506143bc836144d9565b9250826143cc576143cb61465b565b5b828204905092915050565b60006143e2826144d9565b91506143ed836144d9565b9250817fffffffffffffffffffffffffffffffffffffffffffffffffffffffffffffffff04831182151516156144265761442561462c565b5b828202905092915050565b600061443c826144d9565b9150614447836144d9565b92508282101561445a5761445961462c565b5b828203905092915050565b6000614470826144b9565b9050919050565b60008115159050919050565b6000819050919050565b60007fffffffff0000000000000000000000000000000000000000000000000000000082169050919050565b600073ffffffffffffffffffffffffffffffffffffffff82169050919050565b6000819050919050565b82818337600083830152505050565b60005b838110156145105780820151818401526020810190506144f5565b8381111561451f576000848401525b50505050565b6000614530826144d9565b915060008214156145445761454361462c565b5b600182039050919050565b6000600282049050600182168061456757607f821691505b6020821081141561457b5761457a61468a565b5b50919050565b61458a826146e8565b810181811067ffffffffffffffff821117156145a9576145a86146b9565b5b80604052505050565b60006145bd826144d9565b91507fffffffffffffffffffffffffffffffffffffffffffffffffffffffffffffffff8214156145f0576145ef61462c565b5b600182019050919050565b6000614606826144d9565b9150614611836144d9565b9250826146215761462061465b565b5b828206905092915050565b7f4e487b7100000000000000000000000000000000000000000000000000000000600052601160045260246000fd5b7f4e487b7100000000000000000000000000000000000000000000000000000000600052601260045260246000fd5b7f4e487b7100000000000000000000000000000000000000000000000000000000600052602260045260246000fd5b7f4e487b7100000000000000000000000000000000000000000000000000000000600052604160045260246000fd5b6000601f19601f8301169050919050565b7f537472696e67733a20686578206c656e67746820696e73756666696369656e74600082015250565b7f4552433732315061757361626c653a20746f6b656e207472616e73666572207760008201527f68696c6520706175736564000000000000000000000000000000000000000000602082015250565b7f5061757361626c653a206e6f7420706175736564000000000000000000000000600082015250565b7f455243373231456e756d657261626c653a206f776e657220696e646578206f7560008201527f74206f6620626f756e6473000000000000000000000000000000000000000000602082015250565b7f4552433732313a207472616e7366657220746f206e6f6e20455243373231526560008201527f63656976657220696d706c656d656e7465720000000000000000000000000000602082015250565b7f4552433732313a207472616e736665722066726f6d20696e636f72726563742060008201527f6f776e6572000000000000000000000000000000000000000000000000000000602082015250565b7f4552433732313a20746f6b656e20616c7265616479206d696e74656400000000600082015250565b7f4552433732313a207472616e7366657220746f20746865207a65726f2061646460008201527f7265737300000000000000000000000000000000000000000000000000000000602082015250565b7f4552433732313a20617070726f766520746f2063616c6c657200000000000000600082015250565b7f5061757361626c653a2070617573656400000000000000000000000000000000600082015250565b7f4552433732313a2061646472657373207a65726f206973206e6f74206120766160008201527f6c6964206f776e65720000000000000000000000000000000000000000000000602082015250565b7f4552433732313a20617070726f76652063616c6c6572206973206e6f7420746f60008201527f6b656e206f776e6572206e6f7220617070726f76656420666f7220616c6c0000602082015250565b7f4552433732313a206d696e7420746f20746865207a65726f2061646472657373600082015250565b7f4552433732313a20696e76616c696420746f6b656e2049440000000000000000600082015250565b7f4552433732313a20617070726f76616c20746f2063757272656e74206f776e6560008201527f7200000000000000000000000000000000000000000000000000000000000000602082015250565b7f3a2063616c6c6572206973206e6f742061646d696e0000000000000000000000600082015250565b7f455243373231456e756d657261626c653a20676c6f62616c20696e646578206f60008201527f7574206f6620626f756e64730000000000000000000000000000000000000000602082015250565b7f416363657373436f6e74726f6c3a206163636f756e7420000000000000000000600082015250565b7f3a2043616c6c6572206973206e6f742061206d696e7465720000000000000000600082015250565b7f4552433732313a2063616c6c6572206973206e6f7420746f6b656e206f776e6560008201527f72206e6f7220617070726f766564000000000000000000000000000000000000602082015250565b7f206973206d697373696e6720726f6c6520000000000000000000000000000000600082015250565b7f416363657373436f6e74726f6c3a2063616e206f6e6c792072656e6f756e636560008201527f20726f6c657320666f722073656c660000000000000000000000000000000000602082015250565b614c2a81614465565b8114614c3557600080fd5b50565b614c4181614477565b8114614c4c57600080fd5b50565b614c5881614483565b8114614c6357600080fd5b50565b614c6f8161448d565b8114614c7a57600080fd5b50565b614c86816144d9565b8114614c9157600080fd5b5056fea26469706673582212208ae8d77454f2002021fee746483b8ad6442e231a8fe2d24e02a285cf6334373264736f6c63430008010033",
  "linkReferences": {},
  "deployedLinkReferences": {}
}