{
  "_format": "hh-sol-artifact-1",
  "contractName": "LabradoOperator",
  "sourceName": "contracts/LabradoOperator.sol",
  "abi": [
    {
      "inputs": [
        {
          "internalType": "address",
          "name": "_operatorWallet",
          "type": "address"
        }
      ],
      "stateMutability": "nonpayable",
      "type": "constructor"
    },
    {
      "anonymous": false,
      "inputs": [
        {
          "indexed": false,
          "internalType": "address",
          "name": "depositContract",
          "type": "address"
        },
        {
          "indexed": true,
          "internalType": "address",
          "name": "from",
          "type": "address"
        },
        {
          "indexed": false,
          "internalType": "uint256",
          "name": "tokenId",
          "type": "uint256"
        }
      ],
      "name": "DepositNFT",
      "type": "event"
    },
    {
      "anonymous": false,
      "inputs": [
        {
          "indexed": false,
          "internalType": "address",
          "name": "depositContract",
          "type": "address"
        },
        {
          "indexed": true,
          "internalType": "address",
          "name": "from",
          "type": "address"
        },
        {
          "indexed": false,
          "internalType": "uint256",
          "name": "value",
          "type": "uint256"
        }
      ],
      "name": "DepositToken",
      "type": "event"
    },
    {
      "anonymous": false,
      "inputs": [
        {
          "indexed": true,
          "internalType": "bytes32",
          "name": "role",
          "type": "bytes32"
        },
        {
          "indexed": true,
          "internalType": "bytes32",
          "name": "previousAdminRole",
          "type": "bytes32"
        },
        {
          "indexed": true,
          "internalType": "bytes32",
          "name": "newAdminRole",
          "type": "bytes32"
        }
      ],
      "name": "RoleAdminChanged",
      "type": "event"
    },
    {
      "anonymous": false,
      "inputs": [
        {
          "indexed": true,
          "internalType": "bytes32",
          "name": "role",
          "type": "bytes32"
        },
        {
          "indexed": true,
          "internalType": "address",
          "name": "account",
          "type": "address"
        },
        {
          "indexed": true,
          "internalType": "address",
          "name": "sender",
          "type": "address"
        }
      ],
      "name": "RoleGranted",
      "type": "event"
    },
    {
      "anonymous": false,
      "inputs": [
        {
          "indexed": true,
          "internalType": "bytes32",
          "name": "role",
          "type": "bytes32"
        },
        {
          "indexed": true,
          "internalType": "address",
          "name": "account",
          "type": "address"
        },
        {
          "indexed": true,
          "internalType": "address",
          "name": "sender",
          "type": "address"
        }
      ],
      "name": "RoleRevoked",
      "type": "event"
    },
    {
      "inputs": [],
      "name": "DEFAULT_ADMIN_ROLE",
      "outputs": [
        {
          "internalType": "bytes32",
          "name": "",
          "type": "bytes32"
        }
      ],
      "stateMutability": "view",
      "type": "function"
    },
    {
      "inputs": [
        {
          "internalType": "address",
          "name": "_nft",
          "type": "address"
        },
        {
          "internalType": "uint256",
          "name": "_tokenId",
          "type": "uint256"
        }
      ],
      "name": "depositNFT",
      "outputs": [],
      "stateMutability": "nonpayable",
      "type": "function"
    },
    {
      "inputs": [
        {
          "internalType": "address",
          "name": "_token",
          "type": "address"
        },
        {
          "internalType": "uint256",
          "name": "_amount",
          "type": "uint256"
        }
      ],
      "name": "depositToken",
      "outputs": [],
      "stateMutability": "payable",
      "type": "function"
    },
    {
      "inputs": [
        {
          "internalType": "bytes32",
          "name": "role",
          "type": "bytes32"
        }
      ],
      "name": "getRoleAdmin",
      "outputs": [
        {
          "internalType": "bytes32",
          "name": "",
          "type": "bytes32"
        }
      ],
      "stateMutability": "view",
      "type": "function"
    },
    {
      "inputs": [
        {
          "internalType": "bytes32",
          "name": "role",
          "type": "bytes32"
        },
        {
          "internalType": "uint256",
          "name": "index",
          "type": "uint256"
        }
      ],
      "name": "getRoleMember",
      "outputs": [
        {
          "internalType": "address",
          "name": "",
          "type": "address"
        }
      ],
      "stateMutability": "view",
      "type": "function"
    },
    {
      "inputs": [
        {
          "internalType": "bytes32",
          "name": "role",
          "type": "bytes32"
        }
      ],
      "name": "getRoleMemberCount",
      "outputs": [
        {
          "internalType": "uint256",
          "name": "",
          "type": "uint256"
        }
      ],
      "stateMutability": "view",
      "type": "function"
    },
    {
      "inputs": [
        {
          "internalType": "bytes32",
          "name": "role",
          "type": "bytes32"
        },
        {
          "internalType": "address",
          "name": "account",
          "type": "address"
        }
      ],
      "name": "grantRole",
      "outputs": [],
      "stateMutability": "nonpayable",
      "type": "function"
    },
    {
      "inputs": [
        {
          "internalType": "bytes32",
          "name": "role",
          "type": "bytes32"
        },
        {
          "internalType": "address",
          "name": "account",
          "type": "address"
        }
      ],
      "name": "hasRole",
      "outputs": [
        {
          "internalType": "bool",
          "name": "",
          "type": "bool"
        }
      ],
      "stateMutability": "view",
      "type": "function"
    },
    {
      "inputs": [
        {
          "internalType": "address",
          "name": "_operatorWallet",
          "type": "address"
        }
      ],
      "name": "isOperator",
      "outputs": [
        {
          "internalType": "bool",
          "name": "",
          "type": "bool"
        }
      ],
      "stateMutability": "view",
      "type": "function"
    },
    {
      "inputs": [
        {
          "internalType": "bytes32",
          "name": "role",
          "type": "bytes32"
        },
        {
          "internalType": "address",
          "name": "account",
          "type": "address"
        }
      ],
      "name": "renounceRole",
      "outputs": [],
      "stateMutability": "nonpayable",
      "type": "function"
    },
    {
      "inputs": [
        {
          "internalType": "bytes32",
          "name": "role",
          "type": "bytes32"
        },
        {
          "internalType": "address",
          "name": "account",
          "type": "address"
        }
      ],
      "name": "revokeRole",
      "outputs": [],
      "stateMutability": "nonpayable",
      "type": "function"
    },
    {
      "inputs": [
        {
          "internalType": "address",
          "name": "_operatorWallet",
          "type": "address"
        }
      ],
      "name": "setOperatorWallet",
      "outputs": [],
      "stateMutability": "nonpayable",
      "type": "function"
    },
    {
      "inputs": [
        {
          "internalType": "address",
          "name": "_nft",
          "type": "address"
        },
        {
          "internalType": "bool",
          "name": "_status",
          "type": "bool"
        }
      ],
      "name": "setSupportNfts",
      "outputs": [],
      "stateMutability": "nonpayable",
      "type": "function"
    },
    {
      "inputs": [
        {
          "internalType": "address",
          "name": "_token",
          "type": "address"
        },
        {
          "internalType": "bool",
          "name": "_status",
          "type": "bool"
        }
      ],
      "name": "setSupportTokens",
      "outputs": [],
      "stateMutability": "nonpayable",
      "type": "function"
    },
    {
      "inputs": [
        {
          "internalType": "address",
          "name": "",
          "type": "address"
        }
      ],
      "name": "supportNfts",
      "outputs": [
        {
          "internalType": "bool",
          "name": "",
          "type": "bool"
        }
      ],
      "stateMutability": "view",
      "type": "function"
    },
    {
      "inputs": [
        {
          "internalType": "address",
          "name": "",
          "type": "address"
        }
      ],
      "name": "supportTokens",
      "outputs": [
        {
          "internalType": "bool",
          "name": "",
          "type": "bool"
        }
      ],
      "stateMutability": "view",
      "type": "function"
    },
    {
      "inputs": [
        {
          "internalType": "bytes4",
          "name": "interfaceId",
          "type": "bytes4"
        }
      ],
      "name": "supportsInterface",
      "outputs": [
        {
          "internalType": "bool",
          "name": "",
          "type": "bool"
        }
      ],
      "stateMutability": "view",
      "type": "function"
    },
    {
      "inputs": [
        {
          "internalType": "address",
          "name": "_token",
          "type": "address"
        }
      ],
      "name": "withdrawAllTokensStuck",
      "outputs": [],
      "stateMutability": "payable",
      "type": "function"
    },
    {
      "inputs": [
        {
          "internalType": "address",
          "name": "_token",
          "type": "address"
        },
        {
          "internalType": "uint256",
          "name": "_amount",
          "type": "uint256"
        }
      ],
      "name": "withdrawTokensStuck",
      "outputs": [],
      "stateMutability": "payable",
      "type": "function"
    }
  ],
  "bytecode": "0x60806040523480156200001157600080fd5b50604051620033d8380380620033d88339818101604052810190620000379190620003cb565b6001600281905550600073ffffffffffffffffffffffffffffffffffffffff168173ffffffffffffffffffffffffffffffffffffffff161415620000b2576040517f08c379a0000000000000000000000000000000000000000000000000000000008152600401620000a9906200041e565b60405180910390fd5b620000d66000801b620000ca6200011e60201b60201c565b6200012660201b60201c565b80600560006101000a81548173ffffffffffffffffffffffffffffffffffffffff021916908373ffffffffffffffffffffffffffffffffffffffff16021790555050620004ee565b600033905090565b6200013882826200013c60201b60201c565b5050565b6200015382826200018460201b620012911760201c565b6200017f81600160008581526020019081526020016000206200027560201b620013711790919060201c565b505050565b620001968282620002ad60201b60201c565b6200027157600160008084815260200190815260200160002060000160008373ffffffffffffffffffffffffffffffffffffffff1673ffffffffffffffffffffffffffffffffffffffff16815260200190815260200160002060006101000a81548160ff021916908315150217905550620002166200011e60201b60201c565b73ffffffffffffffffffffffffffffffffffffffff168173ffffffffffffffffffffffffffffffffffffffff16837f2f8788117e7eff1d82e926ec794901d17c78024a50270940304540a733656f0d60405160405180910390a45b5050565b6000620002a5836000018373ffffffffffffffffffffffffffffffffffffffff1660001b6200031760201b60201c565b905092915050565b600080600084815260200190815260200160002060000160008373ffffffffffffffffffffffffffffffffffffffff1673ffffffffffffffffffffffffffffffffffffffff16815260200190815260200160002060009054906101000a900460ff16905092915050565b60006200032b83836200039160201b60201c565b620003865782600001829080600181540180825580915050600190039060005260206000200160009091909190915055826000018054905083600101600084815260200190815260200160002081905550600190506200038b565b600090505b92915050565b600080836001016000848152602001908152602001600020541415905092915050565b600081519050620003c581620004d4565b92915050565b600060208284031215620003de57600080fd5b6000620003ee84828501620003b4565b91505092915050565b600062000406603c8362000440565b9150620004138262000485565b604082019050919050565b600060208201905081810360008301526200043981620003f7565b9050919050565b600082825260208201905092915050565b60006200045e8262000465565b9050919050565b600073ffffffffffffffffffffffffffffffffffffffff82169050919050565b7f4c61627261646f4f70657261746f723a205f6f70657261746f7257616c6c657460008201527f206d75737420646966666572656e74207a65726f2d6164647265737300000000602082015250565b620004df8162000451565b8114620004eb57600080fd5b50565b612eda80620004fe6000396000f3fe6080604052600436106101145760003560e01c80638a0737a0116100a0578063a217fddf11610064578063a217fddf146103b5578063bd1a0b14146103e0578063ca15c8731461041d578063d547741f1461045a578063d57158241461048357610114565b80638a0737a0146102ac5780639010d07c146102e957806391d1485414610326578063998f50e4146103635780639b5b9b181461038c57610114565b80632f2ff15d116100e75780632f2ff15d146101d8578063338b5dea1461020157806336568abe1461021d5780634c5393f0146102465780636d70f7ae1461026f57610114565b806301ffc9a71461011957806312513f2a14610156578063248a9ca31461017f5780632da97a68146101bc575b600080fd5b34801561012557600080fd5b50610140600480360381019061013b9190612223565b61049f565b60405161014d9190612625565b60405180910390f35b34801561016257600080fd5b5061017d6004803603810190610178919061208f565b610519565b005b34801561018b57600080fd5b506101a660048036038101906101a19190612182565b610620565b6040516101b39190612640565b60405180910390f35b6101d660048036038101906101d1919061208f565b61063f565b005b3480156101e457600080fd5b506101ff60048036038101906101fa91906121ab565b61082c565b005b61021b6004803603810190610216919061211d565b61084d565b005b34801561022957600080fd5b50610244600480360381019061023f91906121ab565b610b43565b005b34801561025257600080fd5b5061026d600480360381019061026891906120e1565b610bc6565b005b34801561027b57600080fd5b506102966004803603810190610291919061208f565b610c74565b6040516102a39190612625565b60405180910390f35b3480156102b857600080fd5b506102d360048036038101906102ce919061208f565b610cdc565b6040516102e09190612625565b60405180910390f35b3480156102f557600080fd5b50610310600480360381019061030b91906121e7565b610cfc565b60405161031d91906125aa565b60405180910390f35b34801561033257600080fd5b5061034d600480360381019061034891906121ab565b610d2b565b60405161035a9190612625565b60405180910390f35b34801561036f57600080fd5b5061038a600480360381019061038591906120e1565b610d95565b005b34801561039857600080fd5b506103b360048036038101906103ae919061211d565b610e43565b005b3480156103c157600080fd5b506103ca6110bf565b6040516103d79190612640565b60405180910390f35b3480156103ec57600080fd5b506104076004803603810190610402919061208f565b6110c6565b6040516104149190612625565b60405180910390f35b34801561042957600080fd5b50610444600480360381019061043f9190612182565b6110e6565b604051610451919061281d565b60405180910390f35b34801561046657600080fd5b50610481600480360381019061047c91906121ab565b61110a565b005b61049d6004803603810190610498919061211d565b61112b565b005b60007f5a05180f000000000000000000000000000000000000000000000000000000007bffffffffffffffffffffffffffffffffffffffffffffffffffffffff1916827bffffffffffffffffffffffffffffffffffffffffffffffffffffffff191614806105125750610511826113a1565b5b9050919050565b61052d6000801b61052861141b565b610d2b565b61056c576040517f08c379a0000000000000000000000000000000000000000000000000000000008152600401610563906126fd565b60405180910390fd5b600073ffffffffffffffffffffffffffffffffffffffff168173ffffffffffffffffffffffffffffffffffffffff1614156105dc576040517f08c379a00000000000000000000000000000000000000000000000000000000081526004016105d3906127bd565b60405180910390fd5b80600560006101000a81548173ffffffffffffffffffffffffffffffffffffffff021916908373ffffffffffffffffffffffffffffffffffffffff16021790555050565b6000806000838152602001908152602001600020600101549050919050565b600280541415610684576040517f08c379a000000000000000000000000000000000000000000000000000000000815260040161067b9061277d565b60405180910390fd5b6002808190555061069f6000801b61069a61141b565b610d2b565b6106de576040517f08c379a00000000000000000000000000000000000000000000000000000000081526004016106d5906126fd565b60405180910390fd5b600073ffffffffffffffffffffffffffffffffffffffff168173ffffffffffffffffffffffffffffffffffffffff1614156107665761071b61141b565b73ffffffffffffffffffffffffffffffffffffffff166108fc479081150290604051600060405180830381858888f19350505050158015610760573d6000803e3d6000fd5b50610821565b61082061077161141b565b8273ffffffffffffffffffffffffffffffffffffffff166370a08231306040518263ffffffff1660e01b81526004016107aa91906125aa565b60206040518083038186803b1580156107c257600080fd5b505afa1580156107d6573d6000803e3d6000fd5b505050506040513d601f19601f820116820180604052508101906107fa919061224c565b8373ffffffffffffffffffffffffffffffffffffffff166114239092919063ffffffff16565b5b600160028190555050565b61083582610620565b61083e816114a9565b61084883836114bd565b505050565b600360008373ffffffffffffffffffffffffffffffffffffffff1673ffffffffffffffffffffffffffffffffffffffff16815260200190815260200160002060009054906101000a900460ff166108d9576040517f08c379a00000000000000000000000000000000000000000000000000000000081526004016108d09061271d565b60405180910390fd5b600073ffffffffffffffffffffffffffffffffffffffff168273ffffffffffffffffffffffffffffffffffffffff1614156109bf5780341015610951576040517f08c379a0000000000000000000000000000000000000000000000000000000008152600401610948906127dd565b60405180910390fd5b600560009054906101000a900473ffffffffffffffffffffffffffffffffffffffff1673ffffffffffffffffffffffffffffffffffffffff166108fc829081150290604051600060405180830381858888f193505050501580156109b9573d6000803e3d6000fd5b50610ae8565b808273ffffffffffffffffffffffffffffffffffffffff166370a082316109e461141b565b6040518263ffffffff1660e01b8152600401610a0091906125aa565b60206040518083038186803b158015610a1857600080fd5b505afa158015610a2c573d6000803e3d6000fd5b505050506040513d601f19601f82011682018060405250810190610a50919061224c565b1015610a91576040517f08c379a0000000000000000000000000000000000000000000000000000000008152600401610a88906126bd565b60405180910390fd5b610ae7610a9c61141b565b600560009054906101000a900473ffffffffffffffffffffffffffffffffffffffff16838573ffffffffffffffffffffffffffffffffffffffff166114f1909392919063ffffffff16565b5b610af061141b565b73ffffffffffffffffffffffffffffffffffffffff167f4b3f81827ede20c81afbf1bb77b954afcdcae24d391d99042310cb1d9210dd578383604051610b379291906125fc565b60405180910390a25050565b610b4b61141b565b73ffffffffffffffffffffffffffffffffffffffff168173ffffffffffffffffffffffffffffffffffffffff1614610bb8576040517f08c379a0000000000000000000000000000000000000000000000000000000008152600401610baf906127fd565b60405180910390fd5b610bc2828261157a565b5050565b610bda6000801b610bd561141b565b610d2b565b610c19576040517f08c379a0000000000000000000000000000000000000000000000000000000008152600401610c10906126fd565b60405180910390fd5b80600460008473ffffffffffffffffffffffffffffffffffffffff1673ffffffffffffffffffffffffffffffffffffffff16815260200190815260200160002060006101000a81548160ff0219169083151502179055505050565b60008173ffffffffffffffffffffffffffffffffffffffff16600560009054906101000a900473ffffffffffffffffffffffffffffffffffffffff1673ffffffffffffffffffffffffffffffffffffffff1614610cd2576000610cd5565b60015b9050919050565b60036020528060005260406000206000915054906101000a900460ff1681565b6000610d2382600160008681526020019081526020016000206115ae90919063ffffffff16565b905092915050565b600080600084815260200190815260200160002060000160008373ffffffffffffffffffffffffffffffffffffffff1673ffffffffffffffffffffffffffffffffffffffff16815260200190815260200160002060009054906101000a900460ff16905092915050565b610da96000801b610da461141b565b610d2b565b610de8576040517f08c379a0000000000000000000000000000000000000000000000000000000008152600401610ddf906126fd565b60405180910390fd5b80600360008473ffffffffffffffffffffffffffffffffffffffff1673ffffffffffffffffffffffffffffffffffffffff16815260200190815260200160002060006101000a81548160ff0219169083151502179055505050565b600460008373ffffffffffffffffffffffffffffffffffffffff1673ffffffffffffffffffffffffffffffffffffffff16815260200190815260200160002060009054906101000a900460ff16610ecf576040517f08c379a0000000000000000000000000000000000000000000000000000000008152600401610ec6906126dd565b60405180910390fd5b610ed761141b565b73ffffffffffffffffffffffffffffffffffffffff168273ffffffffffffffffffffffffffffffffffffffff16636352211e836040518263ffffffff1660e01b8152600401610f26919061281d565b60206040518083038186803b158015610f3e57600080fd5b505afa158015610f52573d6000803e3d6000fd5b505050506040513d601f19601f82011682018060405250810190610f7691906120b8565b73ffffffffffffffffffffffffffffffffffffffff1614610fcc576040517f08c379a0000000000000000000000000000000000000000000000000000000008152600401610fc39061279d565b60405180910390fd5b8173ffffffffffffffffffffffffffffffffffffffff166342842e0e610ff061141b565b600560009054906101000a900473ffffffffffffffffffffffffffffffffffffffff16846040518463ffffffff1660e01b8152600401611032939291906125c5565b600060405180830381600087803b15801561104c57600080fd5b505af1158015611060573d6000803e3d6000fd5b5050505061106c61141b565b73ffffffffffffffffffffffffffffffffffffffff167fc7e8b1bdbecdc8a549557efb2a2ab715cff51630caead31610000019e61dfa4b83836040516110b39291906125fc565b60405180910390a25050565b6000801b81565b60046020528060005260406000206000915054906101000a900460ff1681565b6000611103600160008481526020019081526020016000206115c8565b9050919050565b61111382610620565b61111c816114a9565b611126838361157a565b505050565b600280541415611170576040517f08c379a00000000000000000000000000000000000000000000000000000000081526004016111679061277d565b60405180910390fd5b6002808190555061118b6000801b61118661141b565b610d2b565b6111ca576040517f08c379a00000000000000000000000000000000000000000000000000000000081526004016111c1906126fd565b60405180910390fd5b600073ffffffffffffffffffffffffffffffffffffffff168273ffffffffffffffffffffffffffffffffffffffff1614156112525761120761141b565b73ffffffffffffffffffffffffffffffffffffffff166108fc829081150290604051600060405180830381858888f1935050505015801561124c573d6000803e3d6000fd5b50611285565b61128461125d61141b565b828473ffffffffffffffffffffffffffffffffffffffff166114239092919063ffffffff16565b5b60016002819055505050565b61129b8282610d2b565b61136d57600160008084815260200190815260200160002060000160008373ffffffffffffffffffffffffffffffffffffffff1673ffffffffffffffffffffffffffffffffffffffff16815260200190815260200160002060006101000a81548160ff02191690831515021790555061131261141b565b73ffffffffffffffffffffffffffffffffffffffff168173ffffffffffffffffffffffffffffffffffffffff16837f2f8788117e7eff1d82e926ec794901d17c78024a50270940304540a733656f0d60405160405180910390a45b5050565b6000611399836000018373ffffffffffffffffffffffffffffffffffffffff1660001b6115dd565b905092915050565b60007f7965db0b000000000000000000000000000000000000000000000000000000007bffffffffffffffffffffffffffffffffffffffffffffffffffffffff1916827bffffffffffffffffffffffffffffffffffffffffffffffffffffffff1916148061141457506114138261164d565b5b9050919050565b600033905090565b6114a48363a9059cbb60e01b84846040516024016114429291906125fc565b604051602081830303815290604052907bffffffffffffffffffffffffffffffffffffffffffffffffffffffff19166020820180517bffffffffffffffffffffffffffffffffffffffffffffffffffffffff83818316178352505050506116b7565b505050565b6114ba816114b561141b565b61177e565b50565b6114c78282611291565b6114ec816001600085815260200190815260200160002061137190919063ffffffff16565b505050565b611574846323b872dd60e01b858585604051602401611512939291906125c5565b604051602081830303815290604052907bffffffffffffffffffffffffffffffffffffffffffffffffffffffff19166020820180517bffffffffffffffffffffffffffffffffffffffffffffffffffffffff83818316178352505050506116b7565b50505050565b611584828261181b565b6115a981600160008581526020019081526020016000206118fc90919063ffffffff16565b505050565b60006115bd836000018361192c565b60001c905092915050565b60006115d68260000161197d565b9050919050565b60006115e9838361198e565b611642578260000182908060018154018082558091505060019003906000526020600020016000909190919091505582600001805490508360010160008481526020019081526020016000208190555060019050611647565b600090505b92915050565b60007f01ffc9a7000000000000000000000000000000000000000000000000000000007bffffffffffffffffffffffffffffffffffffffffffffffffffffffff1916827bffffffffffffffffffffffffffffffffffffffffffffffffffffffff1916149050919050565b6000611719826040518060400160405280602081526020017f5361666545524332303a206c6f772d6c6576656c2063616c6c206661696c65648152508573ffffffffffffffffffffffffffffffffffffffff166119b19092919063ffffffff16565b905060008151111561177957808060200190518101906117399190612159565b611778576040517f08c379a000000000000000000000000000000000000000000000000000000000815260040161176f9061275d565b60405180910390fd5b5b505050565b6117888282610d2b565b611817576117ad8173ffffffffffffffffffffffffffffffffffffffff1660146119c9565b6117bb8360001c60206119c9565b6040516020016117cc929190612570565b6040516020818303038152906040526040517f08c379a000000000000000000000000000000000000000000000000000000000815260040161180e919061265b565b60405180910390fd5b5050565b6118258282610d2b565b156118f857600080600084815260200190815260200160002060000160008373ffffffffffffffffffffffffffffffffffffffff1673ffffffffffffffffffffffffffffffffffffffff16815260200190815260200160002060006101000a81548160ff02191690831515021790555061189d61141b565b73ffffffffffffffffffffffffffffffffffffffff168173ffffffffffffffffffffffffffffffffffffffff16837ff6391f5c32d9c69d2a47ea670b442974b53935d1edc7fd64eb21e047a839171b60405160405180910390a45b5050565b6000611924836000018373ffffffffffffffffffffffffffffffffffffffff1660001b611cc3565b905092915050565b600082600001828154811061196a577f4e487b7100000000000000000000000000000000000000000000000000000000600052603260045260246000fd5b9060005260206000200154905092915050565b600081600001805490509050919050565b600080836001016000848152602001908152602001600020541415905092915050565b60606119c08484600085611e49565b90509392505050565b6060600060028360026119dc91906128cb565b6119e69190612875565b67ffffffffffffffff811115611a25577f4e487b7100000000000000000000000000000000000000000000000000000000600052604160045260246000fd5b6040519080825280601f01601f191660200182016040528015611a575781602001600182028036833780820191505090505b5090507f300000000000000000000000000000000000000000000000000000000000000081600081518110611ab5577f4e487b7100000000000000000000000000000000000000000000000000000000600052603260045260246000fd5b60200101907effffffffffffffffffffffffffffffffffffffffffffffffffffffffffffff1916908160001a9053507f780000000000000000000000000000000000000000000000000000000000000081600181518110611b3f577f4e487b7100000000000000000000000000000000000000000000000000000000600052603260045260246000fd5b60200101907effffffffffffffffffffffffffffffffffffffffffffffffffffffffffffff1916908160001a90535060006001846002611b7f91906128cb565b611b899190612875565b90505b6001811115611c75577f3031323334353637383961626364656600000000000000000000000000000000600f861660108110611bf1577f4e487b7100000000000000000000000000000000000000000000000000000000600052603260045260246000fd5b1a60f81b828281518110611c2e577f4e487b7100000000000000000000000000000000000000000000000000000000600052603260045260246000fd5b60200101907effffffffffffffffffffffffffffffffffffffffffffffffffffffffffffff1916908160001a905350600485901c945080611c6e90612a0a565b9050611b8c565b5060008414611cb9576040517f08c379a0000000000000000000000000000000000000000000000000000000008152600401611cb09061267d565b60405180910390fd5b8091505092915050565b60008083600101600084815260200190815260200160002054905060008114611e3d576000600182611cf59190612925565b9050600060018660000180549050611d0d9190612925565b9050818114611dc8576000866000018281548110611d54577f4e487b7100000000000000000000000000000000000000000000000000000000600052603260045260246000fd5b9060005260206000200154905080876000018481548110611d9e577f4e487b7100000000000000000000000000000000000000000000000000000000600052603260045260246000fd5b90600052602060002001819055508387600101600083815260200190815260200160002081905550505b85600001805480611e02577f4e487b7100000000000000000000000000000000000000000000000000000000600052603160045260246000fd5b600190038181906000526020600020016000905590558560010160008681526020019081526020016000206000905560019350505050611e43565b60009150505b92915050565b606082471015611e8e576040517f08c379a0000000000000000000000000000000000000000000000000000000008152600401611e859061269d565b60405180910390fd5b611e9785611f5d565b611ed6576040517f08c379a0000000000000000000000000000000000000000000000000000000008152600401611ecd9061273d565b60405180910390fd5b6000808673ffffffffffffffffffffffffffffffffffffffff168587604051611eff9190612559565b60006040518083038185875af1925050503d8060008114611f3c576040519150601f19603f3d011682016040523d82523d6000602084013e611f41565b606091505b5091509150611f51828286611f80565b92505050949350505050565b6000808273ffffffffffffffffffffffffffffffffffffffff163b119050919050565b60608315611f9057829050611fe0565b600083511115611fa35782518084602001fd5b816040517f08c379a0000000000000000000000000000000000000000000000000000000008152600401611fd7919061265b565b60405180910390fd5b9392505050565b600081359050611ff681612e31565b92915050565b60008151905061200b81612e31565b92915050565b60008135905061202081612e48565b92915050565b60008151905061203581612e48565b92915050565b60008135905061204a81612e5f565b92915050565b60008135905061205f81612e76565b92915050565b60008135905061207481612e8d565b92915050565b60008151905061208981612e8d565b92915050565b6000602082840312156120a157600080fd5b60006120af84828501611fe7565b91505092915050565b6000602082840312156120ca57600080fd5b60006120d884828501611ffc565b91505092915050565b600080604083850312156120f457600080fd5b600061210285828601611fe7565b925050602061211385828601612011565b9150509250929050565b6000806040838503121561213057600080fd5b600061213e85828601611fe7565b925050602061214f85828601612065565b9150509250929050565b60006020828403121561216b57600080fd5b600061217984828501612026565b91505092915050565b60006020828403121561219457600080fd5b60006121a28482850161203b565b91505092915050565b600080604083850312156121be57600080fd5b60006121cc8582860161203b565b92505060206121dd85828601611fe7565b9150509250929050565b600080604083850312156121fa57600080fd5b60006122088582860161203b565b925050602061221985828601612065565b9150509250929050565b60006020828403121561223557600080fd5b600061224384828501612050565b91505092915050565b60006020828403121561225e57600080fd5b600061226c8482850161207a565b91505092915050565b61227e81612959565b82525050565b61228d8161296b565b82525050565b61229c81612977565b82525050565b60006122ad82612838565b6122b7818561284e565b93506122c78185602086016129d7565b80840191505092915050565b60006122de82612843565b6122e88185612859565b93506122f88185602086016129d7565b61230181612a63565b840191505092915050565b600061231782612843565b612321818561286a565b93506123318185602086016129d7565b80840191505092915050565b600061234a602083612859565b915061235582612a74565b602082019050919050565b600061236d602683612859565b915061237882612a9d565b604082019050919050565b6000612390602e83612859565b915061239b82612aec565b604082019050919050565b60006123b3602083612859565b91506123be82612b3b565b602082019050919050565b60006123d6602483612859565b91506123e182612b64565b604082019050919050565b60006123f9602583612859565b915061240482612bb3565b604082019050919050565b600061241c601d83612859565b915061242782612c02565b602082019050919050565b600061243f60178361286a565b915061244a82612c2b565b601782019050919050565b6000612462602a83612859565b915061246d82612c54565b604082019050919050565b6000612485601f83612859565b915061249082612ca3565b602082019050919050565b60006124a8602c83612859565b91506124b382612ccc565b604082019050919050565b60006124cb603c83612859565b91506124d682612d1b565b604082019050919050565b60006124ee602c83612859565b91506124f982612d6a565b604082019050919050565b600061251160118361286a565b915061251c82612db9565b601182019050919050565b6000612534602f83612859565b915061253f82612de2565b604082019050919050565b612553816129cd565b82525050565b600061256582846122a2565b915081905092915050565b600061257b82612432565b9150612587828561230c565b915061259282612504565b915061259e828461230c565b91508190509392505050565b60006020820190506125bf6000830184612275565b92915050565b60006060820190506125da6000830186612275565b6125e76020830185612275565b6125f4604083018461254a565b949350505050565b60006040820190506126116000830185612275565b61261e602083018461254a565b9392505050565b600060208201905061263a6000830184612284565b92915050565b60006020820190506126556000830184612293565b92915050565b6000602082019050818103600083015261267581846122d3565b905092915050565b600060208201905081810360008301526126968161233d565b9050919050565b600060208201905081810360008301526126b681612360565b9050919050565b600060208201905081810360008301526126d681612383565b9050919050565b600060208201905081810360008301526126f6816123a6565b9050919050565b60006020820190508181036000830152612716816123c9565b9050919050565b60006020820190508181036000830152612736816123ec565b9050919050565b600060208201905081810360008301526127568161240f565b9050919050565b6000602082019050818103600083015261277681612455565b9050919050565b6000602082019050818103600083015261279681612478565b9050919050565b600060208201905081810360008301526127b68161249b565b9050919050565b600060208201905081810360008301526127d6816124be565b9050919050565b600060208201905081810360008301526127f6816124e1565b9050919050565b6000602082019050818103600083015261281681612527565b9050919050565b6000602082019050612832600083018461254a565b92915050565b600081519050919050565b600081519050919050565b600081905092915050565b600082825260208201905092915050565b600081905092915050565b6000612880826129cd565b915061288b836129cd565b9250827fffffffffffffffffffffffffffffffffffffffffffffffffffffffffffffffff038211156128c0576128bf612a34565b5b828201905092915050565b60006128d6826129cd565b91506128e1836129cd565b9250817fffffffffffffffffffffffffffffffffffffffffffffffffffffffffffffffff048311821515161561291a57612919612a34565b5b828202905092915050565b6000612930826129cd565b915061293b836129cd565b92508282101561294e5761294d612a34565b5b828203905092915050565b6000612964826129ad565b9050919050565b60008115159050919050565b6000819050919050565b60007fffffffff0000000000000000000000000000000000000000000000000000000082169050919050565b600073ffffffffffffffffffffffffffffffffffffffff82169050919050565b6000819050919050565b60005b838110156129f55780820151818401526020810190506129da565b83811115612a04576000848401525b50505050565b6000612a15826129cd565b91506000821415612a2957612a28612a34565b5b600182039050919050565b7f4e487b7100000000000000000000000000000000000000000000000000000000600052601160045260246000fd5b6000601f19601f8301169050919050565b7f537472696e67733a20686578206c656e67746820696e73756666696369656e74600082015250565b7f416464726573733a20696e73756666696369656e742062616c616e636520666f60008201527f722063616c6c0000000000000000000000000000000000000000000000000000602082015250565b7f4c61627261646f4f70657261746f723a2062616c616e63654f6620746f6b656e60008201527f206973206e6f7420656e6f756768000000000000000000000000000000000000602082015250565b7f4c61627261646f4f70657261746f723a206e6674206e6f7420737570706f7274600082015250565b7f4c61627261646f4f70657261746f723a2063616c6c6572206973206e6f74206160008201527f646d696e00000000000000000000000000000000000000000000000000000000602082015250565b7f4c61627261646f4f70657261746f723a20746f6b656e206973206e6f7420737560008201527f70706f7274000000000000000000000000000000000000000000000000000000602082015250565b7f416464726573733a2063616c6c20746f206e6f6e2d636f6e7472616374000000600082015250565b7f416363657373436f6e74726f6c3a206163636f756e7420000000000000000000600082015250565b7f5361666545524332303a204552433230206f7065726174696f6e20646964206e60008201527f6f74207375636365656400000000000000000000000000000000000000000000602082015250565b7f5265656e7472616e637947756172643a207265656e7472616e742063616c6c00600082015250565b7f4c61627261646f4f70657261746f723a2073656e646572206973206e6f74206f60008201527f776e657220746f6b656e49640000000000000000000000000000000000000000602082015250565b7f4c61627261646f4f70657261746f723a205f6f70657261746f7257616c6c657460008201527f206d75737420646966666572656e74207a65726f2d6164647265737300000000602082015250565b7f4c61627261646f4f70657261746f723a206d73672e76616c7565206d7573742060008201527f657175616c20616d6f756e740000000000000000000000000000000000000000602082015250565b7f206973206d697373696e6720726f6c6520000000000000000000000000000000600082015250565b7f416363657373436f6e74726f6c3a2063616e206f6e6c792072656e6f756e636560008201527f20726f6c657320666f722073656c660000000000000000000000000000000000602082015250565b612e3a81612959565b8114612e4557600080fd5b50565b612e518161296b565b8114612e5c57600080fd5b50565b612e6881612977565b8114612e7357600080fd5b50565b612e7f81612981565b8114612e8a57600080fd5b50565b612e96816129cd565b8114612ea157600080fd5b5056fea2646970667358221220b74e21456804345bafbb25ecb34f83ee867fa8c3d39d06bf589cc4943ea78b0a64736f6c63430008010033",
  "linkReferences": {},
  "deployedLinkReferences": {}
}