{
  "_format": "hh-sol-artifact-1",
  "contractName": "Excalibur",
  "sourceName": "contracts/Excalibur.sol",
  "abi": [
    {
      "inputs": [],
      "stateMutability": "nonpayable",
      "type": "constructor"
    },
    {
      "anonymous": false,
      "inputs": [
        {
          "indexed": true,
          "internalType": "address",
          "name": "owner",
          "type": "address"
        },
        {
          "indexed": true,
          "internalType": "address",
          "name": "spender",
          "type": "address"
        },
        {
          "indexed": false,
          "internalType": "uint256",
          "name": "value",
          "type": "uint256"
        }
      ],
      "name": "Approval",
      "type": "event"
    },
    {
      "anonymous": false,
      "inputs": [
        {
          "indexed": true,
          "internalType": "address",
          "name": "previousOwner",
          "type": "address"
        },
        {
          "indexed": true,
          "internalType": "address",
          "name": "newOwner",
          "type": "address"
        }
      ],
      "name": "OwnershipTransferred",
      "type": "event"
    },
    {
      "anonymous": false,
      "inputs": [
        {
          "indexed": true,
          "internalType": "address",
          "name": "from",
          "type": "address"
        },
        {
          "indexed": true,
          "internalType": "address",
          "name": "to",
          "type": "address"
        },
        {
          "indexed": false,
          "internalType": "uint256",
          "name": "value",
          "type": "uint256"
        }
      ],
      "name": "Transfer",
      "type": "event"
    },
    {
      "inputs": [],
      "name": "MAX_SUPPLY",
      "outputs": [
        {
          "internalType": "uint256",
          "name": "",
          "type": "uint256"
        }
      ],
      "stateMutability": "view",
      "type": "function"
    },
    {
      "inputs": [
        {
          "internalType": "address",
          "name": "owner",
          "type": "address"
        },
        {
          "internalType": "address",
          "name": "spender",
          "type": "address"
        }
      ],
      "name": "allowance",
      "outputs": [
        {
          "internalType": "uint256",
          "name": "",
          "type": "uint256"
        }
      ],
      "stateMutability": "view",
      "type": "function"
    },
    {
      "inputs": [
        {
          "internalType": "address",
          "name": "spender",
          "type": "address"
        },
        {
          "internalType": "uint256",
          "name": "amount",
          "type": "uint256"
        }
      ],
      "name": "approve",
      "outputs": [
        {
          "internalType": "bool",
          "name": "",
          "type": "bool"
        }
      ],
      "stateMutability": "nonpayable",
      "type": "function"
    },
    {
      "inputs": [
        {
          "internalType": "address",
          "name": "account",
          "type": "address"
        }
      ],
      "name": "balanceOf",
      "outputs": [
        {
          "internalType": "uint256",
          "name": "",
          "type": "uint256"
        }
      ],
      "stateMutability": "view",
      "type": "function"
    },
    {
      "inputs": [
        {
          "internalType": "uint256",
          "name": "amount",
          "type": "uint256"
        }
      ],
      "name": "burn",
      "outputs": [],
      "stateMutability": "nonpayable",
      "type": "function"
    },
    {
      "inputs": [
        {
          "internalType": "address",
          "name": "account",
          "type": "address"
        },
        {
          "internalType": "uint256",
          "name": "amount",
          "type": "uint256"
        }
      ],
      "name": "burnFrom",
      "outputs": [],
      "stateMutability": "nonpayable",
      "type": "function"
    },
    {
      "inputs": [],
      "name": "decimals",
      "outputs": [
        {
          "internalType": "uint8",
          "name": "",
          "type": "uint8"
        }
      ],
      "stateMutability": "view",
      "type": "function"
    },
    {
      "inputs": [
        {
          "internalType": "address",
          "name": "spender",
          "type": "address"
        },
        {
          "internalType": "uint256",
          "name": "subtractedValue",
          "type": "uint256"
        }
      ],
      "name": "decreaseAllowance",
      "outputs": [
        {
          "internalType": "bool",
          "name": "",
          "type": "bool"
        }
      ],
      "stateMutability": "nonpayable",
      "type": "function"
    },
    {
      "inputs": [
        {
          "internalType": "address",
          "name": "spender",
          "type": "address"
        },
        {
          "internalType": "uint256",
          "name": "addedValue",
          "type": "uint256"
        }
      ],
      "name": "increaseAllowance",
      "outputs": [
        {
          "internalType": "bool",
          "name": "",
          "type": "bool"
        }
      ],
      "stateMutability": "nonpayable",
      "type": "function"
    },
    {
      "inputs": [
        {
          "internalType": "address",
          "name": "_to",
          "type": "address"
        },
        {
          "internalType": "uint256",
          "name": "_amount",
          "type": "uint256"
        }
      ],
      "name": "mint",
      "outputs": [],
      "stateMutability": "nonpayable",
      "type": "function"
    },
    {
      "inputs": [],
      "name": "name",
      "outputs": [
        {
          "internalType": "string",
          "name": "",
          "type": "string"
        }
      ],
      "stateMutability": "view",
      "type": "function"
    },
    {
      "inputs": [],
      "name": "owner",
      "outputs": [
        {
          "internalType": "address",
          "name": "",
          "type": "address"
        }
      ],
      "stateMutability": "view",
      "type": "function"
    },
    {
      "inputs": [],
      "name": "renounceOwnership",
      "outputs": [],
      "stateMutability": "nonpayable",
      "type": "function"
    },
    {
      "inputs": [],
      "name": "symbol",
      "outputs": [
        {
          "internalType": "string",
          "name": "",
          "type": "string"
        }
      ],
      "stateMutability": "view",
      "type": "function"
    },
    {
      "inputs": [],
      "name": "totalSupply",
      "outputs": [
        {
          "internalType": "uint256",
          "name": "",
          "type": "uint256"
        }
      ],
      "stateMutability": "view",
      "type": "function"
    },
    {
      "inputs": [
        {
          "internalType": "address",
          "name": "to",
          "type": "address"
        },
        {
          "internalType": "uint256",
          "name": "amount",
          "type": "uint256"
        }
      ],
      "name": "transfer",
      "outputs": [
        {
          "internalType": "bool",
          "name": "",
          "type": "bool"
        }
      ],
      "stateMutability": "nonpayable",
      "type": "function"
    },
    {
      "inputs": [
        {
          "internalType": "address[]",
          "name": "_recipients",
          "type": "address[]"
        },
        {
          "internalType": "uint256[]",
          "name": "_amounts",
          "type": "uint256[]"
        }
      ],
      "name": "transferBatch",
      "outputs": [],
      "stateMutability": "nonpayable",
      "type": "function"
    },
    {
      "inputs": [
        {
          "internalType": "address",
          "name": "from",
          "type": "address"
        },
        {
          "internalType": "address",
          "name": "to",
          "type": "address"
        },
        {
          "internalType": "uint256",
          "name": "amount",
          "type": "uint256"
        }
      ],
      "name": "transferFrom",
      "outputs": [
        {
          "internalType": "bool",
          "name": "",
          "type": "bool"
        }
      ],
      "stateMutability": "nonpayable",
      "type": "function"
    },
    {
      "inputs": [
        {
          "internalType": "address",
          "name": "newOwner",
          "type": "address"
        }
      ],
      "name": "transferOwnership",
      "outputs": [],
      "stateMutability": "nonpayable",
      "type": "function"
    }
  ],
  "bytecode": "0x60806040523480156200001157600080fd5b506040518060400160405280600981526020017f455843414c4942555200000000000000000000000000000000000000000000008152506040518060400160405280600481526020017f4558434100000000000000000000000000000000000000000000000000000000815250816003908051906020019062000096929190620001a6565b508060049080519060200190620000af929190620001a6565b505050620000d2620000c6620000d860201b60201c565b620000e060201b60201c565b620002bb565b600033905090565b6000600560009054906101000a900473ffffffffffffffffffffffffffffffffffffffff16905081600560006101000a81548173ffffffffffffffffffffffffffffffffffffffff021916908373ffffffffffffffffffffffffffffffffffffffff1602179055508173ffffffffffffffffffffffffffffffffffffffff168173ffffffffffffffffffffffffffffffffffffffff167f8be0079c531659141344cd1fd0a4f28419497f9722a3daafe3b4186f6b6457e060405160405180910390a35050565b828054620001b49062000256565b90600052602060002090601f016020900481019282620001d8576000855562000224565b82601f10620001f357805160ff191683800117855562000224565b8280016001018555821562000224579182015b828111156200022357825182559160200191906001019062000206565b5b50905062000233919062000237565b5090565b5b808211156200025257600081600090555060010162000238565b5090565b600060028204905060018216806200026f57607f821691505b602082108114156200028657620002856200028c565b5b50919050565b7f4e487b7100000000000000000000000000000000000000000000000000000000600052602260045260246000fd5b61253180620002cb6000396000f3fe608060405234801561001057600080fd5b50600436106101215760003560e01c806342966c68116100ad57806395d89b411161007157806395d89b41146102f6578063a457c2d714610314578063a9059cbb14610344578063dd62ed3e14610374578063f2fde38b146103a457610121565b806342966c681461026657806370a0823114610282578063715018a6146102b257806379cc6790146102bc5780638da5cb5b146102d857610121565b8063313ce567116100f4578063313ce567146101c257806332cb6b0c146101e057806339509351146101fe5780633b3e672f1461022e57806340c10f191461024a57610121565b806306fdde0314610126578063095ea7b31461014457806318160ddd1461017457806323b872dd14610192575b600080fd5b61012e6103c0565b60405161013b9190611b11565b60405180910390f35b61015e600480360381019061015991906116dc565b610452565b60405161016b9190611af6565b60405180910390f35b61017c610475565b6040516101899190611d33565b60405180910390f35b6101ac60048036038101906101a7919061168d565b61047f565b6040516101b99190611af6565b60405180910390f35b6101ca6104ae565b6040516101d79190611d4e565b60405180910390f35b6101e86104b7565b6040516101f59190611d33565b60405180910390f35b610218600480360381019061021391906116dc565b6104c7565b6040516102259190611af6565b60405180910390f35b61024860048036038101906102439190611718565b6104fe565b005b610264600480360381019061025f91906116dc565b6107f0565b005b610280600480360381019061027b91906117ad565b610867565b005b61029c60048036038101906102979190611628565b61087b565b6040516102a99190611d33565b60405180910390f35b6102ba6108c3565b005b6102d660048036038101906102d191906116dc565b6108d7565b005b6102e06108f7565b6040516102ed9190611a7b565b60405180910390f35b6102fe610921565b60405161030b9190611b11565b60405180910390f35b61032e600480360381019061032991906116dc565b6109b3565b60405161033b9190611af6565b60405180910390f35b61035e600480360381019061035991906116dc565b610a2a565b60405161036b9190611af6565b60405180910390f35b61038e60048036038101906103899190611651565b610a4d565b60405161039b9190611d33565b60405180910390f35b6103be60048036038101906103b99190611628565b610ad4565b005b6060600380546103cf90611f14565b80601f01602080910402602001604051908101604052809291908181526020018280546103fb90611f14565b80156104485780601f1061041d57610100808354040283529160200191610448565b820191906000526020600020905b81548152906001019060200180831161042b57829003601f168201915b5050505050905090565b60008061045d610b58565b905061046a818585610b60565b600191505092915050565b6000600254905090565b60008061048a610b58565b9050610497858285610d2b565b6104a2858585610db7565b60019150509392505050565b60006012905090565b6b204fce5e3e2502611000000081565b6000806104d2610b58565b90506104f38185856104e48589610a4d565b6104ee9190611e02565b610b60565b600191505092915050565b8051825114610542576040517f08c379a000000000000000000000000000000000000000000000000000000000815260040161053990611cd3565b60405180910390fd5b6000805b83518110156105b057828181518110610588577f4e487b7100000000000000000000000000000000000000000000000000000000600052603260045260246000fd5b60200260200101518261059b9190611e02565b915080806105a890611f77565b915050610546565b503073ffffffffffffffffffffffffffffffffffffffff166323b872dd3330846040518463ffffffff1660e01b81526004016105ee93929190611a96565b602060405180830381600087803b15801561060857600080fd5b505af115801561061c573d6000803e3d6000fd5b505050506040513d601f19601f820116820180604052508101906106409190611784565b61067f576040517f08c379a000000000000000000000000000000000000000000000000000000000815260040161067690611cb3565b60405180910390fd5b60005b83518110156107ea573073ffffffffffffffffffffffffffffffffffffffff1663a9059cbb8583815181106106e0577f4e487b7100000000000000000000000000000000000000000000000000000000600052603260045260246000fd5b6020026020010151858481518110610721577f4e487b7100000000000000000000000000000000000000000000000000000000600052603260045260246000fd5b60200260200101516040518363ffffffff1660e01b8152600401610746929190611acd565b602060405180830381600087803b15801561076057600080fd5b505af1158015610774573d6000803e3d6000fd5b505050506040513d601f19601f820116820180604052508101906107989190611784565b6107d7576040517f08c379a00000000000000000000000000000000000000000000000000000000081526004016107ce90611bb3565b60405180910390fd5b80806107e290611f77565b915050610682565b50505050565b6107f8611038565b6b204fce5e3e250261100000008161080e610475565b6108189190611e02565b1115610859576040517f08c379a000000000000000000000000000000000000000000000000000000000815260040161085090611c13565b60405180910390fd5b61086382826110b6565b5050565b610878610872610b58565b82611216565b50565b60008060008373ffffffffffffffffffffffffffffffffffffffff1673ffffffffffffffffffffffffffffffffffffffff168152602001908152602001600020549050919050565b6108cb611038565b6108d560006113ed565b565b6108e9826108e3610b58565b83610d2b565b6108f38282611216565b5050565b6000600560009054906101000a900473ffffffffffffffffffffffffffffffffffffffff16905090565b60606004805461093090611f14565b80601f016020809104026020016040519081016040528092919081815260200182805461095c90611f14565b80156109a95780601f1061097e576101008083540402835291602001916109a9565b820191906000526020600020905b81548152906001019060200180831161098c57829003601f168201915b5050505050905090565b6000806109be610b58565b905060006109cc8286610a4d565b905083811015610a11576040517f08c379a0000000000000000000000000000000000000000000000000000000008152600401610a0890611cf3565b60405180910390fd5b610a1e8286868403610b60565b60019250505092915050565b600080610a35610b58565b9050610a42818585610db7565b600191505092915050565b6000600160008473ffffffffffffffffffffffffffffffffffffffff1673ffffffffffffffffffffffffffffffffffffffff16815260200190815260200160002060008373ffffffffffffffffffffffffffffffffffffffff1673ffffffffffffffffffffffffffffffffffffffff16815260200190815260200160002054905092915050565b610adc611038565b600073ffffffffffffffffffffffffffffffffffffffff168173ffffffffffffffffffffffffffffffffffffffff161415610b4c576040517f08c379a0000000000000000000000000000000000000000000000000000000008152600401610b4390611b73565b60405180910390fd5b610b55816113ed565b50565b600033905090565b600073ffffffffffffffffffffffffffffffffffffffff168373ffffffffffffffffffffffffffffffffffffffff161415610bd0576040517f08c379a0000000000000000000000000000000000000000000000000000000008152600401610bc790611c93565b60405180910390fd5b600073ffffffffffffffffffffffffffffffffffffffff168273ffffffffffffffffffffffffffffffffffffffff161415610c40576040517f08c379a0000000000000000000000000000000000000000000000000000000008152600401610c3790611b93565b60405180910390fd5b80600160008573ffffffffffffffffffffffffffffffffffffffff1673ffffffffffffffffffffffffffffffffffffffff16815260200190815260200160002060008473ffffffffffffffffffffffffffffffffffffffff1673ffffffffffffffffffffffffffffffffffffffff168152602001908152602001600020819055508173ffffffffffffffffffffffffffffffffffffffff168373ffffffffffffffffffffffffffffffffffffffff167f8c5be1e5ebec7d5bd14f71427d1e84f3dd0314c0f7b2291e5b200ac8c7c3b92583604051610d1e9190611d33565b60405180910390a3505050565b6000610d378484610a4d565b90507fffffffffffffffffffffffffffffffffffffffffffffffffffffffffffffffff8114610db15781811015610da3576040517f08c379a0000000000000000000000000000000000000000000000000000000008152600401610d9a90611bd3565b60405180910390fd5b610db08484848403610b60565b5b50505050565b600073ffffffffffffffffffffffffffffffffffffffff168373ffffffffffffffffffffffffffffffffffffffff161415610e27576040517f08c379a0000000000000000000000000000000000000000000000000000000008152600401610e1e90611c73565b60405180910390fd5b600073ffffffffffffffffffffffffffffffffffffffff168273ffffffffffffffffffffffffffffffffffffffff161415610e97576040517f08c379a0000000000000000000000000000000000000000000000000000000008152600401610e8e90611b33565b60405180910390fd5b610ea28383836114b3565b60008060008573ffffffffffffffffffffffffffffffffffffffff1673ffffffffffffffffffffffffffffffffffffffff16815260200190815260200160002054905081811015610f28576040517f08c379a0000000000000000000000000000000000000000000000000000000008152600401610f1f90611bf3565b60405180910390fd5b8181036000808673ffffffffffffffffffffffffffffffffffffffff1673ffffffffffffffffffffffffffffffffffffffff16815260200190815260200160002081905550816000808573ffffffffffffffffffffffffffffffffffffffff1673ffffffffffffffffffffffffffffffffffffffff1681526020019081526020016000206000828254610fbb9190611e02565b925050819055508273ffffffffffffffffffffffffffffffffffffffff168473ffffffffffffffffffffffffffffffffffffffff167fddf252ad1be2c89b69c2b068fc378daa952ba7f163c4a11628f55a4df523b3ef8460405161101f9190611d33565b60405180910390a36110328484846114b8565b50505050565b611040610b58565b73ffffffffffffffffffffffffffffffffffffffff1661105e6108f7565b73ffffffffffffffffffffffffffffffffffffffff16146110b4576040517f08c379a00000000000000000000000000000000000000000000000000000000081526004016110ab90611c33565b60405180910390fd5b565b600073ffffffffffffffffffffffffffffffffffffffff168273ffffffffffffffffffffffffffffffffffffffff161415611126576040517f08c379a000000000000000000000000000000000000000000000000000000000815260040161111d90611d13565b60405180910390fd5b611132600083836114b3565b80600260008282546111449190611e02565b92505081905550806000808473ffffffffffffffffffffffffffffffffffffffff1673ffffffffffffffffffffffffffffffffffffffff16815260200190815260200160002060008282546111999190611e02565b925050819055508173ffffffffffffffffffffffffffffffffffffffff16600073ffffffffffffffffffffffffffffffffffffffff167fddf252ad1be2c89b69c2b068fc378daa952ba7f163c4a11628f55a4df523b3ef836040516111fe9190611d33565b60405180910390a3611212600083836114b8565b5050565b600073ffffffffffffffffffffffffffffffffffffffff168273ffffffffffffffffffffffffffffffffffffffff161415611286576040517f08c379a000000000000000000000000000000000000000000000000000000000815260040161127d90611c53565b60405180910390fd5b611292826000836114b3565b60008060008473ffffffffffffffffffffffffffffffffffffffff1673ffffffffffffffffffffffffffffffffffffffff16815260200190815260200160002054905081811015611318576040517f08c379a000000000000000000000000000000000000000000000000000000000815260040161130f90611b53565b60405180910390fd5b8181036000808573ffffffffffffffffffffffffffffffffffffffff1673ffffffffffffffffffffffffffffffffffffffff16815260200190815260200160002081905550816002600082825461136f9190611e58565b92505081905550600073ffffffffffffffffffffffffffffffffffffffff168373ffffffffffffffffffffffffffffffffffffffff167fddf252ad1be2c89b69c2b068fc378daa952ba7f163c4a11628f55a4df523b3ef846040516113d49190611d33565b60405180910390a36113e8836000846114b8565b505050565b6000600560009054906101000a900473ffffffffffffffffffffffffffffffffffffffff16905081600560006101000a81548173ffffffffffffffffffffffffffffffffffffffff021916908373ffffffffffffffffffffffffffffffffffffffff1602179055508173ffffffffffffffffffffffffffffffffffffffff168173ffffffffffffffffffffffffffffffffffffffff167f8be0079c531659141344cd1fd0a4f28419497f9722a3daafe3b4186f6b6457e060405160405180910390a35050565b505050565b505050565b60006114d06114cb84611d8e565b611d69565b905080838252602082019050828560208602820111156114ef57600080fd5b60005b8581101561151f57816115058882611595565b8452602084019350602083019250506001810190506114f2565b5050509392505050565b600061153c61153784611dba565b611d69565b9050808382526020820190508285602086028201111561155b57600080fd5b60005b8581101561158b57816115718882611613565b84526020840193506020830192505060018101905061155e565b5050509392505050565b6000813590506115a4816124b6565b92915050565b600082601f8301126115bb57600080fd5b81356115cb8482602086016114bd565b91505092915050565b600082601f8301126115e557600080fd5b81356115f5848260208601611529565b91505092915050565b60008151905061160d816124cd565b92915050565b600081359050611622816124e4565b92915050565b60006020828403121561163a57600080fd5b600061164884828501611595565b91505092915050565b6000806040838503121561166457600080fd5b600061167285828601611595565b925050602061168385828601611595565b9150509250929050565b6000806000606084860312156116a257600080fd5b60006116b086828701611595565b93505060206116c186828701611595565b92505060406116d286828701611613565b9150509250925092565b600080604083850312156116ef57600080fd5b60006116fd85828601611595565b925050602061170e85828601611613565b9150509250929050565b6000806040838503121561172b57600080fd5b600083013567ffffffffffffffff81111561174557600080fd5b611751858286016115aa565b925050602083013567ffffffffffffffff81111561176e57600080fd5b61177a858286016115d4565b9150509250929050565b60006020828403121561179657600080fd5b60006117a4848285016115fe565b91505092915050565b6000602082840312156117bf57600080fd5b60006117cd84828501611613565b91505092915050565b6117df81611e8c565b82525050565b6117ee81611e9e565b82525050565b60006117ff82611de6565b6118098185611df1565b9350611819818560208601611ee1565b6118228161204d565b840191505092915050565b600061183a602383611df1565b91506118458261205e565b604082019050919050565b600061185d602283611df1565b9150611868826120ad565b604082019050919050565b6000611880602683611df1565b915061188b826120fc565b604082019050919050565b60006118a3602283611df1565b91506118ae8261214b565b604082019050919050565b60006118c6603083611df1565b91506118d18261219a565b604082019050919050565b60006118e9601d83611df1565b91506118f4826121e9565b602082019050919050565b600061190c602683611df1565b915061191782612212565b604082019050919050565b600061192f601983611df1565b915061193a82612261565b602082019050919050565b6000611952602083611df1565b915061195d8261228a565b602082019050919050565b6000611975602183611df1565b9150611980826122b3565b604082019050919050565b6000611998602583611df1565b91506119a382612302565b604082019050919050565b60006119bb602483611df1565b91506119c682612351565b604082019050919050565b60006119de602d83611df1565b91506119e9826123a0565b604082019050919050565b6000611a01602c83611df1565b9150611a0c826123ef565b604082019050919050565b6000611a24602583611df1565b9150611a2f8261243e565b604082019050919050565b6000611a47601f83611df1565b9150611a528261248d565b602082019050919050565b611a6681611eca565b82525050565b611a7581611ed4565b82525050565b6000602082019050611a9060008301846117d6565b92915050565b6000606082019050611aab60008301866117d6565b611ab860208301856117d6565b611ac56040830184611a5d565b949350505050565b6000604082019050611ae260008301856117d6565b611aef6020830184611a5d565b9392505050565b6000602082019050611b0b60008301846117e5565b92915050565b60006020820190508181036000830152611b2b81846117f4565b905092915050565b60006020820190508181036000830152611b4c8161182d565b9050919050565b60006020820190508181036000830152611b6c81611850565b9050919050565b60006020820190508181036000830152611b8c81611873565b9050919050565b60006020820190508181036000830152611bac81611896565b9050919050565b60006020820190508181036000830152611bcc816118b9565b9050919050565b60006020820190508181036000830152611bec816118dc565b9050919050565b60006020820190508181036000830152611c0c816118ff565b9050919050565b60006020820190508181036000830152611c2c81611922565b9050919050565b60006020820190508181036000830152611c4c81611945565b9050919050565b60006020820190508181036000830152611c6c81611968565b9050919050565b60006020820190508181036000830152611c8c8161198b565b9050919050565b60006020820190508181036000830152611cac816119ae565b9050919050565b60006020820190508181036000830152611ccc816119d1565b9050919050565b60006020820190508181036000830152611cec816119f4565b9050919050565b60006020820190508181036000830152611d0c81611a17565b9050919050565b60006020820190508181036000830152611d2c81611a3a565b9050919050565b6000602082019050611d486000830184611a5d565b92915050565b6000602082019050611d636000830184611a6c565b92915050565b6000611d73611d84565b9050611d7f8282611f46565b919050565b6000604051905090565b600067ffffffffffffffff821115611da957611da861201e565b5b602082029050602081019050919050565b600067ffffffffffffffff821115611dd557611dd461201e565b5b602082029050602081019050919050565b600081519050919050565b600082825260208201905092915050565b6000611e0d82611eca565b9150611e1883611eca565b9250827fffffffffffffffffffffffffffffffffffffffffffffffffffffffffffffffff03821115611e4d57611e4c611fc0565b5b828201905092915050565b6000611e6382611eca565b9150611e6e83611eca565b925082821015611e8157611e80611fc0565b5b828203905092915050565b6000611e9782611eaa565b9050919050565b60008115159050919050565b600073ffffffffffffffffffffffffffffffffffffffff82169050919050565b6000819050919050565b600060ff82169050919050565b60005b83811015611eff578082015181840152602081019050611ee4565b83811115611f0e576000848401525b50505050565b60006002820490506001821680611f2c57607f821691505b60208210811415611f4057611f3f611fef565b5b50919050565b611f4f8261204d565b810181811067ffffffffffffffff82111715611f6e57611f6d61201e565b5b80604052505050565b6000611f8282611eca565b91507fffffffffffffffffffffffffffffffffffffffffffffffffffffffffffffffff821415611fb557611fb4611fc0565b5b600182019050919050565b7f4e487b7100000000000000000000000000000000000000000000000000000000600052601160045260246000fd5b7f4e487b7100000000000000000000000000000000000000000000000000000000600052602260045260246000fd5b7f4e487b7100000000000000000000000000000000000000000000000000000000600052604160045260246000fd5b6000601f19601f8301169050919050565b7f45524332303a207472616e7366657220746f20746865207a65726f206164647260008201527f6573730000000000000000000000000000000000000000000000000000000000602082015250565b7f45524332303a206275726e20616d6f756e7420657863656564732062616c616e60008201527f6365000000000000000000000000000000000000000000000000000000000000602082015250565b7f4f776e61626c653a206e6577206f776e657220697320746865207a65726f206160008201527f6464726573730000000000000000000000000000000000000000000000000000602082015250565b7f45524332303a20617070726f766520746f20746865207a65726f20616464726560008201527f7373000000000000000000000000000000000000000000000000000000000000602082015250565b7f455843413a207472616e736665722066726f6d20636f6e747261637420746f2060008201527f726563697069656e74206661696c656400000000000000000000000000000000602082015250565b7f45524332303a20696e73756666696369656e7420616c6c6f77616e6365000000600082015250565b7f45524332303a207472616e7366657220616d6f756e742065786365656473206260008201527f616c616e63650000000000000000000000000000000000000000000000000000602082015250565b7f455843413a204d617820737570706c7920657863656564656400000000000000600082015250565b7f4f776e61626c653a2063616c6c6572206973206e6f7420746865206f776e6572600082015250565b7f45524332303a206275726e2066726f6d20746865207a65726f2061646472657360008201527f7300000000000000000000000000000000000000000000000000000000000000602082015250565b7f45524332303a207472616e736665722066726f6d20746865207a65726f20616460008201527f6472657373000000000000000000000000000000000000000000000000000000602082015250565b7f45524332303a20617070726f76652066726f6d20746865207a65726f2061646460008201527f7265737300000000000000000000000000000000000000000000000000000000602082015250565b7f455843413a207472616e736665722066726f6d2073656e64657220746f20636f60008201527f6e7472616374206661696c656400000000000000000000000000000000000000602082015250565b7f455843413a205f726563697069656e747320616e64205f616d6f756e7473206d60008201527f75737420626520657175616c0000000000000000000000000000000000000000602082015250565b7f45524332303a2064656372656173656420616c6c6f77616e63652062656c6f7760008201527f207a65726f000000000000000000000000000000000000000000000000000000602082015250565b7f45524332303a206d696e7420746f20746865207a65726f206164647265737300600082015250565b6124bf81611e8c565b81146124ca57600080fd5b50565b6124d681611e9e565b81146124e157600080fd5b50565b6124ed81611eca565b81146124f857600080fd5b5056fea2646970667358221220849d0f8a37d05932ecfb72bfcbba42d0a78452f6e109806f0bce464a37455d1064736f6c63430008010033",
  "linkReferences": {},
  "deployedLinkReferences": {}
}