{
  "_format": "hh-sol-artifact-1",
  "contractName": "Excalibur",
  "sourceName": "contracts/Excalibur.sol",
  "abi": [
    {
      "inputs": [],
      "stateMutability": "nonpayable",
      "type": "constructor"
    },
    {
      "anonymous": false,
      "inputs": [
        {
          "indexed": true,
          "internalType": "address",
          "name": "owner",
          "type": "address"
        },
        {
          "indexed": true,
          "internalType": "address",
          "name": "spender",
          "type": "address"
        },
        {
          "indexed": false,
          "internalType": "uint256",
          "name": "value",
          "type": "uint256"
        }
      ],
      "name": "Approval",
      "type": "event"
    },
    {
      "anonymous": false,
      "inputs": [
        {
          "indexed": true,
          "internalType": "address",
          "name": "previousOwner",
          "type": "address"
        },
        {
          "indexed": true,
          "internalType": "address",
          "name": "newOwner",
          "type": "address"
        }
      ],
      "name": "OwnershipTransferred",
      "type": "event"
    },
    {
      "anonymous": false,
      "inputs": [
        {
          "indexed": true,
          "internalType": "address",
          "name": "from",
          "type": "address"
        },
        {
          "indexed": true,
          "internalType": "address",
          "name": "to",
          "type": "address"
        },
        {
          "indexed": false,
          "internalType": "uint256",
          "name": "value",
          "type": "uint256"
        }
      ],
      "name": "Transfer",
      "type": "event"
    },
    {
      "inputs": [],
      "name": "MAX_SUPPLY",
      "outputs": [
        {
          "internalType": "uint256",
          "name": "",
          "type": "uint256"
        }
      ],
      "stateMutability": "view",
      "type": "function"
    },
    {
      "inputs": [
        {
          "internalType": "address",
          "name": "owner",
          "type": "address"
        },
        {
          "internalType": "address",
          "name": "spender",
          "type": "address"
        }
      ],
      "name": "allowance",
      "outputs": [
        {
          "internalType": "uint256",
          "name": "",
          "type": "uint256"
        }
      ],
      "stateMutability": "view",
      "type": "function"
    },
    {
      "inputs": [
        {
          "internalType": "address",
          "name": "spender",
          "type": "address"
        },
        {
          "internalType": "uint256",
          "name": "amount",
          "type": "uint256"
        }
      ],
      "name": "approve",
      "outputs": [
        {
          "internalType": "bool",
          "name": "",
          "type": "bool"
        }
      ],
      "stateMutability": "nonpayable",
      "type": "function"
    },
    {
      "inputs": [
        {
          "internalType": "address",
          "name": "account",
          "type": "address"
        }
      ],
      "name": "balanceOf",
      "outputs": [
        {
          "internalType": "uint256",
          "name": "",
          "type": "uint256"
        }
      ],
      "stateMutability": "view",
      "type": "function"
    },
    {
      "inputs": [
        {
          "internalType": "uint256",
          "name": "amount",
          "type": "uint256"
        }
      ],
      "name": "burn",
      "outputs": [],
      "stateMutability": "nonpayable",
      "type": "function"
    },
    {
      "inputs": [
        {
          "internalType": "address",
          "name": "account",
          "type": "address"
        },
        {
          "internalType": "uint256",
          "name": "amount",
          "type": "uint256"
        }
      ],
      "name": "burnFrom",
      "outputs": [],
      "stateMutability": "nonpayable",
      "type": "function"
    },
    {
      "inputs": [],
      "name": "decimals",
      "outputs": [
        {
          "internalType": "uint8",
          "name": "",
          "type": "uint8"
        }
      ],
      "stateMutability": "view",
      "type": "function"
    },
    {
      "inputs": [
        {
          "internalType": "address",
          "name": "spender",
          "type": "address"
        },
        {
          "internalType": "uint256",
          "name": "subtractedValue",
          "type": "uint256"
        }
      ],
      "name": "decreaseAllowance",
      "outputs": [
        {
          "internalType": "bool",
          "name": "",
          "type": "bool"
        }
      ],
      "stateMutability": "nonpayable",
      "type": "function"
    },
    {
      "inputs": [
        {
          "internalType": "address",
          "name": "spender",
          "type": "address"
        },
        {
          "internalType": "uint256",
          "name": "addedValue",
          "type": "uint256"
        }
      ],
      "name": "increaseAllowance",
      "outputs": [
        {
          "internalType": "bool",
          "name": "",
          "type": "bool"
        }
      ],
      "stateMutability": "nonpayable",
      "type": "function"
    },
    {
      "inputs": [
        {
          "internalType": "address",
          "name": "_to",
          "type": "address"
        },
        {
          "internalType": "uint256",
          "name": "_amount",
          "type": "uint256"
        }
      ],
      "name": "mint",
      "outputs": [],
      "stateMutability": "nonpayable",
      "type": "function"
    },
    {
      "inputs": [],
      "name": "name",
      "outputs": [
        {
          "internalType": "string",
          "name": "",
          "type": "string"
        }
      ],
      "stateMutability": "view",
      "type": "function"
    },
    {
      "inputs": [],
      "name": "owner",
      "outputs": [
        {
          "internalType": "address",
          "name": "",
          "type": "address"
        }
      ],
      "stateMutability": "view",
      "type": "function"
    },
    {
      "inputs": [],
      "name": "renounceOwnership",
      "outputs": [],
      "stateMutability": "nonpayable",
      "type": "function"
    },
    {
      "inputs": [],
      "name": "symbol",
      "outputs": [
        {
          "internalType": "string",
          "name": "",
          "type": "string"
        }
      ],
      "stateMutability": "view",
      "type": "function"
    },
    {
      "inputs": [],
      "name": "totalSupply",
      "outputs": [
        {
          "internalType": "uint256",
          "name": "",
          "type": "uint256"
        }
      ],
      "stateMutability": "view",
      "type": "function"
    },
    {
      "inputs": [
        {
          "internalType": "address",
          "name": "to",
          "type": "address"
        },
        {
          "internalType": "uint256",
          "name": "amount",
          "type": "uint256"
        }
      ],
      "name": "transfer",
      "outputs": [
        {
          "internalType": "bool",
          "name": "",
          "type": "bool"
        }
      ],
      "stateMutability": "nonpayable",
      "type": "function"
    },
    {
      "inputs": [
        {
          "internalType": "address[]",
          "name": "_recipients",
          "type": "address[]"
        },
        {
          "internalType": "uint256[]",
          "name": "_amounts",
          "type": "uint256[]"
        }
      ],
      "name": "transferBatch",
      "outputs": [],
      "stateMutability": "nonpayable",
      "type": "function"
    },
    {
      "inputs": [
        {
          "internalType": "address",
          "name": "from",
          "type": "address"
        },
        {
          "internalType": "address",
          "name": "to",
          "type": "address"
        },
        {
          "internalType": "uint256",
          "name": "amount",
          "type": "uint256"
        }
      ],
      "name": "transferFrom",
      "outputs": [
        {
          "internalType": "bool",
          "name": "",
          "type": "bool"
        }
      ],
      "stateMutability": "nonpayable",
      "type": "function"
    },
    {
      "inputs": [
        {
          "internalType": "address",
          "name": "newOwner",
          "type": "address"
        }
      ],
      "name": "transferOwnership",
      "outputs": [],
      "stateMutability": "nonpayable",
      "type": "function"
    }
  ],
  "bytecode": "0x60806040523480156200001157600080fd5b506040518060400160405280600981526020017f455843414c4942555200000000000000000000000000000000000000000000008152506040518060400160405280600481526020017f4558434100000000000000000000000000000000000000000000000000000000815250816003908051906020019062000096929190620001a6565b508060049080519060200190620000af929190620001a6565b505050620000d2620000c6620000d860201b60201c565b620000e060201b60201c565b620002bb565b600033905090565b6000600560009054906101000a900473ffffffffffffffffffffffffffffffffffffffff16905081600560006101000a81548173ffffffffffffffffffffffffffffffffffffffff021916908373ffffffffffffffffffffffffffffffffffffffff1602179055508173ffffffffffffffffffffffffffffffffffffffff168173ffffffffffffffffffffffffffffffffffffffff167f8be0079c531659141344cd1fd0a4f28419497f9722a3daafe3b4186f6b6457e060405160405180910390a35050565b828054620001b49062000256565b90600052602060002090601f016020900481019282620001d8576000855562000224565b82601f10620001f357805160ff191683800117855562000224565b8280016001018555821562000224579182015b828111156200022357825182559160200191906001019062000206565b5b50905062000233919062000237565b5090565b5b808211156200025257600081600090555060010162000238565b5090565b600060028204905060018216806200026f57607f821691505b602082108114156200028657620002856200028c565b5b50919050565b7f4e487b7100000000000000000000000000000000000000000000000000000000600052602260045260246000fd5b6123a180620002cb6000396000f3fe608060405234801561001057600080fd5b50600436106101215760003560e01c806342966c68116100ad57806395d89b411161007157806395d89b41146102f6578063a457c2d714610314578063a9059cbb14610344578063dd62ed3e14610374578063f2fde38b146103a457610121565b806342966c681461026657806370a0823114610282578063715018a6146102b257806379cc6790146102bc5780638da5cb5b146102d857610121565b8063313ce567116100f4578063313ce567146101c257806332cb6b0c146101e057806339509351146101fe5780633b3e672f1461022e57806340c10f191461024a57610121565b806306fdde0314610126578063095ea7b31461014457806318160ddd1461017457806323b872dd14610192575b600080fd5b61012e6103c0565b60405161013b9190611a5f565b60405180910390f35b61015e60048036038101906101599190611670565b610452565b60405161016b9190611a44565b60405180910390f35b61017c610475565b6040516101899190611c41565b60405180910390f35b6101ac60048036038101906101a79190611621565b61047f565b6040516101b99190611a44565b60405180910390f35b6101ca6104ae565b6040516101d79190611c5c565b60405180910390f35b6101e86104b7565b6040516101f59190611c41565b60405180910390f35b61021860048036038101906102139190611670565b6104c7565b6040516102259190611a44565b60405180910390f35b610248600480360381019061024391906116ac565b6104fe565b005b610264600480360381019061025f9190611670565b610784565b005b610280600480360381019061027b9190611741565b6107fb565b005b61029c600480360381019061029791906115bc565b61080f565b6040516102a99190611c41565b60405180910390f35b6102ba610857565b005b6102d660048036038101906102d19190611670565b61086b565b005b6102e061088b565b6040516102ed91906119c9565b60405180910390f35b6102fe6108b5565b60405161030b9190611a5f565b60405180910390f35b61032e60048036038101906103299190611670565b610947565b60405161033b9190611a44565b60405180910390f35b61035e60048036038101906103599190611670565b6109be565b60405161036b9190611a44565b60405180910390f35b61038e600480360381019061038991906115e5565b6109e1565b60405161039b9190611c41565b60405180910390f35b6103be60048036038101906103b991906115bc565b610a68565b005b6060600380546103cf90611e22565b80601f01602080910402602001604051908101604052809291908181526020018280546103fb90611e22565b80156104485780601f1061041d57610100808354040283529160200191610448565b820191906000526020600020905b81548152906001019060200180831161042b57829003601f168201915b5050505050905090565b60008061045d610aec565b905061046a818585610af4565b600191505092915050565b6000600254905090565b60008061048a610aec565b9050610497858285610cbf565b6104a2858585610d4b565b60019150509392505050565b60006012905090565b6b204fce5e3e2502611000000081565b6000806104d2610aec565b90506104f38185856104e485896109e1565b6104ee9190611d10565b610af4565b600191505092915050565b8051825114610542576040517f08c379a000000000000000000000000000000000000000000000000000000000815260040161053990611be1565b60405180910390fd5b6000805b83518110156105b057828181518110610588577f4e487b7100000000000000000000000000000000000000000000000000000000600052603260045260246000fd5b60200260200101518261059b9190611d10565b915080806105a890611e85565b915050610546565b503073ffffffffffffffffffffffffffffffffffffffff166323b872dd3330846040518463ffffffff1660e01b81526004016105ee939291906119e4565b602060405180830381600087803b15801561060857600080fd5b505af115801561061c573d6000803e3d6000fd5b505050506040513d601f19601f820116820180604052508101906106409190611718565b61064957600080fd5b60005b835181101561077e573073ffffffffffffffffffffffffffffffffffffffff1663a9059cbb8583815181106106aa577f4e487b7100000000000000000000000000000000000000000000000000000000600052603260045260246000fd5b60200260200101518584815181106106eb577f4e487b7100000000000000000000000000000000000000000000000000000000600052603260045260246000fd5b60200260200101516040518363ffffffff1660e01b8152600401610710929190611a1b565b602060405180830381600087803b15801561072a57600080fd5b505af115801561073e573d6000803e3d6000fd5b505050506040513d601f19601f820116820180604052508101906107629190611718565b61076b57600080fd5b808061077690611e85565b91505061064c565b50505050565b61078c610fcc565b6b204fce5e3e25026110000000816107a2610475565b6107ac9190611d10565b11156107ed576040517f08c379a00000000000000000000000000000000000000000000000000000000081526004016107e490611b41565b60405180910390fd5b6107f7828261104a565b5050565b61080c610806610aec565b826111aa565b50565b60008060008373ffffffffffffffffffffffffffffffffffffffff1673ffffffffffffffffffffffffffffffffffffffff168152602001908152602001600020549050919050565b61085f610fcc565b6108696000611381565b565b61087d82610877610aec565b83610cbf565b61088782826111aa565b5050565b6000600560009054906101000a900473ffffffffffffffffffffffffffffffffffffffff16905090565b6060600480546108c490611e22565b80601f01602080910402602001604051908101604052809291908181526020018280546108f090611e22565b801561093d5780601f106109125761010080835404028352916020019161093d565b820191906000526020600020905b81548152906001019060200180831161092057829003601f168201915b5050505050905090565b600080610952610aec565b9050600061096082866109e1565b9050838110156109a5576040517f08c379a000000000000000000000000000000000000000000000000000000000815260040161099c90611c01565b60405180910390fd5b6109b28286868403610af4565b60019250505092915050565b6000806109c9610aec565b90506109d6818585610d4b565b600191505092915050565b6000600160008473ffffffffffffffffffffffffffffffffffffffff1673ffffffffffffffffffffffffffffffffffffffff16815260200190815260200160002060008373ffffffffffffffffffffffffffffffffffffffff1673ffffffffffffffffffffffffffffffffffffffff16815260200190815260200160002054905092915050565b610a70610fcc565b600073ffffffffffffffffffffffffffffffffffffffff168173ffffffffffffffffffffffffffffffffffffffff161415610ae0576040517f08c379a0000000000000000000000000000000000000000000000000000000008152600401610ad790611ac1565b60405180910390fd5b610ae981611381565b50565b600033905090565b600073ffffffffffffffffffffffffffffffffffffffff168373ffffffffffffffffffffffffffffffffffffffff161415610b64576040517f08c379a0000000000000000000000000000000000000000000000000000000008152600401610b5b90611bc1565b60405180910390fd5b600073ffffffffffffffffffffffffffffffffffffffff168273ffffffffffffffffffffffffffffffffffffffff161415610bd4576040517f08c379a0000000000000000000000000000000000000000000000000000000008152600401610bcb90611ae1565b60405180910390fd5b80600160008573ffffffffffffffffffffffffffffffffffffffff1673ffffffffffffffffffffffffffffffffffffffff16815260200190815260200160002060008473ffffffffffffffffffffffffffffffffffffffff1673ffffffffffffffffffffffffffffffffffffffff168152602001908152602001600020819055508173ffffffffffffffffffffffffffffffffffffffff168373ffffffffffffffffffffffffffffffffffffffff167f8c5be1e5ebec7d5bd14f71427d1e84f3dd0314c0f7b2291e5b200ac8c7c3b92583604051610cb29190611c41565b60405180910390a3505050565b6000610ccb84846109e1565b90507fffffffffffffffffffffffffffffffffffffffffffffffffffffffffffffffff8114610d455781811015610d37576040517f08c379a0000000000000000000000000000000000000000000000000000000008152600401610d2e90611b01565b60405180910390fd5b610d448484848403610af4565b5b50505050565b600073ffffffffffffffffffffffffffffffffffffffff168373ffffffffffffffffffffffffffffffffffffffff161415610dbb576040517f08c379a0000000000000000000000000000000000000000000000000000000008152600401610db290611ba1565b60405180910390fd5b600073ffffffffffffffffffffffffffffffffffffffff168273ffffffffffffffffffffffffffffffffffffffff161415610e2b576040517f08c379a0000000000000000000000000000000000000000000000000000000008152600401610e2290611a81565b60405180910390fd5b610e36838383611447565b60008060008573ffffffffffffffffffffffffffffffffffffffff1673ffffffffffffffffffffffffffffffffffffffff16815260200190815260200160002054905081811015610ebc576040517f08c379a0000000000000000000000000000000000000000000000000000000008152600401610eb390611b21565b60405180910390fd5b8181036000808673ffffffffffffffffffffffffffffffffffffffff1673ffffffffffffffffffffffffffffffffffffffff16815260200190815260200160002081905550816000808573ffffffffffffffffffffffffffffffffffffffff1673ffffffffffffffffffffffffffffffffffffffff1681526020019081526020016000206000828254610f4f9190611d10565b925050819055508273ffffffffffffffffffffffffffffffffffffffff168473ffffffffffffffffffffffffffffffffffffffff167fddf252ad1be2c89b69c2b068fc378daa952ba7f163c4a11628f55a4df523b3ef84604051610fb39190611c41565b60405180910390a3610fc684848461144c565b50505050565b610fd4610aec565b73ffffffffffffffffffffffffffffffffffffffff16610ff261088b565b73ffffffffffffffffffffffffffffffffffffffff1614611048576040517f08c379a000000000000000000000000000000000000000000000000000000000815260040161103f90611b61565b60405180910390fd5b565b600073ffffffffffffffffffffffffffffffffffffffff168273ffffffffffffffffffffffffffffffffffffffff1614156110ba576040517f08c379a00000000000000000000000000000000000000000000000000000000081526004016110b190611c21565b60405180910390fd5b6110c660008383611447565b80600260008282546110d89190611d10565b92505081905550806000808473ffffffffffffffffffffffffffffffffffffffff1673ffffffffffffffffffffffffffffffffffffffff168152602001908152602001600020600082825461112d9190611d10565b925050819055508173ffffffffffffffffffffffffffffffffffffffff16600073ffffffffffffffffffffffffffffffffffffffff167fddf252ad1be2c89b69c2b068fc378daa952ba7f163c4a11628f55a4df523b3ef836040516111929190611c41565b60405180910390a36111a66000838361144c565b5050565b600073ffffffffffffffffffffffffffffffffffffffff168273ffffffffffffffffffffffffffffffffffffffff16141561121a576040517f08c379a000000000000000000000000000000000000000000000000000000000815260040161121190611b81565b60405180910390fd5b61122682600083611447565b60008060008473ffffffffffffffffffffffffffffffffffffffff1673ffffffffffffffffffffffffffffffffffffffff168152602001908152602001600020549050818110156112ac576040517f08c379a00000000000000000000000000000000000000000000000000000000081526004016112a390611aa1565b60405180910390fd5b8181036000808573ffffffffffffffffffffffffffffffffffffffff1673ffffffffffffffffffffffffffffffffffffffff1681526020019081526020016000208190555081600260008282546113039190611d66565b92505081905550600073ffffffffffffffffffffffffffffffffffffffff168373ffffffffffffffffffffffffffffffffffffffff167fddf252ad1be2c89b69c2b068fc378daa952ba7f163c4a11628f55a4df523b3ef846040516113689190611c41565b60405180910390a361137c8360008461144c565b505050565b6000600560009054906101000a900473ffffffffffffffffffffffffffffffffffffffff16905081600560006101000a81548173ffffffffffffffffffffffffffffffffffffffff021916908373ffffffffffffffffffffffffffffffffffffffff1602179055508173ffffffffffffffffffffffffffffffffffffffff168173ffffffffffffffffffffffffffffffffffffffff167f8be0079c531659141344cd1fd0a4f28419497f9722a3daafe3b4186f6b6457e060405160405180910390a35050565b505050565b505050565b600061146461145f84611c9c565b611c77565b9050808382526020820190508285602086028201111561148357600080fd5b60005b858110156114b357816114998882611529565b845260208401935060208301925050600181019050611486565b5050509392505050565b60006114d06114cb84611cc8565b611c77565b905080838252602082019050828560208602820111156114ef57600080fd5b60005b8581101561151f578161150588826115a7565b8452602084019350602083019250506001810190506114f2565b5050509392505050565b60008135905061153881612326565b92915050565b600082601f83011261154f57600080fd5b813561155f848260208601611451565b91505092915050565b600082601f83011261157957600080fd5b81356115898482602086016114bd565b91505092915050565b6000815190506115a18161233d565b92915050565b6000813590506115b681612354565b92915050565b6000602082840312156115ce57600080fd5b60006115dc84828501611529565b91505092915050565b600080604083850312156115f857600080fd5b600061160685828601611529565b925050602061161785828601611529565b9150509250929050565b60008060006060848603121561163657600080fd5b600061164486828701611529565b935050602061165586828701611529565b9250506040611666868287016115a7565b9150509250925092565b6000806040838503121561168357600080fd5b600061169185828601611529565b92505060206116a2858286016115a7565b9150509250929050565b600080604083850312156116bf57600080fd5b600083013567ffffffffffffffff8111156116d957600080fd5b6116e58582860161153e565b925050602083013567ffffffffffffffff81111561170257600080fd5b61170e85828601611568565b9150509250929050565b60006020828403121561172a57600080fd5b600061173884828501611592565b91505092915050565b60006020828403121561175357600080fd5b6000611761848285016115a7565b91505092915050565b61177381611d9a565b82525050565b61178281611dac565b82525050565b600061179382611cf4565b61179d8185611cff565b93506117ad818560208601611def565b6117b681611f5b565b840191505092915050565b60006117ce602383611cff565b91506117d982611f6c565b604082019050919050565b60006117f1602283611cff565b91506117fc82611fbb565b604082019050919050565b6000611814602683611cff565b915061181f8261200a565b604082019050919050565b6000611837602283611cff565b915061184282612059565b604082019050919050565b600061185a601d83611cff565b9150611865826120a8565b602082019050919050565b600061187d602683611cff565b9150611888826120d1565b604082019050919050565b60006118a0601983611cff565b91506118ab82612120565b602082019050919050565b60006118c3602083611cff565b91506118ce82612149565b602082019050919050565b60006118e6602183611cff565b91506118f182612172565b604082019050919050565b6000611909602583611cff565b9150611914826121c1565b604082019050919050565b600061192c602483611cff565b915061193782612210565b604082019050919050565b600061194f602c83611cff565b915061195a8261225f565b604082019050919050565b6000611972602583611cff565b915061197d826122ae565b604082019050919050565b6000611995601f83611cff565b91506119a0826122fd565b602082019050919050565b6119b481611dd8565b82525050565b6119c381611de2565b82525050565b60006020820190506119de600083018461176a565b92915050565b60006060820190506119f9600083018661176a565b611a06602083018561176a565b611a1360408301846119ab565b949350505050565b6000604082019050611a30600083018561176a565b611a3d60208301846119ab565b9392505050565b6000602082019050611a596000830184611779565b92915050565b60006020820190508181036000830152611a798184611788565b905092915050565b60006020820190508181036000830152611a9a816117c1565b9050919050565b60006020820190508181036000830152611aba816117e4565b9050919050565b60006020820190508181036000830152611ada81611807565b9050919050565b60006020820190508181036000830152611afa8161182a565b9050919050565b60006020820190508181036000830152611b1a8161184d565b9050919050565b60006020820190508181036000830152611b3a81611870565b9050919050565b60006020820190508181036000830152611b5a81611893565b9050919050565b60006020820190508181036000830152611b7a816118b6565b9050919050565b60006020820190508181036000830152611b9a816118d9565b9050919050565b60006020820190508181036000830152611bba816118fc565b9050919050565b60006020820190508181036000830152611bda8161191f565b9050919050565b60006020820190508181036000830152611bfa81611942565b9050919050565b60006020820190508181036000830152611c1a81611965565b9050919050565b60006020820190508181036000830152611c3a81611988565b9050919050565b6000602082019050611c5660008301846119ab565b92915050565b6000602082019050611c7160008301846119ba565b92915050565b6000611c81611c92565b9050611c8d8282611e54565b919050565b6000604051905090565b600067ffffffffffffffff821115611cb757611cb6611f2c565b5b602082029050602081019050919050565b600067ffffffffffffffff821115611ce357611ce2611f2c565b5b602082029050602081019050919050565b600081519050919050565b600082825260208201905092915050565b6000611d1b82611dd8565b9150611d2683611dd8565b9250827fffffffffffffffffffffffffffffffffffffffffffffffffffffffffffffffff03821115611d5b57611d5a611ece565b5b828201905092915050565b6000611d7182611dd8565b9150611d7c83611dd8565b925082821015611d8f57611d8e611ece565b5b828203905092915050565b6000611da582611db8565b9050919050565b60008115159050919050565b600073ffffffffffffffffffffffffffffffffffffffff82169050919050565b6000819050919050565b600060ff82169050919050565b60005b83811015611e0d578082015181840152602081019050611df2565b83811115611e1c576000848401525b50505050565b60006002820490506001821680611e3a57607f821691505b60208210811415611e4e57611e4d611efd565b5b50919050565b611e5d82611f5b565b810181811067ffffffffffffffff82111715611e7c57611e7b611f2c565b5b80604052505050565b6000611e9082611dd8565b91507fffffffffffffffffffffffffffffffffffffffffffffffffffffffffffffffff821415611ec357611ec2611ece565b5b600182019050919050565b7f4e487b7100000000000000000000000000000000000000000000000000000000600052601160045260246000fd5b7f4e487b7100000000000000000000000000000000000000000000000000000000600052602260045260246000fd5b7f4e487b7100000000000000000000000000000000000000000000000000000000600052604160045260246000fd5b6000601f19601f8301169050919050565b7f45524332303a207472616e7366657220746f20746865207a65726f206164647260008201527f6573730000000000000000000000000000000000000000000000000000000000602082015250565b7f45524332303a206275726e20616d6f756e7420657863656564732062616c616e60008201527f6365000000000000000000000000000000000000000000000000000000000000602082015250565b7f4f776e61626c653a206e6577206f776e657220697320746865207a65726f206160008201527f6464726573730000000000000000000000000000000000000000000000000000602082015250565b7f45524332303a20617070726f766520746f20746865207a65726f20616464726560008201527f7373000000000000000000000000000000000000000000000000000000000000602082015250565b7f45524332303a20696e73756666696369656e7420616c6c6f77616e6365000000600082015250565b7f45524332303a207472616e7366657220616d6f756e742065786365656473206260008201527f616c616e63650000000000000000000000000000000000000000000000000000602082015250565b7f455843413a204d617820737570706c7920657863656564656400000000000000600082015250565b7f4f776e61626c653a2063616c6c6572206973206e6f7420746865206f776e6572600082015250565b7f45524332303a206275726e2066726f6d20746865207a65726f2061646472657360008201527f7300000000000000000000000000000000000000000000000000000000000000602082015250565b7f45524332303a207472616e736665722066726f6d20746865207a65726f20616460008201527f6472657373000000000000000000000000000000000000000000000000000000602082015250565b7f45524332303a20617070726f76652066726f6d20746865207a65726f2061646460008201527f7265737300000000000000000000000000000000000000000000000000000000602082015250565b7f455843413a205f726563697069656e747320616e64205f616d6f756e7473206d60008201527f75737420626520657175616c0000000000000000000000000000000000000000602082015250565b7f45524332303a2064656372656173656420616c6c6f77616e63652062656c6f7760008201527f207a65726f000000000000000000000000000000000000000000000000000000602082015250565b7f45524332303a206d696e7420746f20746865207a65726f206164647265737300600082015250565b61232f81611d9a565b811461233a57600080fd5b50565b61234681611dac565b811461235157600080fd5b50565b61235d81611dd8565b811461236857600080fd5b5056fea26469706673582212204add2d0712212e7f4d598860ab5b6d49ab26e45a07e585b7dac586cc8523790564736f6c63430008010033",
  "linkReferences": {},
  "deployedLinkReferences": {}
}