{
  "_format": "hh-sol-artifact-1",
  "contractName": "LabradoPair",
  "sourceName": "contracts/DEX/swap-core/LabradoPair.sol",
  "abi": [
    {
      "inputs": [],
      "payable": false,
      "stateMutability": "nonpayable",
      "type": "constructor"
    },
    {
      "anonymous": false,
      "inputs": [
        {
          "indexed": true,
          "internalType": "address",
          "name": "owner",
          "type": "address"
        },
        {
          "indexed": true,
          "internalType": "address",
          "name": "spender",
          "type": "address"
        },
        {
          "indexed": false,
          "internalType": "uint256",
          "name": "value",
          "type": "uint256"
        }
      ],
      "name": "Approval",
      "type": "event"
    },
    {
      "anonymous": false,
      "inputs": [
        {
          "indexed": true,
          "internalType": "address",
          "name": "sender",
          "type": "address"
        },
        {
          "indexed": false,
          "internalType": "uint256",
          "name": "amount0",
          "type": "uint256"
        },
        {
          "indexed": false,
          "internalType": "uint256",
          "name": "amount1",
          "type": "uint256"
        },
        {
          "indexed": true,
          "internalType": "address",
          "name": "to",
          "type": "address"
        }
      ],
      "name": "Burn",
      "type": "event"
    },
    {
      "anonymous": false,
      "inputs": [
        {
          "indexed": true,
          "internalType": "address",
          "name": "sender",
          "type": "address"
        },
        {
          "indexed": false,
          "internalType": "uint256",
          "name": "amount0",
          "type": "uint256"
        },
        {
          "indexed": false,
          "internalType": "uint256",
          "name": "amount1",
          "type": "uint256"
        }
      ],
      "name": "Mint",
      "type": "event"
    },
    {
      "anonymous": false,
      "inputs": [
        {
          "indexed": true,
          "internalType": "address",
          "name": "sender",
          "type": "address"
        },
        {
          "indexed": false,
          "internalType": "uint256",
          "name": "amount0In",
          "type": "uint256"
        },
        {
          "indexed": false,
          "internalType": "uint256",
          "name": "amount1In",
          "type": "uint256"
        },
        {
          "indexed": false,
          "internalType": "uint256",
          "name": "amount0Out",
          "type": "uint256"
        },
        {
          "indexed": false,
          "internalType": "uint256",
          "name": "amount1Out",
          "type": "uint256"
        },
        {
          "indexed": true,
          "internalType": "address",
          "name": "to",
          "type": "address"
        }
      ],
      "name": "Swap",
      "type": "event"
    },
    {
      "anonymous": false,
      "inputs": [
        {
          "indexed": false,
          "internalType": "uint112",
          "name": "reserve0",
          "type": "uint112"
        },
        {
          "indexed": false,
          "internalType": "uint112",
          "name": "reserve1",
          "type": "uint112"
        }
      ],
      "name": "Sync",
      "type": "event"
    },
    {
      "anonymous": false,
      "inputs": [
        {
          "indexed": true,
          "internalType": "address",
          "name": "from",
          "type": "address"
        },
        {
          "indexed": true,
          "internalType": "address",
          "name": "to",
          "type": "address"
        },
        {
          "indexed": false,
          "internalType": "uint256",
          "name": "value",
          "type": "uint256"
        }
      ],
      "name": "Transfer",
      "type": "event"
    },
    {
      "constant": true,
      "inputs": [],
      "name": "DOMAIN_SEPARATOR",
      "outputs": [
        {
          "internalType": "bytes32",
          "name": "",
          "type": "bytes32"
        }
      ],
      "payable": false,
      "stateMutability": "view",
      "type": "function"
    },
    {
      "constant": true,
      "inputs": [],
      "name": "MINIMUM_LIQUIDITY",
      "outputs": [
        {
          "internalType": "uint256",
          "name": "",
          "type": "uint256"
        }
      ],
      "payable": false,
      "stateMutability": "view",
      "type": "function"
    },
    {
      "constant": true,
      "inputs": [],
      "name": "PERMIT_TYPEHASH",
      "outputs": [
        {
          "internalType": "bytes32",
          "name": "",
          "type": "bytes32"
        }
      ],
      "payable": false,
      "stateMutability": "view",
      "type": "function"
    },
    {
      "constant": true,
      "inputs": [
        {
          "internalType": "address",
          "name": "",
          "type": "address"
        },
        {
          "internalType": "address",
          "name": "",
          "type": "address"
        }
      ],
      "name": "allowance",
      "outputs": [
        {
          "internalType": "uint256",
          "name": "",
          "type": "uint256"
        }
      ],
      "payable": false,
      "stateMutability": "view",
      "type": "function"
    },
    {
      "constant": false,
      "inputs": [
        {
          "internalType": "address",
          "name": "spender",
          "type": "address"
        },
        {
          "internalType": "uint256",
          "name": "value",
          "type": "uint256"
        }
      ],
      "name": "approve",
      "outputs": [
        {
          "internalType": "bool",
          "name": "",
          "type": "bool"
        }
      ],
      "payable": false,
      "stateMutability": "nonpayable",
      "type": "function"
    },
    {
      "constant": true,
      "inputs": [
        {
          "internalType": "address",
          "name": "",
          "type": "address"
        }
      ],
      "name": "balanceOf",
      "outputs": [
        {
          "internalType": "uint256",
          "name": "",
          "type": "uint256"
        }
      ],
      "payable": false,
      "stateMutability": "view",
      "type": "function"
    },
    {
      "constant": false,
      "inputs": [
        {
          "internalType": "address",
          "name": "to",
          "type": "address"
        }
      ],
      "name": "burn",
      "outputs": [
        {
          "internalType": "uint256",
          "name": "amount0",
          "type": "uint256"
        },
        {
          "internalType": "uint256",
          "name": "amount1",
          "type": "uint256"
        }
      ],
      "payable": false,
      "stateMutability": "nonpayable",
      "type": "function"
    },
    {
      "constant": true,
      "inputs": [],
      "name": "decimals",
      "outputs": [
        {
          "internalType": "uint8",
          "name": "",
          "type": "uint8"
        }
      ],
      "payable": false,
      "stateMutability": "view",
      "type": "function"
    },
    {
      "constant": true,
      "inputs": [],
      "name": "factory",
      "outputs": [
        {
          "internalType": "address",
          "name": "",
          "type": "address"
        }
      ],
      "payable": false,
      "stateMutability": "view",
      "type": "function"
    },
    {
      "constant": true,
      "inputs": [],
      "name": "feeSwap",
      "outputs": [
        {
          "internalType": "uint256",
          "name": "",
          "type": "uint256"
        }
      ],
      "payable": false,
      "stateMutability": "view",
      "type": "function"
    },
    {
      "constant": true,
      "inputs": [],
      "name": "getReserves",
      "outputs": [
        {
          "internalType": "uint112",
          "name": "_reserve0",
          "type": "uint112"
        },
        {
          "internalType": "uint112",
          "name": "_reserve1",
          "type": "uint112"
        },
        {
          "internalType": "uint32",
          "name": "_blockTimestampLast",
          "type": "uint32"
        }
      ],
      "payable": false,
      "stateMutability": "view",
      "type": "function"
    },
    {
      "constant": false,
      "inputs": [
        {
          "internalType": "address",
          "name": "_token0",
          "type": "address"
        },
        {
          "internalType": "address",
          "name": "_token1",
          "type": "address"
        }
      ],
      "name": "initialize",
      "outputs": [],
      "payable": false,
      "stateMutability": "nonpayable",
      "type": "function"
    },
    {
      "constant": true,
      "inputs": [
        {
          "internalType": "address",
          "name": "_routers",
          "type": "address"
        }
      ],
      "name": "isRouter",
      "outputs": [
        {
          "internalType": "bool",
          "name": "",
          "type": "bool"
        }
      ],
      "payable": false,
      "stateMutability": "view",
      "type": "function"
    },
    {
      "constant": true,
      "inputs": [],
      "name": "kLast",
      "outputs": [
        {
          "internalType": "uint256",
          "name": "",
          "type": "uint256"
        }
      ],
      "payable": false,
      "stateMutability": "view",
      "type": "function"
    },
    {
      "constant": false,
      "inputs": [
        {
          "internalType": "address",
          "name": "to",
          "type": "address"
        }
      ],
      "name": "mint",
      "outputs": [
        {
          "internalType": "uint256",
          "name": "liquidity",
          "type": "uint256"
        }
      ],
      "payable": false,
      "stateMutability": "nonpayable",
      "type": "function"
    },
    {
      "constant": false,
      "inputs": [
        {
          "internalType": "address[]",
          "name": "_routers",
          "type": "address[]"
        },
        {
          "internalType": "bool[]",
          "name": "_status",
          "type": "bool[]"
        }
      ],
      "name": "multiSetRouters",
      "outputs": [
        {
          "internalType": "bool",
          "name": "",
          "type": "bool"
        }
      ],
      "payable": false,
      "stateMutability": "nonpayable",
      "type": "function"
    },
    {
      "constant": true,
      "inputs": [],
      "name": "name",
      "outputs": [
        {
          "internalType": "string",
          "name": "",
          "type": "string"
        }
      ],
      "payable": false,
      "stateMutability": "view",
      "type": "function"
    },
    {
      "constant": true,
      "inputs": [
        {
          "internalType": "address",
          "name": "",
          "type": "address"
        }
      ],
      "name": "nonces",
      "outputs": [
        {
          "internalType": "uint256",
          "name": "",
          "type": "uint256"
        }
      ],
      "payable": false,
      "stateMutability": "view",
      "type": "function"
    },
    {
      "constant": true,
      "inputs": [],
      "name": "openAddLiquidity",
      "outputs": [
        {
          "internalType": "bool",
          "name": "",
          "type": "bool"
        }
      ],
      "payable": false,
      "stateMutability": "view",
      "type": "function"
    },
    {
      "constant": true,
      "inputs": [],
      "name": "openSwap",
      "outputs": [
        {
          "internalType": "bool",
          "name": "",
          "type": "bool"
        }
      ],
      "payable": false,
      "stateMutability": "view",
      "type": "function"
    },
    {
      "constant": false,
      "inputs": [
        {
          "internalType": "address",
          "name": "owner",
          "type": "address"
        },
        {
          "internalType": "address",
          "name": "spender",
          "type": "address"
        },
        {
          "internalType": "uint256",
          "name": "value",
          "type": "uint256"
        },
        {
          "internalType": "uint256",
          "name": "deadline",
          "type": "uint256"
        },
        {
          "internalType": "uint8",
          "name": "v",
          "type": "uint8"
        },
        {
          "internalType": "bytes32",
          "name": "r",
          "type": "bytes32"
        },
        {
          "internalType": "bytes32",
          "name": "s",
          "type": "bytes32"
        }
      ],
      "name": "permit",
      "outputs": [],
      "payable": false,
      "stateMutability": "nonpayable",
      "type": "function"
    },
    {
      "constant": true,
      "inputs": [],
      "name": "price0CumulativeLast",
      "outputs": [
        {
          "internalType": "uint256",
          "name": "",
          "type": "uint256"
        }
      ],
      "payable": false,
      "stateMutability": "view",
      "type": "function"
    },
    {
      "constant": true,
      "inputs": [],
      "name": "price1CumulativeLast",
      "outputs": [
        {
          "internalType": "uint256",
          "name": "",
          "type": "uint256"
        }
      ],
      "payable": false,
      "stateMutability": "view",
      "type": "function"
    },
    {
      "constant": false,
      "inputs": [
        {
          "internalType": "uint256",
          "name": "_feeSwap",
          "type": "uint256"
        }
      ],
      "name": "setupFeeSwap",
      "outputs": [
        {
          "internalType": "bool",
          "name": "",
          "type": "bool"
        }
      ],
      "payable": false,
      "stateMutability": "nonpayable",
      "type": "function"
    },
    {
      "constant": false,
      "inputs": [
        {
          "internalType": "bool",
          "name": "_status",
          "type": "bool"
        }
      ],
      "name": "setupOpenAddLiquidity",
      "outputs": [
        {
          "internalType": "bool",
          "name": "",
          "type": "bool"
        }
      ],
      "payable": false,
      "stateMutability": "nonpayable",
      "type": "function"
    },
    {
      "constant": false,
      "inputs": [
        {
          "internalType": "bool",
          "name": "_status",
          "type": "bool"
        }
      ],
      "name": "setupOpenSwap",
      "outputs": [
        {
          "internalType": "bool",
          "name": "",
          "type": "bool"
        }
      ],
      "payable": false,
      "stateMutability": "nonpayable",
      "type": "function"
    },
    {
      "constant": false,
      "inputs": [
        {
          "internalType": "address",
          "name": "to",
          "type": "address"
        }
      ],
      "name": "skim",
      "outputs": [],
      "payable": false,
      "stateMutability": "nonpayable",
      "type": "function"
    },
    {
      "constant": false,
      "inputs": [
        {
          "internalType": "uint256",
          "name": "amount0Out",
          "type": "uint256"
        },
        {
          "internalType": "uint256",
          "name": "amount1Out",
          "type": "uint256"
        },
        {
          "internalType": "address",
          "name": "to",
          "type": "address"
        },
        {
          "internalType": "bytes",
          "name": "data",
          "type": "bytes"
        }
      ],
      "name": "swap",
      "outputs": [],
      "payable": false,
      "stateMutability": "nonpayable",
      "type": "function"
    },
    {
      "constant": true,
      "inputs": [],
      "name": "symbol",
      "outputs": [
        {
          "internalType": "string",
          "name": "",
          "type": "string"
        }
      ],
      "payable": false,
      "stateMutability": "view",
      "type": "function"
    },
    {
      "constant": false,
      "inputs": [],
      "name": "sync",
      "outputs": [],
      "payable": false,
      "stateMutability": "nonpayable",
      "type": "function"
    },
    {
      "constant": true,
      "inputs": [],
      "name": "token0",
      "outputs": [
        {
          "internalType": "address",
          "name": "",
          "type": "address"
        }
      ],
      "payable": false,
      "stateMutability": "view",
      "type": "function"
    },
    {
      "constant": true,
      "inputs": [],
      "name": "token1",
      "outputs": [
        {
          "internalType": "address",
          "name": "",
          "type": "address"
        }
      ],
      "payable": false,
      "stateMutability": "view",
      "type": "function"
    },
    {
      "constant": true,
      "inputs": [],
      "name": "totalSupply",
      "outputs": [
        {
          "internalType": "uint256",
          "name": "",
          "type": "uint256"
        }
      ],
      "payable": false,
      "stateMutability": "view",
      "type": "function"
    },
    {
      "constant": false,
      "inputs": [
        {
          "internalType": "address",
          "name": "to",
          "type": "address"
        },
        {
          "internalType": "uint256",
          "name": "value",
          "type": "uint256"
        }
      ],
      "name": "transfer",
      "outputs": [
        {
          "internalType": "bool",
          "name": "",
          "type": "bool"
        }
      ],
      "payable": false,
      "stateMutability": "nonpayable",
      "type": "function"
    },
    {
      "constant": false,
      "inputs": [
        {
          "internalType": "address",
          "name": "from",
          "type": "address"
        },
        {
          "internalType": "address",
          "name": "to",
          "type": "address"
        },
        {
          "internalType": "uint256",
          "name": "value",
          "type": "uint256"
        }
      ],
      "name": "transferFrom",
      "outputs": [
        {
          "internalType": "bool",
          "name": "",
          "type": "bool"
        }
      ],
      "payable": false,
      "stateMutability": "nonpayable",
      "type": "function"
    }
  ],
  "bytecode": "0x60806040526001600c5534801561001557600080fd5b506040514690806052612b588239604080519182900360520182208282018252600b83526a4c61627261646f204c507360a81b6020938401528151808301835260018152603160f81b908401528151808401919091527f751ce1d9d6e23e3462d9c68755d7a4b7e9ef73adc5d56ca741ef1a59b7681e06818301527fc89efdaa54c0f20c7adf612882df0950f5a951637e0307cdcb4c672f298b8bc6606082015260808101949094523060a0808601919091528151808603909101815260c09094019052825192019190912060035550600580546001600160a01b03191633179055612a52806101066000396000f3fe608060405234801561001057600080fd5b50600436106102405760003560e01c80636a62784211610145578063ba9a7a56116100bd578063d21220a71161008c578063dd62ed3e11610071578063dd62ed3e14610759578063f3d7d28214610787578063fff6cae9146107ad57610240565b8063d21220a714610700578063d505accf1461070857610240565b8063ba9a7a56146106ab578063bc25cf77146106b3578063c28ae3f7146106d9578063c45a0155146106f857610240565b806389afcb441161011457806395d89b41116100f957806395d89b4114610658578063a9059cbb14610660578063b0253f341461068c57610240565b806389afcb44146105fc5780638a9ae9ec1461063b57610240565b80636a6278421461058257806370a08231146105a85780637464fc3d146105ce5780637ecebe00146105d657610240565b80632b5e3aa5116101d8578063485cc955116101a75780635a3d54931161018c5780635a3d5493146104b05780635d14aa42146104b857806367c85fd5146104c057610240565b8063485cc9551461047a5780635909c0d5146104a857610240565b80632b5e3aa51461044457806330adf81f1461044c578063313ce567146104545780633644e5151461047257610240565b8063095ea7b311610214578063095ea7b3146103a25780630dfe1681146103e257806318160ddd1461040657806323b872dd1461040e57610240565b806241c9f714610245578063022c0d9f1461025f57806306fdde03146102ed5780630902f1ac1461036a575b600080fd5b61024d6107b5565b60408051918252519081900360200190f35b6102eb6004803603608081101561027557600080fd5b8135916020810135916001600160a01b0360408301351691908101906080810160608201356401000000008111156102ac57600080fd5b8201836020820111156102be57600080fd5b803590602001918460018302840111640100000000831117156102e057600080fd5b5090925090506107bb565b005b6102f5610d81565b6040805160208082528351818301528351919283929083019185019080838360005b8381101561032f578181015183820152602001610317565b50505050905090810190601f16801561035c5780820380516001836020036101000a031916815260200191505b509250505060405180910390f35b610372610dba565b604080516001600160701b03948516815292909316602083015263ffffffff168183015290519081900360600190f35b6103ce600480360360408110156103b857600080fd5b506001600160a01b038135169060200135610de4565b604080519115158252519081900360200190f35b6103ea610dfb565b604080516001600160a01b039092168252519081900360200190f35b61024d610e0a565b6103ce6004803603606081101561042457600080fd5b506001600160a01b03813581169160208101359091169060400135610e10565b6103ce610eaa565b61024d610eb8565b61045c610edc565b6040805160ff9092168252519081900360200190f35b61024d610ee1565b6102eb6004803603604081101561049057600080fd5b506001600160a01b0381358116916020013516610ee7565b61024d610f8a565b61024d610f90565b6103ce610f96565b6103ce600480360360408110156104d657600080fd5b8101906020810181356401000000008111156104f157600080fd5b82018360208201111561050357600080fd5b8035906020019184602083028401116401000000008311171561052557600080fd5b91939092909160208101903564010000000081111561054357600080fd5b82018360208201111561055557600080fd5b8035906020019184602083028401116401000000008311171561057757600080fd5b509092509050610f9f565b61024d6004803603602081101561059857600080fd5b50356001600160a01b03166110e9565b61024d600480360360208110156105be57600080fd5b50356001600160a01b0316611457565b61024d611469565b61024d600480360360208110156105ec57600080fd5b50356001600160a01b031661146f565b6106226004803603602081101561061257600080fd5b50356001600160a01b0316611481565b6040805192835260208301919091528051918290030190f35b6103ce6004803603602081101561065157600080fd5b5035611867565b6102f5611910565b6103ce6004803603604081101561067657600080fd5b506001600160a01b038135169060200135611949565b6103ce600480360360208110156106a257600080fd5b50351515611956565b61024d6119ce565b6102eb600480360360208110156106c957600080fd5b50356001600160a01b03166119d4565b6103ce600480360360208110156106ef57600080fd5b50351515611b41565b6103ea611bb3565b6103ea611bc2565b6102eb600480360360e081101561071e57600080fd5b506001600160a01b03813581169160208101359091169060408101359060608101359060ff6080820135169060a08101359060c00135611bd1565b61024d6004803603604081101561076f57600080fd5b506001600160a01b0381358116916020013516611df9565b6103ce6004803603602081101561079d57600080fd5b50356001600160a01b0316611e16565b6102eb611e34565b600d5481565b600c54600114610808576040805162461bcd60e51b81526020600482015260136024820152721318589c98591bd4185a5c8e881313d0d2d151606a1b604482015290519081900360640190fd5b6000600c55600f5460ff1661087457336000908152600e602052604090205460ff16610874576040805162461bcd60e51b81526020600482015260166024820152752630b13930b237a830b4b91d102327a92124a22222a760511b604482015290519081900360640190fd5b60008511806108835750600084115b6108be5760405162461bcd60e51b81526004018080602001828103825260278152602001806129166027913960400191505060405180910390fd5b6000806108c9610dba565b5091509150816001600160701b0316871080156108ee5750806001600160701b031686105b6109295760405162461bcd60e51b81526004018080602001828103825260238152602001806129c26023913960400191505060405180910390fd5b60065460075460009182916001600160a01b039182169190811690891682148015906109675750806001600160a01b0316896001600160a01b031614155b6109b8576040805162461bcd60e51b815260206004820152601760248201527f4c61627261646f506169723a20494e56414c49445f544f000000000000000000604482015290519081900360640190fd5b8a156109c9576109c9828a8d611f98565b89156109da576109da818a8c611f98565b8615610a9557886001600160a01b03166310d1e85c338d8d8c8c6040518663ffffffff1660e01b815260040180866001600160a01b03166001600160a01b03168152602001858152602001848152602001806020018281038252848482818152602001925080828437600081840152601f19601f8201169050808301925050509650505050505050600060405180830381600087803b158015610a7c57600080fd5b505af1158015610a90573d6000803e3d6000fd5b505050505b604080516370a0823160e01b815230600482015290516001600160a01b038416916370a08231916024808301926020929190829003018186803b158015610adb57600080fd5b505afa158015610aef573d6000803e3d6000fd5b505050506040513d6020811015610b0557600080fd5b5051604080516370a0823160e01b815230600482015290519195506001600160a01b038316916370a0823191602480820192602092909190829003018186803b158015610b5157600080fd5b505afa158015610b65573d6000803e3d6000fd5b505050506040513d6020811015610b7b57600080fd5b5051925060009150506001600160701b0385168a90038311610b9e576000610bad565b89856001600160701b03160383035b9050600089856001600160701b0316038311610bca576000610bd9565b89856001600160701b03160383035b90506000821180610bea5750600081115b610c255760405162461bcd60e51b81526004018080602001828103825260268152602001806128936026913960400191505060405180910390fd5b6000610c5d610c3f600d548561214b90919063ffffffff16565b610c51876103e863ffffffff61214b16565b9063ffffffff6121b716565b90506000610c79610c3f600d548561214b90919063ffffffff16565b9050610caa620f4240610c9e6001600160701b038b8116908b1663ffffffff61214b16565b9063ffffffff61214b16565b610cba838363ffffffff61214b16565b1015610d0d576040805162461bcd60e51b815260206004820152600e60248201527f4c61627261646f506169723a204b000000000000000000000000000000000000604482015290519081900360640190fd5b5050610d1b8484888861220f565b60408051838152602081018390528082018d9052606081018c905290516001600160a01b038b169133917fd78ad95fa46c994b6551d0da85fc275fe613ce37657fb8d5e3d130840159d8229181900360800190a350506001600c55505050505050505050565b6040518060400160405280600b81526020017f4c61627261646f204c507300000000000000000000000000000000000000000081525081565b6008546001600160701b0380821692600160701b830490911691600160e01b900463ffffffff1690565b6000610df13384846123ec565b5060015b92915050565b6006546001600160a01b031681565b60005481565b6001600160a01b038316600090815260026020908152604080832033845290915281205460001914610e95576001600160a01b0384166000908152600260209081526040808320338452909152902054610e70908363ffffffff6121b716565b6001600160a01b03851660009081526002602090815260408083203384529091529020555b610ea084848461244e565b5060019392505050565b600f54610100900460ff1681565b7f6e71edae12b1b97f4d1f60370fef10105fa2faae0126114a169c64845d6126c981565b601281565b60035481565b6005546001600160a01b03163314610f3f576040805162461bcd60e51b81526020600482015260166024820152752630b13930b237a830b4b91d102327a92124a22222a760511b604482015290519081900360640190fd5b600680546001600160a01b039384167fffffffffffffffffffffffff000000000000000000000000000000000000000091821617909155600780549290931691161790556003600d55565b60095481565b600a5481565b600f5460ff1681565b6005546000906001600160a01b03163314610ffa576040805162461bcd60e51b81526020600482015260166024820152752630b13930b237a830b4b91d102327a92124a22222a760511b604482015290519081900360640190fd5b836110365760405162461bcd60e51b81526004018080602001828103825260338152602001806128b96033913960400191505060405180910390fd5b8382146110745760405162461bcd60e51b81526004018080602001828103825260398152602001806129e56039913960400191505060405180910390fd5b60005b848110156110dd5783838281811061108b57fe5b905060200201351515600e60008888858181106110a457fe5b602090810292909201356001600160a01b0316835250810191909152604001600020805460ff1916911515919091179055600101611077565b50600195945050505050565b6000600c54600114611138576040805162461bcd60e51b81526020600482015260136024820152721318589c98591bd4185a5c8e881313d0d2d151606a1b604482015290519081900360640190fd5b6000600c55600f54610100900460ff166111a957336000908152600e602052604090205460ff166111a9576040805162461bcd60e51b81526020600482015260166024820152752630b13930b237a830b4b91d102327a92124a22222a760511b604482015290519081900360640190fd5b6000806111b4610dba565b50600654604080516370a0823160e01b815230600482015290519395509193506000926001600160a01b03909116916370a08231916024808301926020929190829003018186803b15801561120857600080fd5b505afa15801561121c573d6000803e3d6000fd5b505050506040513d602081101561123257600080fd5b5051600754604080516370a0823160e01b815230600482015290519293506000926001600160a01b03909216916370a0823191602480820192602092909190829003018186803b15801561128557600080fd5b505afa158015611299573d6000803e3d6000fd5b505050506040513d60208110156112af57600080fd5b5051905060006112ce836001600160701b03871663ffffffff6121b716565b905060006112eb836001600160701b03871663ffffffff6121b716565b905060006112f98787612508565b60005490915080611336576113226103e8610c5161131d878763ffffffff61214b16565b612666565b985061133160006103e86126b7565b611385565b6113826001600160701b038916611353868463ffffffff61214b16565b8161135a57fe5b046001600160701b038916611375868563ffffffff61214b16565b8161137c57fe5b0461274d565b98505b600089116113c45760405162461bcd60e51b815260040180806020018281038252602a815260200180612998602a913960400191505060405180910390fd5b6113ce8a8a6126b7565b6113da86868a8a61220f565b811561140a57600854611406906001600160701b0380821691600160701b90041663ffffffff61214b16565b600b555b6040805185815260208101859052815133927f4c209b5fc8ad50758f13e2e1088ba56a560dff690a1c6fef26394f4c03821c4f928290030190a250506001600c5550949695505050505050565b60016020526000908152604090205481565b600b5481565b60046020526000908152604090205481565b600080600c546001146114d1576040805162461bcd60e51b81526020600482015260136024820152721318589c98591bd4185a5c8e881313d0d2d151606a1b604482015290519081900360640190fd5b6000600c819055546115145760405162461bcd60e51b815260040180806020018281038252602f81526020018061293d602f913960400191505060405180910390fd5b60008061151f610dba565b50600654600754604080516370a0823160e01b815230600482015290519496509294506001600160a01b039182169391169160009184916370a08231916024808301926020929190829003018186803b15801561157b57600080fd5b505afa15801561158f573d6000803e3d6000fd5b505050506040513d60208110156115a557600080fd5b5051604080516370a0823160e01b815230600482015290519192506000916001600160a01b038516916370a08231916024808301926020929190829003018186803b1580156115f357600080fd5b505afa158015611607573d6000803e3d6000fd5b505050506040513d602081101561161d57600080fd5b50513060009081526001602052604081205491925061163c8888612508565b60005490915080611653848763ffffffff61214b16565b8161165a57fe5b049a508061166e848663ffffffff61214b16565b8161167557fe5b04995060008b118015611688575060008a115b6116c35760405162461bcd60e51b815260040180806020018281038252602a8152602001806128ec602a913960400191505060405180910390fd5b6116cd3084612765565b6116d8878d8d611f98565b6116e3868d8c611f98565b604080516370a0823160e01b815230600482015290516001600160a01b038916916370a08231916024808301926020929190829003018186803b15801561172957600080fd5b505afa15801561173d573d6000803e3d6000fd5b505050506040513d602081101561175357600080fd5b5051604080516370a0823160e01b815230600482015290519196506001600160a01b038816916370a0823191602480820192602092909190829003018186803b15801561179f57600080fd5b505afa1580156117b3573d6000803e3d6000fd5b505050506040513d60208110156117c957600080fd5b505193506117d985858b8b61220f565b811561180957600854611805906001600160701b0380821691600160701b90041663ffffffff61214b16565b600b555b604080518c8152602081018c905281516001600160a01b038f169233927fdccd412f0b1252819cb1fd330b93224ca42612892bb3f4f789976e6d81936496929081900390910190a35050505050505050506001600c81905550915091565b6005546000906001600160a01b031633146118c2576040805162461bcd60e51b81526020600482015260166024820152752630b13930b237a830b4b91d102327a92124a22222a760511b604482015290519081900360640190fd5b6103e882106119025760405162461bcd60e51b815260040180806020018281038252602c81526020018061296c602c913960400191505060405180910390fd5b50600d81905560015b919050565b6040518060400160405280600781526020017f4c4252442d4c500000000000000000000000000000000000000000000000000081525081565b6000610df133848461244e565b6005546000906001600160a01b031633146119b1576040805162461bcd60e51b81526020600482015260166024820152752630b13930b237a830b4b91d102327a92124a22222a760511b604482015290519081900360640190fd5b50600f80548215156101000261ff00199091161790556001919050565b6103e881565b600c54600114611a21576040805162461bcd60e51b81526020600482015260136024820152721318589c98591bd4185a5c8e881313d0d2d151606a1b604482015290519081900360640190fd5b6000600c55600654600754600854604080516370a0823160e01b815230600482015290516001600160a01b039485169490931692611ad09285928792611acb926001600160701b03169185916370a0823191602480820192602092909190829003018186803b158015611a9357600080fd5b505afa158015611aa7573d6000803e3d6000fd5b505050506040513d6020811015611abd57600080fd5b50519063ffffffff6121b716565b611f98565b600854604080516370a0823160e01b81523060048201529051611b379284928792611acb92600160701b90046001600160701b0316916001600160a01b038616916370a0823191602480820192602092909190829003018186803b158015611a9357600080fd5b50506001600c5550565b6005546000906001600160a01b03163314611b9c576040805162461bcd60e51b81526020600482015260166024820152752630b13930b237a830b4b91d102327a92124a22222a760511b604482015290519081900360640190fd5b50600f805460ff1916911515919091179055600190565b6005546001600160a01b031681565b6007546001600160a01b031681565b42841015611c26576040805162461bcd60e51b815260206004820152601260248201527f4c61627261646f4c503a20455850495245440000000000000000000000000000604482015290519081900360640190fd5b6003546001600160a01b0380891660008181526004602090815260408083208054600180820190925582517f6e71edae12b1b97f4d1f60370fef10105fa2faae0126114a169c64845d6126c98186015280840196909652958d166060860152608085018c905260a085019590955260c08085018b90528151808603909101815260e0850182528051908301207f19010000000000000000000000000000000000000000000000000000000000006101008601526101028501969096526101228085019690965280518085039096018652610142840180825286519683019690962095839052610162840180825286905260ff89166101828501526101a284018890526101c28401879052519193926101e280820193601f1981019281900390910190855afa158015611d5c573d6000803e3d6000fd5b5050604051601f1901519150506001600160a01b03811615801590611d925750886001600160a01b0316816001600160a01b0316145b611de3576040805162461bcd60e51b815260206004820152601c60248201527f4c61627261646f4c503a20494e56414c49445f5349474e415455524500000000604482015290519081900360640190fd5b611dee8989896123ec565b505050505050505050565b600260209081526000928352604080842090915290825290205481565b6001600160a01b03166000908152600e602052604090205460ff1690565b600c54600114611e81576040805162461bcd60e51b81526020600482015260136024820152721318589c98591bd4185a5c8e881313d0d2d151606a1b604482015290519081900360640190fd5b6000600c55600654604080516370a0823160e01b81523060048201529051611f91926001600160a01b0316916370a08231916024808301926020929190829003018186803b158015611ed257600080fd5b505afa158015611ee6573d6000803e3d6000fd5b505050506040513d6020811015611efc57600080fd5b5051600754604080516370a0823160e01b815230600482015290516001600160a01b03909216916370a0823191602480820192602092909190829003018186803b158015611f4957600080fd5b505afa158015611f5d573d6000803e3d6000fd5b505050506040513d6020811015611f7357600080fd5b50516008546001600160701b0380821691600160701b90041661220f565b6001600c55565b604080518082018252601981527f7472616e7366657228616464726573732c75696e74323536290000000000000060209182015281516001600160a01b0385811660248301526044808301869052845180840390910181526064909201845291810180516001600160e01b03167fa9059cbb000000000000000000000000000000000000000000000000000000001781529251815160009460609489169392918291908083835b6020831061205e5780518252601f19909201916020918201910161203f565b6001836020036101000a0380198251168184511680821785525050505050509050019150506000604051808303816000865af19150503d80600081146120c0576040519150601f19603f3d011682016040523d82523d6000602084013e6120c5565b606091505b50915091508180156120f35750805115806120f357508080602001905160208110156120f057600080fd5b50515b612144576040805162461bcd60e51b815260206004820152601c60248201527f4c61627261646f506169723a205452414e534645525f4641494c454400000000604482015290519081900360640190fd5b5050505050565b60008115806121665750508082028282828161216357fe5b04145b610df5576040805162461bcd60e51b815260206004820152601460248201527f64732d6d6174682d6d756c2d6f766572666c6f77000000000000000000000000604482015290519081900360640190fd5b80820382811115610df5576040805162461bcd60e51b815260206004820152601560248201527f64732d6d6174682d7375622d756e646572666c6f770000000000000000000000604482015290519081900360640190fd5b6001600160701b03841180159061222d57506001600160701b038311155b61227e576040805162461bcd60e51b815260206004820152601560248201527f4c61627261646f506169723a204f564552464c4f570000000000000000000000604482015290519081900360640190fd5b60085463ffffffff42811691600160e01b900481168203908116158015906122ae57506001600160701b03841615155b80156122c257506001600160701b03831615155b15612333578063ffffffff166122f0856122db86612803565b6001600160e01b03169063ffffffff61281516565b600980546001600160e01b03929092169290920201905563ffffffff811661231b846122db87612803565b600a80546001600160e01b0392909216929092020190555b600880546dffffffffffffffffffffffffffff19166001600160701b03888116919091177fffffffff0000000000000000000000000000ffffffffffffffffffffffffffff16600160701b8883168102919091176001600160e01b0316600160e01b63ffffffff871602179283905560408051848416815291909304909116602082015281517f1c411e9a96e071241c2f21f7726b17ae89e3cab4c78be50e062b03a9fffbbad1929181900390910190a1505050505050565b6001600160a01b03808416600081815260026020908152604080832094871680845294825291829020859055815185815291517f8c5be1e5ebec7d5bd14f71427d1e84f3dd0314c0f7b2291e5b200ac8c7c3b9259281900390910190a3505050565b6001600160a01b038316600090815260016020526040902054612477908263ffffffff6121b716565b6001600160a01b0380851660009081526001602052604080822093909355908416815220546124ac908263ffffffff61283a16565b6001600160a01b0380841660008181526001602090815260409182902094909455805185815290519193928716927fddf252ad1be2c89b69c2b068fc378daa952ba7f163c4a11628f55a4df523b3ef92918290030190a3505050565b600080600560009054906101000a90046001600160a01b03166001600160a01b031663017e7e586040518163ffffffff1660e01b815260040160206040518083038186803b15801561255957600080fd5b505afa15801561256d573d6000803e3d6000fd5b505050506040513d602081101561258357600080fd5b5051600b546001600160a01b03821615801594509192509061265257801561264d5760006125c661131d6001600160701b0388811690881663ffffffff61214b16565b905060006125d383612666565b90508082111561264a5760006126016125f2848463ffffffff6121b716565b6000549063ffffffff61214b16565b905060006126268361261a86600563ffffffff61214b16565b9063ffffffff61283a16565b9050600081838161263357fe5b04905080156126465761264687826126b7565b5050505b50505b61265e565b801561265e576000600b555b505092915050565b600060038211156126a9575080600160028204015b818110156126a35780915060028182858161269257fe5b04018161269b57fe5b04905061267b565b5061190b565b811561190b57506001919050565b6000546126ca908263ffffffff61283a16565b60009081556001600160a01b0383168152600160205260409020546126f5908263ffffffff61283a16565b6001600160a01b03831660008181526001602090815260408083209490945583518581529351929391927fddf252ad1be2c89b69c2b068fc378daa952ba7f163c4a11628f55a4df523b3ef9281900390910190a35050565b600081831061275c578161275e565b825b9392505050565b6001600160a01b03821660009081526001602052604090205461278e908263ffffffff6121b716565b6001600160a01b038316600090815260016020526040812091909155546127bb908263ffffffff6121b716565b60009081556040805183815290516001600160a01b038516917fddf252ad1be2c89b69c2b068fc378daa952ba7f163c4a11628f55a4df523b3ef919081900360200190a35050565b6001600160701b0316600160701b0290565b60006001600160701b0382166001600160e01b0384168161283257fe5b049392505050565b80820182811015610df5576040805162461bcd60e51b815260206004820152601460248201527f64732d6d6174682d6164642d6f766572666c6f77000000000000000000000000604482015290519081900360640190fdfe4c61627261646f506169723a20494e53554646494349454e545f494e5055545f414d4f554e544c61627261646f506169723a206c656e677468206f66205f726f7574657273206d7573742067726561746572207468616e20304c61627261646f506169723a20494e53554646494349454e545f4c49515549444954595f4255524e45444c61627261646f506169723a20494e53554646494349454e545f4f55545055545f414d4f554e544c61627261646f506169723a20746f74616c537570706c79206d7573742062652067726561746572207468616e20304c61627261646f506169723a206665652073776170206d757374206265206c657373207468616e20313030254c61627261646f506169723a20494e53554646494349454e545f4c49515549444954595f4d494e5445444c61627261646f506169723a20494e53554646494349454e545f4c49515549444954594c61627261646f506169723a206c656e677468206f66205f726f757465727320616e64205f737461747573206d75737420626520657175616ca265627a7a72315820b9a4624429c2b5d0f053c56853a6ec6452b18583316c377df8954dd94d33173a64736f6c63430005100032454950373132446f6d61696e28737472696e67206e616d652c737472696e672076657273696f6e2c75696e7432353620636861696e49642c6164647265737320766572696679696e67436f6e747261637429",
  "linkReferences": {},
  "deployedLinkReferences": {}
}